:02000002D0002C
:1040000000400D0010930D00000006000E00050199
:0840100004017E050000000020
:04401800B4880D005B
:1040200009480A49884208B505D0094A824202D0A7
:10403000121A04F07EFB0748074A0021121A04F006
:104040009EFB014808BD00BF18CF032080920D00E1
:1040500080CF032080CF0320F0E7032070B502F06B
:1040600029F9074C074BE41AA40800251E46A5426F
:1040700004D056F8253098470135F8E770BD00BFE9
:104080007C920D0024920D0000F0C0B808B500F03D
:1040900055F9BDE8084002F0DBB801F033B801F093
:1040A00031B801F037B801F035B80078B0FA80F0D7
:1040B0004009704701230370704703681847012ABD
:1040C00002D0022A02D004E0016002E00B6800B1D5
:1040D000036000207047000008B5044B01221A70ED
:1040E00000F05EFD024B1860002008BD34E30320A1
:1040F0005CE30320436913B183690C3018477047B0
:1041000013B500210446084600F09EFD02A90023D5
:10411000204641F8043D00F0AFFD019C0CB10123A5
:1041200023710021012000F08FFD2CB1236820466F
:104130009B6898470023237102B010BD10B58368B7
:10414000044613B1032201469847204610BD07B527
:104150008068002338B18DE80A00022100F094FD48
:10416000B0FA80F0400903B05DF804FB38B5104B9D
:10417000036083680446A3B16FF000410022FFF79B
:10418000E6FF0021A06800F0AFFD237903F0FF05F2
:1041900013B100F041FDF8E72946A06800F064FD86
:1041A000A56004F10C00FFF7C9FF204638BD00BF31
:1041B000D0880D0010B50446FFF7D8FF20461C211B
:1041C00003F022FD204610BD10B5044601F03EFC70
:1041D00004F1080001F0ABFC04F12C0001F0A7FC95
:1041E000204610BD70B5064600F0DAFC064C0546C8
:1041F00000F0D6FC401BB04205D200F0D1FC20609C
:1042000000F048FFF4E770BD30E7032030B501202F
:1042100085B000F0A1FE0024082302943F4DADF8C4
:1042200008300123039302AA234644F62061204666
:1042300000F058FF224621462846FFF788FFA8686D
:1042400040B16FF00043009301942346224621467B
:1042500000F01AFD02F022FC4FF4E13102F012FCF2
:104260000121042003F03EFC0121052003F03AFC6B
:104270000121062003F036FC0121082003F032FC66
:104280000121072003F02EFC0121122003F02AFC5B
:104290000121132003F026FC0021032003F022FC5F
:1042A0000021022003F01EFC0021182003F01AFC5C
:1042B00001F0B8FC042101F0D3FC0121072003F038
:1042C00022FC0121082003F01EFC0121062003F03E
:1042D0001AFC0021042003F016FC0021052003F045
:1042E00012FC0021032003F00EFC0021022003F049
:1042F0000AFC0B4A0B490C4802F054F80B4A0C49D3
:104300000C4803F01BF80021182003F0EBFB0121FF
:10431000094800F03FFA05B030BD00BF3CE3032080
:10432000B4890D00D9400D0079630D005D440D0086
:10433000DC880D003CE5032060E30320704738B5BE
:10434000046805467CB16368013B63605BB9236820
:1043500020469B689847A368013BA3601BB923686C
:104360002046DB689847284638BD00000000000062
:1043700070B52F4E8AB004461F22304604F07AFAF8
:1043800002F08CFB009623462A4A2B4C012101F0B7
:10439000C1FE2A4B01253146202220461D7004F023
:1043A00069FA02F07BFB2346254A264E294601F096
:1043B000B1FE182003F0C0FB03F0D6FE1AA3D3E928
:1043C000002303F037FF04F047F9039003F0DEFE0B
:1043D00002460B4606A81C4901F0E0FA1B4B069A60
:1043E0001B781B498DF8003004A83C2302F0EAF842
:1043F00005A8FFF7A4FF06A801F05BFA9DED030AEC
:104400002146304600F0BAF902F048FB2346114A33
:10441000294601F07FFE1049304600F0B8F90AB095
:1044200070BD00BFAFF300809402C1D2AF63523FB2
:1044300091E30320E5880D0070E3032090E303205F
:1044400011890D0060E3032043890D0059E3032027
:1044500048890D0050890D0081890D0030B50D4649
:1044600085B02549284604F0BBF9044618BB40F640
:10447000B830FFF7B7FE0121132003F044FB012100
:10448000122003F040FB4FF4FA7001F093FE214636
:10449000132003F038FB2146122003F034FB174BA6
:1044A0001749184801221A70174A02F0CFFE40F649
:1044B000B830FFF797FE1549284604F091F90446F5
:1044C000B8B90146062003F01EFB0C4B104901222F
:1044D0001A70104B1B788DF8003022463C2302A83E
:1044E00002F070F803A8FFF72AFF4FF4FA60FFF715
:1044F00079FE05B030BD00BF89890D0058E3032067
:1045000097890D003CE503208E890D00A4890D00DC
:10451000AF890D0059E303201FB500F0C3FDE8B1DA
:10452000002400F0BFFD224601230E4901940094AF
:104530000D4800F0CFFD40F6B830FFF753FE0B4BAF
:1045400009491B788DF8003022463C2302A802F06E
:1045500039F803A8FFF7F3FE04B010BD00F09AFD90
:10456000DBE700BF71430D00BA890D00B1E3032002
:1045700070B5354B354D00241C70354B88B0012289
:104580001A7000F08DFA00F00BFB0322314932481B
:1045900000F0D2F8314A32492F4803F027FB1320AC
:1045A00003F0CAFA07EE900A2E4B2C71F8EEE77A68
:1045B00004AEC3ED007A2C4B049396E803002B4B1A
:1045C0002B6002AA05F10C0382E8030093E80300C4
:1045D00086E8030092E8030083E80300244B6B6144
:1045E000AB690793234BAB61AC602B46224A23494E
:1045F000019405F108000094069400F02DFB30466C
:10460000FFF79CFD2846154A1D491E4E03F0EEFAA1
:1046100040F6D81530195434FFF7D6FDAC42F9D125
:10462000194E002440F6D81530195434FFF7CCFD4C
:10463000AC42F9D100F0B4FA144B0021186001200B
:1046400000F09AFC08B070BDB1E303203CE3032006
:1046500059E30320CF890D0060E3032080CF0320BE
:1046600055470D0038E3032019450D00D0880D0093
:10467000BF400D00BB400D0001410D0080EE360033
:104680006D410D005CD9032084CF03205CE303203F
:1046900038B584690A4B036005467CB16368013B09
:1046A00063605BB9236820469B689847A368013B19
:1046B000A3601BB923682046DB689847284638BDAD
:1046C00038910D0010B50446FFF7E2FF20461C218B
:1046D00003F09AFA204610BD10B5064C00F0E0F940
:1046E000204603F019F92046034A0449BDE810406A
:1046F00003F07CBAB4E3032080CF032091460D0081
:10470000024B00221A7000F0CBB900BFD0E30320A7
:1047100070B50373044650200E4600F0F3FCA06011
:104720004FF48270FFF7B9FC054610B1314600F036
:104730009EF8256070BD000010B500230446437349
:1047400083731346024AFFF7E3FF204610BD00BF04
:10475000E2890D0038B50446806800F0DBFC25686E
:104760003DB1284600F096F84FF48271284603F0D8
:104770004BFA204638BD006800F094B807B5002316
:1047800000931A46FFF7F7FF03B05DF804FB0068DB
:1047900000F04EB98173006800F04EB908B500F022
:1047A0007FF9BDE8084000F0FBB9000010B5064CE9
:1047B00000F076F9204603F0AFF82046034A04499A
:1047C000BDE8104003F012BAD4E3032080CF0320E9
:1047D00091460D0010B5064B036064330446036137
:1047E00000F0D1FD204600F0F7FF204610BD00BFCD
:1047F000CC8C0D0010B50446FFF7ECFF20464C2191
:1048000003F002FA204610BD70B5104D104C114E49
:1048100000F046F9284603F07FF828460E4D224660
:10482000314603F0E3F9284603F076F828460B4DAD
:104830002246314603F0DAF9284600F0AFFF22465F
:1048400028460749BDE8704003F0D0B90CE40320C6
:1048500080CF032091460D00F0E3032028E40320DD
:10486000D5470D0000221146406800F0D3BB1FB5AC
:104870000446684600F01EFC02980130FFF70FFC6A
:104880000099206003F0B6FF684601F012F8204658
:1048900004B010BD10B50446006808B1FFF703FC72
:1048A000204610BD2DE9F047A4B00646894610EE1B
:1048B00010AA1F46DDF8B08015460BAC52B1104669
:1048C00003F0BBFF642807D902F0E8F81A4901F0A9
:1048D000E8FB01E0194900E02946204603F08AFF81
:1048E00008AD2FB13A461649284600F023FC03E0F4
:1048F0001249284603F07EFF07AFB8F1000F05D03C
:1049000042461049384600F015FC03E00B49384692
:1049100003F070FF504604970395029403F036FCB1
:104920000436CDE900014A460749304600F002FC52
:1049300024B0BDE8F08700BF4D8B0D00728F0D00D5
:10494000878B0D0089910D008B8B0D0038B5114DB3
:1049500041F289340F48FFF785FF034650B9013C07
:1049600008D002460146686800F03CFB012001F0D7
:1049700021FCEFE70748FFF775FF044638B9064BFF
:104980001B7823B102F08AF8044901F08AFB204623
:1049900038BD00BF34E5032074E40320E88B0D002C
:1049A000F8B506460B480C4615461F46FFF75AFF5A
:1049B00018B939463046FFF7C9FF0648FFF752FFDE
:1049C00038B12A462146044802F040FC003018BFA6
:1049D0000120F8BD34E503203CE5032041F2883393
:1049E000FFF7DEBF30B50579C3B0044613464DB9B5
:1049F0000B4B187890B102F051F80A4901F051FBC5
:104A000028460BE0021D009202A80A46064900F063
:104A100091FB02AA05492046FFF7E0FF43B030BDF5
:104A200074E40320298C0D00918B0D00728C0D0015
:104A30000A46FFF7D7BF0000014B1970704700BF4F
:104A400074E4032008B500F02BF8BDE8084000F03E
:104A5000A7B8000010B5064C00F022F8204600F080
:104A60009DFE2046034A0449BDE8104003F0BEB84D
:104A700078E4032080CF0320D5470D0000F010B864
:104A800008B5024B1B689B68019308BD68020300D0
:104A900008B5024B1B68DB68019308BD6802030080
:104AA00008B5024B1B681B68019308BD2C0203006C
:104AB00008B5024B1B685B68019308BD2C0203001C
:104AC00008B5024B1B689B68019308BD2C020300CC
:104AD00008B5024B1B68DB68019308BD2C0203007C
:104AE00008B5024B1B681B69019308BD2C0203002B
:104AF00008B5024B1B681B6B019308BD2C02030019
:104B000008B5024B1B68DB69019308BD3002030046
:104B100008B5024B1B681B6A019308BD30020300F5
:104B200008B5024B1B681B69019308BD6C020300AA
:104B300008B5024B1B685B69019308BD6C0203005A
:104B400008B5024B1B689B69019308BD6C0203000A
:104B500008B5024B1B685B6D019308BD6C02030036
:104B600008B5024B1B689B6D019308BD6C020300E6
:104B700008B5024B1B685B68019308BD180203006F
:104B800008B5024B1B689B68019308BD180203001F
:104B900008B5024B1B68DB68019308BD18020300CF
:104BA00008B5024B1B685B69019308BD180203003E
:104BB00008B5024B1B689B68019308BD7402030093
:104BC00008B5024B1B681B6C019308BD74020300FF
:104BD00008B5034B1B68D3F89830019308BD00005B
:104BE0007402030008B5034B1B68D3F8F03001933F
:104BF00008BD00007402030008B5024B1B685B6827
:104C0000019308BD4802030008B5024B1B689B686E
:104C1000019308BD4802030008B5024B1B68DB681E
:104C2000019308BD4802030008B5024B1B681B69CD
:104C3000019308BD4802030008B5024B1B685B697D
:104C4000019308BD4802030008B5024B1B68DB69ED
:104C5000019308BD4802030008B5024B1B681B6A9C
:104C6000019308BD4802030008B5024B1B685B6A4C
:104C7000019308BD4802030008B5024B1B689B6AFC
:104C8000019308BD4802030008B5024B1B68DB6AAC
:104C9000019308BD4802030008B5024B1B681B6B5B
:104CA000019308BD4802030008B5024B1B685B6C0A
:104CB000019308BD4802030008B5024B1B68DB6C7A
:104CC000019308BD4802030008B5024B1B685B6DE9
:104CD000019308BD4802030008B5024B1B68DB6E58
:104CE000019308BD4802030008B5024B1B681B6F07
:104CF000019308BD4802030008B5024B1B685B69BD
:104D0000019308BD6402030008B5024B1B689B6950
:104D1000019308BD6402030008B5024B1B681B6ABF
:104D2000019308BD6402030008B5024B1B685B6A6F
:104D3000019308BD6402030008B5024B1B689B6A1F
:104D4000019308BD6402030008B5024B1B681B6891
:104D5000019308BD3C02030008B5024B1B68DB68E9
:104D6000019308BD3C02030008B5024B1B681B6998
:104D7000019308BD3C02030008B5024B1B685B6948
:104D8000019308BD3C02030008B5024B1B689B69F8
:104D9000019308BD3C02030008B5024B1B68DB69A8
:104DA000019308BD3C02030008B5024B1B681B6A57
:104DB000019308BD3C02030008B5024B1B689B6AC7
:104DC000019308BD3C02030008B5024B1B681B6A37
:104DD000019308BD2802030008B5024B1B685B6AFB
:104DE000019308BD2802030008B5024B1B689B6AAB
:104DF000019308BD2802030008B5024B1B68DB6A5B
:104E0000019308BD2802030008B5024B1B681B6B09
:104E1000019308BD2802030008B5024B1B685B6BB9
:104E2000019308BD2802030008B5024B1B681B6CE8
:104E3000019308BD2802030008B5024B1B685B689C
:104E4000019308BD3802030008B5024B1B689B693B
:104E5000019308BD3802030008B5024B1B68DB69EB
:104E6000019308BD3802030008B5024B1B681B6A9A
:104E7000019308BD3802030008B5024B1B689B6A0A
:104E8000019308BD3802030008B5024B1B68DB6ABA
:104E9000019308BD3802030008B5024B1B681B6B69
:104EA000019308BD3802030008B5024B1B685B6B19
:104EB000019308BD3802030008B5024B1B689B6BC9
:104EC000019308BD3802030008B5024B1B681B683C
:104ED000019308BD4C02030008B5024B1B685B68D8
:104EE000019308BD4C02030008B5024B1B681B6907
:104EF000019308BD4C02030008B5024B1B685B69B7
:104F0000019308BD4C02030008B5024B1B689B6966
:104F1000019308BD4C02030008B5024B1B68DB6916
:104F2000019308BD4C02030008B5024B1B681B6AC5
:104F3000019308BD4C02030008B5024B1B685B6B74
:104F4000019308BD6002030008B5024B1B681B6D8E
:104F5000019308BD6002030008B5024B1B685B6843
:104F6000019308BD2002030008B5024B1B685B6972
:104F7000019308BD2002030008B5024B1B68DB6AE1
:104F8000019308BD2002030008B5024B1B68DB6CCF
:104F9000019308BD2002030008B5024B1B685B6D3E
:104FA000019308BD2002030008B5034B1B68D3F82A
:104FB0008830019308BD00002002030008B5034BB0
:104FC0001B68D3F89430019308BD00002002030051
:104FD00008B5034B1B68D3F8A430019308BD00004B
:104FE0002002030008B5024B1B685B68019308BDF3
:104FF0004002030008B5024B1B689B68019308BD83
:105000004002030008B5024B1B68DB68019308BD32
:105010004002030008B5024B1B681B69019308BDE1
:105020004002030008B5024B1B685B69019308BD91
:105030004002030008B5024B1B689B69019308BD41
:105040004002030008B5024B1B68DB69019308BDF1
:105050004002030008B5024B1B681B6A019308BDA0
:105060004002030008B5024B1B681B6B019308BD8F
:105070004002030008B5024B1B685B6B019308BD3F
:105080004002030008B5024B1B685B68019308BD32
:105090004402030008B5024B1B689B68019308BDDE
:1050A0004402030008B5024B1B685B69019308BD0D
:1050B0004402030008B5024B1B68DB69019308BD7D
:1050C0004402030008B5024B1B681B6A019308BD2C
:1050D0004402030008B5024B1B685B6A019308BDDC
:1050E0004402030008B5024B1B689B6B019308BD8B
:1050F0004402030008B5024B1B68DB6B019308BD3B
:105100004402030008B5024B1B681B68019308BDED
:105110001C02030008B5024B1B685B68019308BDC5
:105120001C02030008B5024B1B689B68019308BD75
:105130001C02030008B5024B1B68DB68019308BD25
:105140001C02030008B5024B1B685B6A019308BD93
:105150001C02030008B5024B1B68DB6A019308BD03
:105160001C02030008B5024B1B681B6B019308BDB2
:105170001C02030008B5024B1B68DB6B019308BDE2
:105180001C020300002211464068FFF763BF0022A3
:1051900011464068FFF76EBF00224068FFF762BF0C
:1051A000002281F001014068FFF74CBF00231A463E
:1051B00019464068FFF73EBF00231A46194640686B
:1051C000FFF730BF002211464068FFF723BF0022DF
:1051D00011464068FFF70EBF002202214068FFF72A
:1051E00011BF00231A464068FFF7FCBE024B0322A2
:1051F0005A60024A1A607047C4E40320888C0D008C
:10520000704710B51021044602F0FEFC204610BD88
:1052100070B5084B0360044600250E4640F80C5F4D
:10522000FFF73AFD30462671FFF76AFCA56020467D
:1052300070BD00BFBC8C0D000079FFF769BC000099
:10524000044B00204FF6FF72187058809A80FFF7C9
:1052500083BE00BFCCE4032010B40468246BA446D2
:105260005DF8044B604703689B6C1847808E70475D
:10527000028FC08E101A704713B502AB026803F894
:10528000011DD46819460122A04702B010BD10B517
:1052900003681B690446984728B1E38EE26B591CEA
:1052A000E186D05C10BD4FF0FF3010BD10B5036833
:1052B0001B690446984718B1E38EE26BD05C10BDC1
:1052C0004FF0FF3010BD704710B403460846DC6B4A
:1052D000D98E1A8F0368521ADB6821445DF8044B9B
:1052E0001847A0F11000FFF7EFBFF0B503688DB0CD
:1052F0001C265B6A04460F46154698470123324632
:10530000002105A8029303F03AFA8DF8146038469C
:105310000A268DF81560FFF70FFD1122ADF8160073
:1053200002213046FFF7C8FD0028606124DB04221B
:10533000009202AB40F6FF71FFF786FDE0B995B130
:105340000390ADF8100003A9E8B2FFF7F1FB98B99C
:105350000623009341F20B0203AB40F6FF71606934
:10536000FFF772FD40B91C2205A96069FFF764FDD3
:1053700010B96564012004E0236820465B6A984701
:1053800000200DB0F0BD10B504464069002801DBD7
:10539000FFF762FD4FF0FF3363610023E38623874D
:1053A00010BD38B5C36B0546C08E13B12C6C241AE2
:1053B00000E01C46944228BF14462246184403F0DD
:1053C000B8F9EB8E2344EB86204638BD70B50368F0
:1053D0001B6904460E461546984788B12368204647
:1053E0001B699847E38EE16B8542A8BF05461944C7
:1053F0002A46304603F09DF9E38E2B44E38601E014
:105400004FF0FF35284670BD70B50446054B44F893
:10541000043B01F1200506460FCD0FC42B68237015
:10542000304670BD1C900D00F0B59446026889B0FE
:10543000976A0A4A02921D1D8E4606460FCD03AC9E
:105440000FC42B682370BDF838300093624602AB5E
:1054500071463046B84709B0F0BD00BF1C900D0042
:10546000F0B50368B0F836E09F6A0D4B89B000F1E3
:105470002006044602930FCE03AD0FC533682B7090
:10548000A38E0093724602ABE16B2046B8472368B7
:105490000546DB6920469847284609B0F0BD00BFA5
:1054A0001C900D00F0B54378022B8DB005460C46DC
:1054B000174601D1011D33E00A2B35D111220021FD
:1054C00001A803F05CF9AB6843B9EB6833B94FF658
:1054D000FF702E69FFF720FC86421FD005F10803FC
:1054E00001AE05F1180E18685968324603C2083338
:1054F00073451646F7D1062301A906A807AE8DF815
:10550000143001F029FA0FCE04340FC4336823702D
:1055100057B16888FFF708FC388005E005F11401F1
:10552000204601F04EFAF3E70DB0F0BD2DE9F04151
:105530008EB00EAB002506461746084643F8345D8C
:105540002A462946FFF7A4FA00281FDB019BFBB17E
:105550005B69EBB102A801F0F1F9019B2A46586999
:1055600002A9FFF79FFF02A801F008FA80B1336893
:1055700003ADD3F838800B4B08930FCD09AC0FC4A3
:105580002B6823703A4608A93046C047044601E01C
:105590004FF0FF340198FFF773FA20460EB0BDE8D4
:1055A000F08100BF1C900D002DE9F047D0F8148069
:1055B000B8F1000F8CB005460C461746994600DB43
:1055C00011B94FF0FF3035E04FF01C0A05AE5246DE
:1055D0000021304603F0D3F8CDF808A0B9F1000F50
:1055E00014D04FF47A72B9FBF2F1039102FB1191DE
:1055F0004A4308230492009341F2060203AB40F6AB
:10560000FF714046FFF720FC08B113E0082002AB11
:1056100001932146034600963A466869FFF734FC39
:10562000041E06DB05F1340205F11C013046FFF7CC
:1056300039FF20460CB0BDE8F08738B50546144662
:105640002B7D062B084611D11C2313700A2353709F
:10565000FFF772FB083424F8060C2B1D143553F8A1
:10566000042B44F8042BAB42F9D138BD042B0AD1EA
:105670001023137002235370FFF75EFB608068688D
:10568000FFF74AFB606038BD2DE9F0438BB003ACF7
:105690001C25994606460F46904600212A4620467C
:1056A00003F06DF82246BDF848104846FFF7C5FFE5
:1056B0009DF80D3043B18DE8300000234246394655
:1056C0007069FFF7F1FB01E04FF0FF300BB0BDE870
:1056D000F083F0B591B00C4606460021154609A8A6
:1056E0001C221F4603F04BF809AA00212046FFF7B1
:1056F000A4FF9DF82530022B2ED1002305930A9B91
:105700000493DDB102A92846FFF71AFAB0B910A92F
:1057100041F8340D0298FFF71BFA60B9039B53B1AF
:10572000DA6812685178022903D152680AB10592E9
:1057300001E01B68F3E70398FFF712FA002F4FF020
:105740000803009318BF032204AB08BF0422002102
:105750003046FFF779FB1EE00A2B1AD104AC142265
:105760000021204603F00BF80BAB0FCB002F84E891
:105770000F004FF01403009318BF0C22234608BFFC
:105780000D22292130460895FFF75EFB00EAE07004
:1057900001E04FF0FF3011B0F0BD000038B54FF41C
:1057A0007A7383600B4B03F108026C3300250361AD
:1057B0004FF0FF3304464560026043611C3001F046
:1057C000BDF84FF40073E5862587E56323646564BF
:1057D000204638BDC48C0D0010B590F84830044602
:1057E00023B1C06B10B1012102F00EFA0023E36374
:1057F00084F848302364E386238710BD70B50446DF
:1058000016460D46FFF7E8FF0023E66323643EB922
:1058100035B12846FEF743FC0123E06384F84830A5
:10582000E36B03B12564206C003018BF012070BD0C
:10583000F8B51746C26B05460C461AB9016C09B19A
:10584000FFF7DCFF04340FCC05F120060FC62368F8
:1058500033700023AF86EB862B87286CF8BD70B5BC
:10586000C26B04460E461AB9016C09B1FFF7C6FFB8
:10587000E16B0022E286228749B1226C3AB12368AB
:1058800020461D6B3346A8470028C8BF20872368E1
:1058900020461B69BDE87040184702464069002851
:1058A00004DB012392F84420FFF713BF4FF0FF30D1
:1058B000704710B504460068FFF72CFC204610BD69
:1058C00010B50446006808B1FFF724FC00232360EC
:1058D000A360636010BD38B504460D460068013111
:1058E000FFF720FC10B184E82100012038BD10B57D
:1058F0000368044613B143688B4207D22046FFF782
:10590000EAFF20B1A3680BB922681370012010BD13
:1059100070B50E46114604461546FFF7E8FF18B964
:105920002046FFF7CDFF09E02A463146A5602068F2
:1059300002F0FFFE2268A3680021D154204670BD0A
:1059400038B50023044603604360836003730D464B
:1059500039B1084602F071FF294602462046FFF79A
:10596000D7FF204638BD884210B50B46044607D005
:10597000096819B19A68FFF7CBFF01E0FFF7A0FFB4
:10598000204610BD10B500230446036043608360C9
:105990000373FFF7E8FF204610BD00000EB4FFB50B
:1059A00009AC054654F8047B019423463A46052188
:1059B00002A8FFF7C7FB0C4906462846FFF7C0FFC1
:1059C00031462846FFF793FF286830B123463A4610
:1059D000711C0194FFF7B6FBA860284604B0BDE82F
:1059E000F04003B0704700BF948F0D007047002057
:1059F000704710B51421044602F006F9204610BD88
:105A0000FEF74FBB08B50A20024A0021FFF794FABF
:105A100008BD00BF914B0D0010B500230370044B6F
:105A200004461868FFF748F901232370204610BD8B
:105A3000DCE4032010B5037804461BB1024B186860
:105A4000FFF742F9204610BDDCE40320002202608B
:105A50004260704708B582798B799A4206D1062256
:105A600002F058FEB0FA80F0400908BD002008BDE1
:105A7000F0B58BB10024E51C8D420FD8661C055D86
:105A8000875D974205D12E44B14207D31C60681C44
:105A9000F0BD01352C44EEE71846F0BD0020F0BD06
:105AA0002DE9F74304460E461D461746002A3AD014
:105AB0000A4601AB016AFFF7DBFF9DF82830226A36
:105AC00003BBF8B1961C2E44361A1F2E2BD8DDF8D6
:105AD000048008F10209C8EB0202121A00EB080167
:105AE00005EB090092B22144204402F02DFE6B1C0C
:105AF00004F808302A46394604EB090002F019FE82
:105B0000266210E0901C2B181F2B0CD86B1CA35482
:105B1000224420623946567020442A4602F009FE8B
:105B2000226A2A442262206A03B0BDE8F0831FB5CE
:105B30000446034600F11F02002003F8010B9342C4
:105B40004FF00001F9D104AA062302F8013D012318
:105B50002162009120461946FFF7A2FF204604B0BB
:105B600010BD10B58369C26903EBC20293421846A7
:105B700006D0046824888C4203F10803F6D110BDD6
:105B8000002010BD10B50A6852F8023F0360536848
:105B9000436010BD1FB502680B6812881B889A42CB
:105BA0000C460CD101466846FFF7ECFF214602A8DF
:105BB000FFF7E8FF02A96846FFF74CFF00B9002095
:105BC00004B010BD10B504463420FEF766FA014655
:105BD00068B10023036043608360C3600361436175
:105BE0008361C361036243628362C36203632160B2
:105BF00019B90A4A0A20FFF79FF90020FEF7D8FFDB
:105C000020B1064A00210A20FFF796F900222168F8
:105C10000348FEF7E7FF204610BD00BF914B0D0083
:105C2000E15E0D0010B50A4C2368DB070ED4204658
:105C3000FEF73BFA50B10748FFF7C4FF2046FEF7D6
:105C400039FA054A0549034801F0D0FF014810BD63
:105C5000D8E40320D4E4032080CF0320F55C0D00BA
:105C600013B50C4601A8FFF7D7FE00212046FEF72A
:105C7000A7FF044601A8FFF7DDFE204602B010BDD5
:105C80000B68036013B15A6801325A60704770B5EF
:105C900004684368054604EBC306A64204D0201DF1
:105CA000FEF74DFB0834F8E72868FFF733FA28467B
:105CB00070BD70B504684368054604EBC306A64290
:105CC00004D0201DFEF73BFB0834F8E72868FFF7F7
:105CD00021FA284670BD10B5046904F11800FFF7D9
:105CE000E8FF04F10C00FFF7D2FF2046BDE81040AA
:105CF000FEF7D7B9F8B504680746C4B1A569E369EA
:105D000005EBC306AE4204D0281DFEF718FB08358C
:105D1000F8E7A069FFF7FEF904F10C00FFF7C9FFEF
:105D20002046FFF7B4FF3421204601F06DFF3846CE
:105D3000F8BD000073B500250560456006462420C7
:105D4000FEF7ABF9044678B103464FF6FF7223F82D
:105D5000022BC0F802505D608572C572C560056196
:105D600045618561C5610562002314200193FEF73A
:105D700094F9034628B1012242608260084A026019
:105D8000046102A8726840F8042D73603460FEF765
:105D9000D6FA33680BB9FFF735FE304602B070BD56
:105DA0003C8D0D00884270B515461AD9904219D223
:105DB000A1F10806511A0439151F44182B1F9E42E1
:105DC00025D0042C07D055F8043C44F8043C29465F
:105DD0002046FFF755FF2846FEF7B1FA083D083C7C
:105DE000ECE714D00C1D061D231F9D420FD0042E7E
:105DF00007D054F8043C46F8043C21463046FFF7EF
:105E00003FFF2046FEF79BFA08340836ECE770BDEA
:105E10002DE9F041046843680546884604EBC30752
:105E2000A74218D041462046FFF7B4FE064608B9FF
:105E30000834F5E78CB1201DFEF781FA2B686A68FB
:105E400004F1080103EBC2022046FFF7ABFF6B68C9
:105E5000013B6B6002E0002600E026463046BDE8CC
:105E6000F081F7B5044651F8043B4768009301A858
:105E7000FFF706FF6668A3689E4214DB0136002E1A
:105E80000BDDF000FFF73EF9054618B394E8060075
:105E900001EBC202FFF786FF00E000252068FFF754
:105EA00039F92560A6602668626806EBC70506EB2F
:105EB000C202294605F10800FFF774FF35B1009BC7
:105EC00046F8373001A9281DFFF7DAFE6368013371
:105ED0006360012501A8FEF732FA284603B0F0BD41
:105EE0002DE9F04104468EB003A80D46FFF794FD5E
:105EF0002368032B02D0042B42D087E004A8FFF7CD
:105F000019FF049B22891A806268049952F8083F9D
:105F1000C1F802305368C1F8063007A8049B069305
:105F200005A9FFF7ADFE06A905F11800FFF799FFD7
:105F3000044607A8FEF703FA2023069374B9364BEC
:105F4000009306AA2346354907943220FEF7FCFF4A
:105F5000049B21461888FEF73BFE0DE0304A009274
:105F6000002306AA2D4907930120FEF7EDFF6B6A77
:105F700013B1E96A04A8984705A8FEF7E0F945E0DF
:105F800021892846FFF7EDFD074600283ED004682A
:105F9000A369E1694FF6FF72228003EBC1019942C8
:105FA00003D053F8080B4280F9E7E668236906EB53
:105FB000C308B04504D0301DFEF7C1F90836F8E734
:105FC00000232361A669E36906EBC308B04504D04A
:105FD000301DFEF7B4F90836F8E70023E361A37239
:105FE000E372AB6A13B1296B3846984720230D4AF8
:105FF00006930092002309490793012006AAFEF7A1
:10600000A3FF394605F11800FFF702FF03A8FFF7C9
:1060100011FD0EB0BDE8F081B28D0D00508D0D0068
:10602000D88D0D00F58D0D00024800230360FEF7AA
:106030003BBE00BFDCE40320F8B506460D468F18D2
:106040000024BD420CD0336815F8011B9B68304614
:106050009847002801DB0444F3E7002C08BF0446FE
:106060002046F8BD70B505460C46084649B102F019
:10607000E4FB2B68024621462846DB68BDE87040F9
:10608000184770BD03689B68184738B50D21054651
:10609000FFF7F8FF0A2104462846FFF7F3FF2044E4
:1060A00038BD38B50546FFF7DDFF04462846FFF743
:1060B000ECFF204438BD30B58BB00B4600218DF885
:1060C0002410012A98BF0A220DF12304B3FBF2F534
:1060D00005FB123303F0FF03092B94BF3033373332
:1060E000DBB2214604F801392B46002DEED1FFF733
:1060F000B9FF0BB030BD10B42AB903685DF8044B8A
:106100009B68C9B21847D2B25DF8044BFFF7D3BF02
:10611000FFF7F1BF0CB42DE9F04387B000AF07F1F2
:106120003804054654F8049B3C600E4623464A4614
:106130001421381DFFF706F8132805D8391D284605
:10614000FFF790FF044613E000F1080323F0070374
:10615000E846ADEB030D411C23464A4668463C60C9
:10616000FEF7F0FF69462846FFF77CFF0446C54668
:106170001EB12846FFF789FF044420461C37BD4660
:10618000BDE8F04302B070470068FEF795BD00001F
:10619000014B024A1A607047E0E40320638F0D0050
:1061A000024B1A68024B1A60704700BF18CF0320D9
:1061B000E4E403200021FEF7D7BE10B50446FDF746
:1061C000BDFF204610BD13B50B46044603C88DE83D
:1061D000030093E8030084E803009DE8030083E8DC
:1061E000030002B010BD00000348044A0449002324
:1061F000836001F0FBBC00BFE8E4032080CF0320F4
:10620000BB610D0008B50F4B33B100F047FC0368CC
:106210001B69984700280DDC0B4B33B100F0C0FC24
:1062200003681B699847002807DC084B43B1AFF3AC
:10623000008008BDAFF30080EEE7AFF30080F4E725
:1062400008BD00BF000000000000000000000000CA
:1062500008B5FFF7D7FFFEF7A3FC014B186008BD98
:1062600030E7032007B5002300931A466FF077014B
:10627000FEF7A4FE03B05DF804FB000007B54388F9
:106280000A2B08D0502B09D1094B1B683BB103B036
:106290005DF804EB1847FFF7E5FF06E000230093E5
:1062A0001A466FF07701FEF789FE03B05DF804FB34
:1062B000F8E4032010B5FEF75BFC044602F068FA30
:1062C000074B13B12046AFF3008000210448FEF7CE
:1062D00011FF00210348BDE81040FEF765BE00BF76
:1062E000000000007D620D0070470020704710B56F
:1062F0001021044601F088FC204610BD08B508B105
:10630000FFF7F5FF08BD0022026010B54FF69C7242
:106310008280B1F9044084808A8002680C6804603D
:106320000A6010BD10B504460068FEF7F3FE204673
:1063300010BD38B5C468F4B12378022B03D104F141
:106340000C00FFF7EFFF656835B12846FDF7F6FE54
:106350001021284601F058FCA56835B12846FDF704
:10636000EDFE1021284601F04FFC20461421BDE827
:10637000384001F049BC38BD10B588B004466846C5
:10638000FFF7DEFA694604A8FFF7FCFA04A8A04765
:10639000044604A8FFF78DFA6846FFF78AFA2046FC
:1063A00008B010BDF0B5102485B007460E4615465E
:1063B00000212246684602F0E2F9002269461046B2
:1063C000ADF80040029703960195FEF75BFE05B01D
:1063D000F0BD13B5044691E8050000234B600B6047
:1063E0002060626001A801930093FDF7A8FF20469A
:1063F00002B010BDF7B50C4602AD54F8043B45F8A9
:10640000083D06460F4601A82146FFF739FC2946FC
:106410003046FFF7DEFF01A8FDF791FF2046FDF7AC
:106420008EFF3846082101F0EFFB304603B0F0BD87
:1064300038B500230446036010200D46FDF72DFEFD
:1064400028B1012343608360024B0360C560206074
:10645000204638BD00900D00826810B50AB901F0E1
:10646000E6FBC368BDE81040184708B5006800F1B6
:106470001001FFF7F1FF08BD826810B50AB901F0FD
:10648000D6FBC368BDE81040184708B5006800F1A6
:106490001001FFF7F1FF08BD38B5002383608B685A
:1064A00004460D462BB102229847EB68E360AB68C7
:1064B000A360204638BD0000F0B589B00468684686
:1064C000FFF721FF00238DF808304FF00202D4E8D7
:1064D0004F3F002B03D1C4E8412F0029F7D102D050
:1064E0008DF8083063E014F10C0503D069462846A6
:1064F000FFF709FFBFF35F8F01236370002004F1F2
:106500000803BFF35F8F53E8006F43E80002002ADF
:10651000F9D1BFF35F8F002E49D0FEF735FD20B1D2
:1065200029463046FFF798FF3AE0314602A8FFF7C8
:10653000B3FFE068B4F9105008B102F063F90690B7
:106540001020ADF81C50FDF7A8FD0546E8B1002766
:1065500087601820FDF7A1FD044688B101468760D9
:1065600002A8FFF730FE049BA268A360059B04927B
:1065700006A9E268E36004F110000592FFF7C3FE8C
:106580000D4BEB600D4B2C60AB6006A8FFF7CAFE0D
:1065900002A8FDF7D3FD002229460948FEF7FCFCBE
:1065A0003046FDF7CBFD1021304601F02DFB68464B
:1065B000FFF7B8FE09B0F0BD6B640D00E1660D0099
:1065C000216C0D002DE9F04F8BB006460F4690462A
:1065D00099469DF850A0FEF765FD07AD834630BB98
:1065E0004FF62E73059005A92846ADF81830FFF731
:1065F0008AFE1420FDF751FD044658B102230370B2
:1066000001234370C0F804B0C0F808B029460C302C
:10661000FFF779FE3046214640F8044BFFF708FFAC
:106620002846FFF77FFE05A8FFF77CFE52E0002416
:106630000C2314206C60AC600793FDF72EFD01461F
:1066400018B1047044704460846004A80391FFF79B
:10665000EFFE224B08930820FDF71FFD044628B1EA
:10666000039B40F8043B04A9FFF70AFB00955FFA7F
:106670008AF34A46414638460994FEF723FD20B97D
:10668000039B5B7803F0FF0283B1039B059304A98E
:1066900006A8FFF7F5FA05A93046FFF79AFE06A807
:1066A000FDF74DFE04A8FDF74AFE13E04FF69C737C
:1066B00005A903A80592ADF81830FFF7FDFE05A85F
:1066C000FFF730FE05A80999FFF794FE06A8FDF72D
:1066D00036FEDAE730460BB0BDE8F08F51680D00AA
:1066E000022AF8B5044606D0032A17D0012A22D17F
:1066F0000B6803601FE018200E68FDF7CEFC05460E
:1067000050B13146FFF7C8FE3069B6F9147008B1D0
:1067100002F078F82861AF8225600CE0046854B17B
:1067200004F11000FFF7FEFD2046FDF707FD1821DC
:10673000204601F069FA0020F8BD38B500238360D7
:106740008B6804460D462BB102229847EB68E36044
:10675000AB68A360204638BD022A70B5044606D057
:10676000032A11D0012A18D10B68036015E0142008
:106770000E68FDF792FC054620B13146FFF7DDFFBC
:10678000337C2B74256008E0046834B12046FDF7A3
:10679000D5FC1421204601F037FA002070BD00001E
:1067A000F0B5002387B00C46BFF35F8F50E8006F51
:1067B00040E80032002AF9D1BFF35F8F002E3FD0AE
:1067C0001846FEF7E1FB074620B121463046FFF7A9
:1067D00053FE2EE0314601A8FFF7AFFF23788DF876
:1067E00014301020FDF759FC0546D0B18760142005
:1067F000FDF753FC044678B18760014601A8FFF716
:10680000E2FC039BA268A360049B0392E268E3603E
:106810009DF81430049223740A4BEB600A4B2C60F1
:10682000AB6001A8FDF78AFC002229460748FEF765
:10683000B3FB3046FDF782FC1021304601F0E4F94D
:1068400007B0F0BD8B640D0059670D00216C0D0081
:1068500030B585B004460D4668461146FFF7CAFDBF
:106860007CB124B228460DB101F0CCFF029002A900
:106870006846ADF80C40FFF71FFE02A8FFF752FD77
:106880001DE000988DF808404FF00102D0E84F3F1E
:10689000A34203D1C0E8412F0029F7D102D08DF8DF
:1068A00008300CE010F10C014FF0010318BF037326
:1068B000BFF35F8F043000F8033CFFF771FF01A8BE
:1068C000FDF73DFD05B030BD704710B518210446F9
:1068D00001F09AF9204610BDF0B5037D062B8DB06E
:1068E0000E4600F104074FF0000402D000F1080545
:1068F00018E00CAD394605F8304D2F232A460A2002
:10690000FEF7FAF9284601F098FF33680246DB6883
:106910002946304698470FE024B12E213046FFF734
:10692000B1FB044415F8011D0A223046FFF7F0FBC5
:10693000BD420444F0D120460DB0F0BD10B5054B6A
:106940000446112240F8043B002101F018FF2046C4
:1069500010BD00BF1C900D000346074A10B543F858
:10696000042B01F1100251F8044B43F8044B9142FF
:10697000F9D10A781A7010BD1C900D00037D042B0C
:1069800001D1406808E0062B0AD1436853B98368F7
:1069900043B9C36833B90069003018BF012070479C
:1069A000002070470120704710B59DF8084044EA68
:1069B000032343EA024242EA016104234160037572
:1069C00010BD37B50D788B784A78C9780091294683
:1069D000FFF7EAFF03B030BD41747047704708B558
:1069E0000021007CFEF790FA30EA200028BF4FF02B
:1069F000FF3008BD08B50121007CFEF785FA30EABA
:106A0000200028BF4FF0FF3008BD08B5007CFEF71E
:106A100073FA20EAE07008BD08B5007CFEF764FA5E
:106A200020EAE07008BD007CFEF77EBA10B51421A4
:106A3000044601F0E9F8204610BD38B50446007C54
:106A40000D46FEF759FA002801DC607C28B1294682
:106A5000207CFEF761FA20EAE07038BD10B50446EC
:106A6000002363604FF47A73A360054B2360012316
:106A70000846217463741146FEF726FA204610BDBD
:106A800030900D000022007CFEF726BA10B51422CB
:106A90000446002101F073FE204610BD30B50E4DB6
:106AA00087B001A8FFF7F2FF296811F0010410D1A7
:106AB0002846FDF7FAFA60B101AA21460748FFF718
:106AC000CDFF2846FDF7F6FA054A0649034801F0CE
:106AD0008DF8024807B030BDFCE4032000E5032038
:106AE00080CF0320DD690D0070474174704708B501
:106AF000007CFEF761F920EAE07008BD08B5007C73
:106B0000FEF732F920EAE07008BD08B5007CFEF718
:106B10003BF930EA200028BF4FF0FF3008BD08B530
:106B2000007CFEF729F930EA200028BF4FF0FF3043
:106B300008BD007CFEF730B910B51421044601F001
:106B400063F8204610BD70B5457C04460E4625B955
:106B5000007CFEF731F9002805DD3146207CBDE8D8
:106B60007040FEF7F9B8284670BD000010B5044625
:106B700008461146002262604FF47A72A260054A0C
:106B800022600122207462741A46FEF7DDF8204666
:106B900010BD00BF60900D00007CFEF705B900003D
:106BA000F8B5194C25684DB98420FDF776FA0646EC
:106BB00018B18422294601F0E2FD2660134D2E68AB
:106BC0004EB98420FDF769FA074618B18422314690
:106BD00001F0D5FD2F600E4F396811F0010611D17B
:106BE0003846FDF762FA68B122682B6809483146D9
:106BF000FFF7BCFF3846FDF75DFA074A074905482D
:106C000000F0F4FF0348F8BD30E5032028E5032039
:106C10002CE5032014E5032080CF0320E96A0D0052
:106C200010B5836804460BB901F001F8C3689847B2
:106C3000A3681BB103222146204698472046102115
:106C4000BDE8104000F0E0BF7047F8B506461546B5
:106C50000C468F18BC4206D0336814F8011B9B68A1
:106C600030469847F6E72846F8BD0022007CFEF73C
:106C7000ABB80021007CFEF7AFB80021007CFEF726
:106C8000B3B80021007CFEF7B7B80021007CFEF706
:106C9000BBB810B51421044600F0B6FF204610BD65
:106CA00010B504464FF47A730846A3600021044BE4
:106CB000207461602360FEF7B7F8204610BD00BF66
:106CC00090900D000021007CFEF7A6B810B50123BE
:106CD0000374836804460BB1C06806E0006828B1FD
:106CE00083680BB900F0A3FFC3689847012363745E
:106CF0000020BDE81040FDF7EFBF002211464068BC
:106D0000FEF7A8B9002211464068FEF7B3B9002289
:106D10004068FEF7A7B9002281F001014068FEF744
:106D200091B900231A4601214068FEF783B9002378
:106D30001A4619464068FEF775B9002211464068A8
:106D4000FEF758B9002202214068FEF75BB9002324
:106D50001A464068FEF746B938B5054688B104685A
:106D60004CB1A3681BB1032221462046984710214D
:106D7000204600F049FF28461421BDE8384000F0C5
:106D800043BF38BD10B103685B681847704710B542
:106D900003680446BBB15868FDF736FF78B923682D
:106DA0005A7C12B95868FDF73FFF23685868FDF711
:106DB00043FF20680023236028B1FFF7CDFF206840
:106DC00008B1FFF7C9FF204610BD000038B50C4BD5
:106DD00003600446D0F8CC0108B1FDF764F9D4F89B
:106DE000C45135B12846FFF7D2FF0421284600F0F0
:106DF0000BFFA06808B1FFF7C5FF204638BD00BFF4
:106E0000B8900D002DE9F84F0B9F9DF828B006466D
:106E1000884691469A4604460025236C4B4529D165
:106E2000636C534526D194F848305B4522D140210C
:106E3000404601F032FD41460246204601F005FD84
:106E4000C0B96FB10C21384601F027FD024638B1B8
:106E5000582303FB05603946493001F0F6FC04E095
:106E6000582000FB056595F84900B0FA80F040090C
:106E7000BDE8F88F0135052D04F15804CDD100206F
:106E8000BDE8F88F2DE9F04F85B007469DF838A092
:106E90000F9E0196CDF800A0894602920393FFF75A
:106EA000B1FF00283CD10446582303FB0475D5F8F4
:106EB0004080B8F1000F2ED14021484601F0EDFC92
:106EC000494683460246284601F033FCCBF1400296
:106ED000414605EB0B0001F052FC029B2B64039B27
:106EE0006B6485F849802EB10C21304601F0D5FC49
:106EF000054600E035465820444338193C442A46AC
:106F000031464930254401F014FC002085F8490041
:106F100084F848A005E00134052CC6D1024800E001
:106F2000002005B0BDE8F08FFCFEFFFF07B5002391
:106F300001930093FFF7A6FF03B05DF804FB2DE972
:106F4000F341044608460D46904601F076FC04F5F0
:106F5000DC760746236CABB14021204601F09DFC56
:106F6000874202460BD32946204601F0D3FB30B9B5
:106F7000009043462A4621465820FEF729F8583407
:106F8000B442E7D102B0BDE8F081000030B58DB069
:106F900004461122002101A801F0F1FB062301AAF9
:106FA00009498DF814300A20FDF7AEFE07AD01A99E
:106FB00006A8FFF7D1FC0FCD04340FC42B68237053
:106FC00000200DB030BD00BFE4900D002DE9F04170
:106FD000054600F5E0768AB03046FFF7D5F82C6814
:106FE000D5F8C001FDF770FE002C63D0D5F8C43190
:106FF00063B12368D5F8C4111F6B20464FF47A7330
:107000004FF49A62B847041E13DC56E02D494FF442
:107010009A6000F0FBFDD5F8C431C5F8C40113B186
:107020001846FDF740F8D5F8C431002BE1D12648C9
:1070300044E02023254A029300920023019402AAEF
:10704000234903930120FDF77FFFD5F8C4315F1C6E
:107050001B786BBB013C2146384601F01EFC38B35F
:10706000241A002C07EB000822DD3B5C03BB013C2B
:107070000ED008F101082146404601F00EFC241A0A
:10708000002C15DD18F8003093B9012C02D00FE068
:10709000DFF844803046FFF777F842463946281D2E
:1070A000FFF74DFFD5F8C001FDF70EFE002005E00B
:1070B000084803E06420FDF763FD20460AB0BDE800
:1070C000F08100BFC0910D00FCFEFFFFF8900D00A5
:1070D000F1900D00E8FEFFFF948F0D0010B50446FF
:1070E000BFF35F8F94F8C831BFF35F8F1BB92046A1
:1070F000FFF76CFFF4E710BD10B50468016044B100
:107100002046FFF744FE20460421BDE8104000F071
:107110007BBD10BD2DE9F04105468AB000F5E07059
:10712000FFF732F82C68002C7BD14C20FCF7B5FF20
:107130000646002873D0FEF731FB22464FF49A61D1
:107140003046FEF75BFB0AA93A4801F8194DFDF7F6
:10715000E7FC33689DF80F201B6A49F2690130464D
:10716000984704A8FFF7EAFB04A8FFF70FFF0028E1
:107170004ADB04A93046FEF790FB002844DBBFF34E
:107180005F8F85F8C841BFF35F8F2B49042000F063
:107190003FFD05F5DE78074648B32749142000F087
:1071A00037FD28B10474046044608460C460447492
:1071B0003860B0B1214B83603B682149DD6038689D
:1071C0004FF440638DE8090003221E4B0430FDF7A5
:1071D00013FD30B93B681B7C4BB90120FDF7D0FC97
:1071E000F8E7386800233B6008B1FFF7B5FD394682
:1071F0004046FFF781FFD5F8BC313BB128682E60CF
:1072000030B1FFF7BFFD0CE0044603E00E4C01E097
:10721000044607E036B13046FFF7B4FD02E00A4C01
:1072200000E00024D5F8C001FDF74EFD20460AB06D
:10723000BDE8F08108910D00C0910D00DD700D00DA
:107240000C910D00CD6C0D00FCFEFFFF2DE9F04709
:1072500005468CB016460F4609B10B780BB9354C74
:1072600064E0084601F0E9FA8046002E5CD0304622
:1072700001F0E3FA441C08F102032344B3F59A6FCA
:107280004FD805F5E070FEF77FFF2846FFF742FF75
:10729000002840DB6846FFF751FB6846FFF776FEA3
:1072A000002838DBD5F800A0DAF800300DF1040C26
:1072B000D3F83890204B0693BCE80F000DF11C0E5C
:1072C000AEE80F00DCF800308EF8003049F26902B9
:1072D00006A95046C84700281DDB002328688DF802
:1072E000183003680122DB6806A9984728680368FC
:1072F00008F10102DB68394698472CB12868036819
:107300002246DB6831469847286803681B6C98471B
:1073100000EAE07400E00446D5F8C001FDF7D4FCB3
:1073200004E06FF0BD0401E03446A4E720460CB051
:10733000BDE8F087F2FEFFFF1C900D00F8B5054692
:1073400000F5E0700E461746FEF71EFF2846FFF7D1
:10735000E1FE002807DB3A463146281DFFF7E6FD2F
:1073600000EAE07400E00446D5F8C001FDF7ACFC8B
:107370002046F8BD38B50E4C0E4B23600025022385
:1073800004F5E4706360A560C4F8C451C4F8C85142
:10739000FDF78AFC084BC4F8CC5184F8D051236027
:1073A0002046064A0649BDE8384000F01FBC00BF31
:1073B00034E5032094910D00B8900D0080CF032098
:1073C000CD6D0D0037B502AC036804F8011DDD6B0F
:1073D00001224FF0FF332146A84703B030BD10B45F
:1073E0000368DC6B4FF0FF33A4465DF8044B604745
:1073F00037B502AC036804F8011DDD6B2146134666
:107400000122A84703B030BD704738B543691A68F8
:10741000002A044605DAB3F88620B3F884309A428D
:1074200001D001250BE003681B699847002814BFB1
:107430000125002503D123682046DB6A98472846AA
:1074400038BD43691868C043C00F704770470020BB
:10745000704710B51421044600F0D6FB204610BD3D
:10746000FCF71FBE7FB516460022426002920392CF
:107470005A1C04460D4608D04FF47A72B3FBF2F161
:10748000029102FB11314A43039260690823009381
:1074900041F205026B4440F6FF710068FDF7D4FC31
:1074A000002808DB60690023324629460068FDF7A2
:1074B000F3FC002804DAFDF75DFE0368636000203A
:1074C00004B070BD10B5036804469B689847A36874
:1074D000013BA3602BB923682046DB68BDE8104060
:1074E000184710BD70B504464D69054B44F8043B80
:1074F0008C3506460FCD0FC42B682370304670BD07
:107500001C900D0010B54369B3F88620B3F88430A1
:107510009A42044605D06269B2F88430134418795F
:1075200010BD03681B6998470028F4D14FF0FF3065
:1075300010BD10B54369B3F88620B3F884309A4281
:10754000044608D06269B2F88430591C1344A2F88A
:107550008410187910BD03681B6998470028F1D181
:107560004FF0FF3010BDF8B543691746B3F88620D9
:10757000B3F884309A4205460E4606D103681B696B
:10758000984710B94FF0FF3414E06969B1F88430BE
:10759000B1F88640E41ABC4228BF3C461944224652
:1075A0000431304601F0C5F86A69B2F884302344EA
:1075B000A2F884302046F8BD2DE9F04398460368D0
:1075C00093B0DB6A0D4606461746984712AB002477
:1075D00043F8484D224621462846FDF759FA814690
:1075E00000283DD1009B002B56D05B69002B53D067
:1075F00006A8FFF7A3F9009B5C696378022B01D111
:10760000211D13E00A2B14D11122494601A801F0D3
:10761000B6F8A36833BBE36823BB4FF6FF70256958
:10762000FDF77AFB85421DD104F1140106A8FFF78E
:10763000C8F906A8FFF7A2F900282DD0336807ADD6
:10764000D3F82090184B0C930FCD0DAC0FC42B68C2
:1076500023703A4643460CA93046C84781461BE092
:10766000A14619E004F1080301AD183418685968FF
:107670002A4603C20833A3421546F7D1062301A9BF
:107680000CA80DAD8DF81430FFF766F90FCD07ACDF
:107690000FC42B682370CCE70098FDF7F1F948463A
:1076A00013B0BDE8F08300BF1C900D0042690023B9
:1076B000A2F884304269A2F8863070472DE9F04183
:1076C0001E4603680C468AB0DB6A05461746984793
:1076D000237DD5F81480042B0CBF02200A2006223B
:1076E0000121FDF7E9FBC8F800006B691B68002B5E
:1076F00018DB2846FFF7DAFFD6B1002303A9F0B262
:107700000393ADF81030FDF713FA58B968690623F2
:10771000009341F20B0203AB40F6FF710068FDF7E6
:1077200093FB28B12B682846DB6A002498473BE08E
:107730001C263246002103A801F021F8237D8DF894
:107740000C60042B0CD1022338468DF80D30FDF768
:10775000F3FAADF80E006068FDF7DEFA049013E06E
:107760000A2338468DF80D30FDF7E6FA05AEADF880
:107770000E00231D04F1140718685968324603C22D
:107780000833BB421646F7D16B691C2203A918685F
:10779000FDF76AFB0028C5D104340FCC6D698C3528
:1077A0000FC523682B70012420460AB0BDE8F08184
:1077B00010B5436904461868002801DBFDF74CFB4F
:1077C00063694FF0FF321A606069112200218C302A
:1077D00000F0D5FF2046BDE81040FFF767BF00006E
:1077E00030B54269B2F886308BB004461BB1B2F8AE
:1077F00084209A4240D06369186800283FDBB3F8C0
:1078000086507F2D3BD8191DC5F1800208232944DD
:10781000FDF732FB00280CDD6369B3F886200AB956
:10782000A3F884206269B2F886301844A2F8860072
:1078300025E0FDF79FFC03680B2B20D0FDF79AFC99
:1078400003680B2B1BD02023002502930395FDF723
:1078500091FC036801930E4B009302AA2B460D493D
:107860003220FDF771FB63691868FDF7F5FA63696B
:107870004FF0FF321A6002E0FFF718FFBBE76269C2
:10788000B2F88630B2F88400181A0BB030BD00BFD1
:107890007C910D00F1900D0010B5002304460160AD
:1078A000A0F88430A0F886308830FFF747F82046EB
:1078B00010BD00004FF47A7270B500238260144A44
:1078C00043600260436183610446A0200E46FCF7DA
:1078D000E4FB054610B13146FFF7DEFF1420FCF74C
:1078E000DCFB034628B1012242608260094A026043
:1078F0000561A0696561A36128B14368013B4360EC
:107900000BB9FFF7DFFD2046FFF7D0FE204670BD24
:1079100038910D001C910D0010B54FF0FF31044659
:10792000FFF7C8FF204610BD10B5044600680028C8
:1079300001DBFDF791FA204610BD10B50469204621
:10794000FFF7F2FF24B12046BDE81040FCF7A9BBC9
:1079500010BD00231A464068FDF744BB00220221F7
:107960004068FDF74FBB002211464068FDF742BB5F
:10797000002211464068FDF74DBB00231A46194608
:107980004068FDF74FBB00231A4619464068FDF7D3
:1079900051BB002281F001014068FDF753BB00227A
:1079A0004068FDF75FBB002211464068FDF762BBEF
:1079B000002211464068FDF74DBB2DE9F04300243D
:1079C00095B016460D460746FEF7B8FF2146202221
:1079D0000CA8009400F0D3FE40230C9321466B4684
:1079E0000CAA3046FDF754F80446002844D102465C
:1079F00001216868FDF70EFB022180462246686877
:107A0000FDF708FB009E81462146002E34D0002958
:107A100032D17368022B02D00A2B09D02AE0B8F1C8
:107A2000000F27D0716938460431FEF7CAFF20E005
:107A3000B9F1000F1ED07469112201A800F09FFE59
:107A400006238DF8143001AD04F1080318341868CA
:107A500059682A4603C20833A3421546F7D101A943
:107A600006A807ADFEF778FF0FCD3C1D0FC42B68AD
:107A700023700121F669C8E70098FDF701F8384640
:107A800015B0BDE8F0830000024B034A1A600022E3
:107A90005A60704708E7032094910D0010B5044622
:107AA0000F48FDF7C9FB28B1A4F10B03022B01D845
:107AB000002010BD00F07AF8FFF704F908B1012C9E
:107AC000F6D9FFF76DF8FFF767F818B1A4F10903CD
:107AD000012BEDD91E2C8CBF0020012010BD00BF52
:107AE00010E703201E2838B504460D460AD8FF29A2
:107AF00008D0FFF7D3FF28B129462046BDE838401B
:107B0000FCF7DEBF38BD38B504460D46FCF7E0FF94
:107B1000FF2810D0062804D84D2323FA00F0C3070D
:107B200009D42046FFF7BAFF28B129462046BDE810
:107B30003840FCF7D5BF38BD0D2810B504469CBFB2
:107B40000E34A4B22046FFF7A9FF50B1032120460E
:107B5000FCF7AEFF032804D12046BDE81040FCF737
:107B6000C7BF002010BD000070B50C4C0C4E0D4D71
:107B700000212046FDF74CFB20460B4C324629469F
:107B800000F034F801212046FDF742FB3246294639
:107B90002046BDE8704000F029B800BF10E7032080
:107BA00080CF032001520D0020E7032038B50B4D94
:107BB000296811F001040FD12846FCF776FA58B174
:107BC00021460748FFF76CF82846FCF773FA054A88
:107BD0000549034800F00AF8014838BD34E703209E
:107BE00038E7032080CF0320496C0D000B46014687
:107BF000184600F081BD0000024B1868BFF35F8F8C
:107C0000704700BF4CE70320FCF74BBA00F000B808
:107C100010B5002814BF044601242046FDF772FA6F
:107C200020B9FFF7E9FF08B18047F6E710BD08B5B6
:107C3000FDF790FA184B1A68D1075CBF01221A6051
:107C4000164B1A68D2075CBF01221A60144B1A68DF
:107C5000D0075CBF01221A60124B1A68D1075CBFC3
:107C600001221A60104B1A68D2075CBF01221A6009
:107C70000E4B1A68D0075CBF01221A600C4B1A68C1
:107C8000D1075CBF01221A600A4B1A68D2075CBF99
:107C900001221A60704700BF6CE7032068E70320E9
:107CA00064E7032060E703205CE7032058E7032034
:107CB00054E7032050E70320244B1A68D0075CBF29
:107CC00001221A60224B1A68D1075CBF01221A6098
:107CD000204B1A68D2075CBF01221A601E4B1A683B
:107CE000D0075CBF01221A601C4B1A68D1075CBF29
:107CF00001221A601A4B1A68D2075CBF01221A606F
:107D0000184B1A68D0075CBF01221A60164B1A681C
:107D1000D1075CBF01221A60144B1A68D2075CBFFE
:107D200001221A60124B1A68D0075CBF01221A6048
:107D3000104B1A68D1075CBF01221A600E4B1A68FB
:107D4000D2075CBF01221A60704700BF9CE7032086
:107D500098E7032094E7032090E703208CE70320B3
:107D600088E7032084E7032080E703207CE70320E3
:107D700078E7032074E7032070E70320244B1A6898
:107D8000D0075CBF01221A60224B1A68D1075CBF82
:107D900001221A60204B1A68D2075CBF01221A60C8
:107DA0001E4B1A68D0075CBF01221A601C4B1A6870
:107DB000D1075CBF01221A601A4B1A68D2075CBF58
:107DC00001221A60184B1A68D0075CBF01221A60A2
:107DD000164B1A68D1075CBF01221A60144B1A684F
:107DE000D2075CBF01221A60124B1A68D0075CBF31
:107DF00001221A60104B1A68D1075CBF01221A6079
:107E00000E4B1A68D2075CBF01221A60704700BF90
:107E1000CCE70320C8E70320C4E70320C0E7032022
:107E2000BCE70320B8E70320B4E70320B0E7032052
:107E3000ACE70320A8E70320A4E70320A0E7032082
:107E4000184B1A68D1075CBF01221A60164B1A68DA
:107E5000D2075CBF01221A60144B1A68D0075CBFBE
:107E600001221A60124B1A68D1075CBF01221A6006
:107E7000104B1A68D2075CBF01221A600E4B1A68B9
:107E8000D0075CBF01221A600C4B1A68D1075CBF97
:107E900001221A600A4B1A68D2075CBF01221A60DD
:107EA000704700BFECE70320E8E70320E4E7032086
:107EB000E0E70320DCE70320D8E70320D4E7032032
:107EC000D0E7032081F0004102E000BF83F00043CF
:107ED00030B54FEA41044FEA430594EA050F08BF65
:107EE00090EA020F1FBF54EA000C55EA020C7FEA29
:107EF000645C7FEA655C00F0E2804FEA5454D4EBA6
:107F00005555B8BF6D420CDD2C4480EA020281EA6F
:107F1000030382EA000083EA010180EA020281EAA7
:107F20000303362D88BF30BD11F0004F4FEA0131F9
:107F30004FF4801C4CEA113102D0404261EB410108
:107F400013F0004F4FEA03334CEA133302D052428E
:107F500063EB430394EA050F00F0A780A4F101044A
:107F6000D5F1200E0DDB02FA0EFC22FA05F2801884
:107F700041F1000103FA0EF2801843FA05F359416A
:107F80000EE0A5F120050EF1200E012A03FA0EFCE9
:107F900028BF4CF0020C43FA05F3C01851EBE37113
:107FA00001F0004507D54FF0000EDCF1000C7EEB30
:107FB00000006EEB0101B1F5801F1BD3B1F5001F6E
:107FC0000CD349085FEA30004FEA3C0C04F101048D
:107FD0004FEA445212F5800F80F09A80BCF1004FB6
:107FE00008BF5FEA500C50F1000041EB045141EA38
:107FF000050130BD5FEA4C0C404141EB010111F439
:10800000801FA4F10104E9D191F0000F04BF0146E3
:108010000020B1FA81F308BF2033A3F10B03B3F1C1
:1080200020020CDA0C3208DD02F1140CC2F10C0251
:1080300001FA0CF021FA02F10CE002F11402D8BFAF
:10804000C2F1200C01FA02F120FA0CFCDCBF41EA7B
:108050000C019040E41AA2BF01EB0451294330BD4A
:108060006FEA04041F3C1CDA0C340EDC04F1140427
:10807000C4F1200220FA04F001FA02F340EA0300FE
:1080800021FA04F345EA030130BDC4F10C04C4F144
:10809000200220FA02F001FA04F340EA0300294624
:1080A00030BD21FA04F0294630BD94F0000F83F46E
:1080B000801306BF81F480110134013D4EE77FEA51
:1080C000645C18BF7FEA655C29D094EA050F08BF9D
:1080D00090EA020F05D054EA000C04BF194610467E
:1080E00030BD91EA030F1EBF0021002030BD5FEAC2
:1080F000545C05D14000494128BF41F0004130BDEA
:1081000014F580043CBF01F5801130BD01F000453D
:1081100045F0FE4141F470014FF0000030BD7FEAB0
:10812000645C1ABF194610467FEA655C1CBF0B46AB
:10813000024650EA013406BF52EA033591EA030FC2
:1081400041F4002130BD00BF90F0000F04BF0021BA
:10815000704730B54FF4806404F132044FF00005ED
:108160004FF0000150E700BF90F0000F04BF002166
:10817000704730B54FF4806404F1320410F00045CC
:1081800048BF40424FF000013EE700BF42004FEAC7
:10819000E2014FEA31014FEA02701FBF12F07F4344
:1081A00093F07F4F81F06051704792F0000F14BF41
:1081B00093F07F4F704730B54FF4607401F0004585
:1081C00021F0004120E700BF50EA010208BF7047DC
:1081D00030B54FF000050AE050EA010208BF7047D1
:1081E00030B511F0004502D5404261EB41014FF43A
:1081F000806404F132045FEA915C3FF4DCAE4FF03E
:1082000003025FEADC0C18BF03325FEADC0C18BF24
:10821000033202EBDC02C2F1200300FA03FC20FA75
:1082200002F001FA03FE40EA0E0021FA02F11444C2
:10823000C1E600BF70B54FF0FF0C4CF4E06C1CEAD7
:1082400011541DBF1CEA135594EA0C0F95EA0C0F4C
:1082500000F0DEF82C4481EA030621EA4C5123EABF
:108260004C5350EA013518BF52EA033541F48011EE
:1082700043F4801338D0A0FB02CE4FF00005E1FBA1
:1082800002E506F00042E0FB03E54FF00006E1FBEB
:1082900003569CF0000F18BF4EF0010EA4F1FF042E
:1082A000B6F5007F64F5407404D25FEA4E0E6D416E
:1082B00046EB060642EAC62141EA55514FEAC5207F
:1082C00040EA5E504FEACE2EB4F1FD0C88BFBCF5FB
:1082D000E06F1ED8BEF1004F08BF5FEA500E50F1AC
:1082E000000041EB045170BD06F0004646EA010172
:1082F00040EA020081EA0301B4EB5C04C2BFD4EBA4
:108300000C0541EA045170BD41F480114FF0000E9C
:10831000013C00F3AB8014F1360FDEBF002001F00A
:10832000004170BDC4F10004203C35DA0C341BDC84
:1083300004F11404C4F1200500FA05F320FA04F056
:1083400001FA05F240EA020001F0004221F000418A
:1083500010EBD37021FA04F642EB06015EEA430EFD
:1083600008BF20EAD37070BDC4F10C04C4F120052D
:1083700000FA04F320FA05F001FA04F240EA0200E0
:1083800001F0004110EBD37041F100015EEA430EB1
:1083900008BF20EAD37070BDC4F1200500FA05F2D1
:1083A0004EEA020E20FA04F301FA05F243EA020350
:1083B00021FA04F001F0004121FA04F220EA02005F
:1083C00000EBD3705EEA430E08BF20EAD37070BDA5
:1083D00094F0000F0FD101F00046400041EB010185
:1083E00011F4801F08BF013CF7D041EA060195F067
:1083F000000F18BF704703F00046520043EB030321
:1084000013F4801F08BF013DF7D043EA060370470D
:1084100094EA0C0F0CEA135518BF95EA0C0F0CD018
:1084200050EA410618BF52EA4306D1D181EA03015E
:1084300001F000414FF0000070BD50EA410606BF58
:108440001046194652EA430619D094EA0C0F02D19D
:1084500050EA013613D195EA0C0F05D152EA0336E2
:108460001CBF104619460AD181EA030101F0004100
:1084700041F0FE4141F470014FF0000070BD41F049
:10848000FE4141F4780170BD70B54FF0FF0C4CF423
:10849000E06C1CEA11541DBF1CEA135594EA0C0F42
:1084A00095EA0C0F00F0A7F8A4EB050481EA030E8F
:1084B00052EA03354FEA013100F088804FEA033376
:1084C0004FF0805545EA131343EA12634FEA022244
:1084D00045EA111545EA10654FEA00260EF0004105
:1084E0009D4208BF964244F1FD0404F5407402D257
:1084F0005B084FEA3202B61A65EB03055B084FEAE8
:1085000032024FF480104FF4002CB6EB020E75EBE4
:10851000030E22BFB61A754640EA0C005B084FEA0C
:108520003202B6EB020E75EB030E22BFB61A754689
:1085300040EA5C005B084FEA3202B6EB020E75EBD4
:10854000030E22BFB61A754640EA9C005B084FEA4C
:108550003202B6EB020E75EB030E22BFB61A754659
:1085600040EADC0055EA060E18D04FEA051545EA48
:1085700016754FEA06164FEAC30343EA52734FEAF1
:10858000C2025FEA1C1CC0D111F4801F0BD141EA6A
:1085900000014FF000004FF0004CB6E711F4801FCF
:1085A00004BF01430020B4F1FD0C88BFBCF5E06FAF
:1085B0003FF6AFAEB5EB030C04BFB6EB020C5FEABF
:1085C000500C50F1000041EB045170BD0EF0004E14
:1085D0004EEA113114EB5C04C2BFD4EB0C0541EA46
:1085E000045170BD41F480114FF0000E013C90E643
:1085F00045EA060E8DE60CEA135594EA0C0F08BF07
:1086000095EA0C0F3FF43BAF94EA0C0F0AD150EA05
:1086100001347FF434AF95EA0C0F7FF425AF104698
:1086200019462CE795EA0C0F06D152EA03353FF4C0
:10863000FDAE1046194622E750EA410618BF52EA3D
:1086400043067FF4C5AE50EA41047FF40DAF52EA11
:1086500043057FF4EBAE12E74FEA4102B2F1E0438B
:1086600024BFB3F5001CDCF1FE5C0DD901F0004C19
:108670004FEAC0024CEA5070B2F1004F40EB830069
:1086800008BF20F00100704711F0804F21D113F195
:108690003872BCBF01F00040704741F480114FEACE
:1086A0005252C2F11802C2F1200C10FA0CF320FA57
:1086B00002F018BF40F001004FEAC1234FEAD32374
:1086C00003FA0CFC40EA0C0023FA02F34FEA4303DE
:1086D000CCE77FEA625307D150EA01331EBF4FF067
:1086E000FE4040F44000704701F0004040F0FE4082
:1086F00040F40000704700BF10B5054C13462CB184
:108700000A4601460220AFF3008010BD204610BD8E
:108710000000000010B501390244904207D010F863
:10872000013B11F8014FA342F7D0181B10BD0020E8
:1087300010BD10B5431E0A44914204D011F8014BFC
:1087400003F8014FF8E710BD884210B501EB0203B2
:1087500001D8421E0BE09842FBD28118D21AD342B4
:1087600004D013F8014D01F8014DF8E710BD99420E
:1087700004D011F8014B02F8014FF8E710BD024494
:108780000346934202D003F8011BFAE7704700004A
:1087900038B5124B1C68A36B0546D3B91820FCF7FB
:1087A000B1FC43F20E33A06303804AF6CD3343801D
:1087B00041F2342383804EF26D63C3804DF6EC6347
:1087C0000381052343810B23838101220023C0E918
:1087D0000423A36B00221D615A6138BD7CCF0320A6
:1087E00010F8012B11F8013B012A28BF9A42F7D05B
:1087F000D01A7047034611F8012B03F8012B002A09
:10880000F9D17047024B0146186800F003B800BF69
:108810007CCF032070B5064608460C4600F00DF8E4
:10882000451C29463046FCF79DFC064618B12A46F1
:108830002146FFF77EFF304670BD034613F8012B3B
:10884000002AFBD1181A0138704730B582B1451E95
:10885000013915F8013F11F8014FA34206D1EC434D
:108860001444E04201D0002BF3D11C46181B30BD4C
:10887000104630BD10B5034642B111F8014B03F864
:10888000014B013A002CF7D11A4400E010BD93428D
:1088900002D003F8014BFAE710BD10B503460144BE
:1088A0008B4204D01A785C1C0AB12346F8E7181AE8
:1088B00010BD000021400D005D400D0089400D00FD
:1088C0008D400D00000000000000000000000000CE
:1088D0006D410D00B5410D00F5400D004465746F0C
:1088E0006E61746500726563656976656420696EA2
:1088F000207375707363726962652F7075626C693D
:108900007368207265717565737425733A202573D9
:10891000007661726961626C65206C6162656C20D1
:10892000207468617420697320636F7069656420C6
:1089300066726F6D206465765F6E616D65203A20AA
:10894000257300252E326600766F6C7461676500B2
:108950007661726961626C65206C6162656C20741D
:108960006861742069732075706C6F616465642040
:10897000746F20756269646F7473203A20202573C8
:1089800000556269646F747300426F6F6D00426FCF
:108990006F6D5F61636B004465746F6E6174655FDA
:1089A00061636B00426F6F6D5F7265736574004247
:1089B0004F4F4D5F726573657400706172746963C7
:1089C0006C652F6465766963652F6E616D650077F0
:1089D0006562686F6F6B00426561636F6E204D4129
:1089E0004300696E647573747269616C2E6170699D
:1089F0002E756269646F74732E636F6D005B5741EF
:108A0000524E494E475D20596F757220626F6172F8
:108A10006420646F6573206E6F7420737570706F5F
:108A2000727420746865206D6573684C6F6F702870
:108A300029206D6574686F64005B5741524E494E42
:108A4000475D20596F757220626F61726420646F98
:108A50006573206E6F7420737570706F72742074FC
:108A6000686520736574436C6F756450726F746FC2
:108A7000636F6C2829206D6574686F64005B5741D3
:108A8000524E494E475D20596F757220626F617278
:108A90006420646F6573206E6F7420737570706FDF
:108AA0007274207468652073656E642829206D6572
:108AB00074686F64005B5761726E696E675D205900
:108AC0006F757220626F61726420646F6573206ECF
:108AD0006F7420737570706F72742074686520678E
:108AE00065742829206D6574686F6400596F75205E
:108AF00061726520616464696E67206D6F726520C4
:108B00007468616E20746865206D6178696D756D3B
:108B1000206F6620636F6E73656375746976652078
:108B20006B65792D76616C75657320706169727300
:108B300000257325733D25730025732400257322BA
:108B40002573223A222573220025732C005B57419E
:108B5000524E494E475D20596F7572204D657368BE
:108B600020636F6E74657874206C656E677468201E
:108B70006D757374206265206C6F77657220746800
:108B8000616E2031303000256C750025737C2566C0
:108B90007C25737C25737C2573005B5761726E693D
:108BA0006E675D20546865206D6573684C6F6F70EB
:108BB0002829206D6574686F6420646F6573206E6A
:108BC0006F7420696D706C656D656E7420616E796F
:108BD00020726F7574696E6520696E20796F757289
:108BE0002064657669636500412070726F626C6510
:108BF0006D206861732072616973656420776974A0
:108C0000682074686520646576696365207472798C
:108C1000696E6720746F206F70656E2061204D65EE
:108C20007368736F636B657400596F752068617644
:108C300065206E6F7420616464656420616E7920C4
:108C40007661726961626C652076616C75652C2055
:108C5000706C656173652063616C6C20746865205D
:108C600061646428296D6574686F64206669727335
:108C70007400756269646F74732D6D6573680000AC
:108C80000000000000000000E3510D00D9510D006C
:108C9000CF510D00C5510D00B9510D00AD510D0062
:108CA000A1510D0099510D008F510D0085510D00FE
:108CB000BB790D00000000000000000001520D0013
:108CC00003520D000000000000000000D5470D0019
:108CD000F5470D0079520D00A3530D0071520D00A0
:108CE0008F520D00AD520D00C7520D00EB520D001A
:108CF00087530D0089560D0029540D00A9550D000C
:108D000059520D0031580D002D550D0061540D00C4
:108D10005F580D00CD530D0067520D0009540D0032
:108D20006D520D00C9520D00F0FFFFFF0000000062
:108D3000E3520D000000000000000000ED590D009E
:108D4000F3590D00D75C0D00015A0D00EF590D00CD
:108D5000776972696E672E626C6500537461727414
:108D600020646973636F766572696E6720736572DC
:108D700076696365732E005374617274206469733D
:108D8000636F766572696E67206368617261637490
:108D900065726973746963732E005065657220642F
:108DA0006576696365206973206D697373696E67A1
:108DB00021004661696C656420746F206170706584
:108DC0006E6420706565722043656E7472616C20FC
:108DD0006465766963652E00436F6E6E65637465C6
:108DE000642062792043656E7472616C20646576DC
:108DF0006963652E00446973636F6E6E65637465A5
:108E0000642062792072656D6F746520646576698F
:108E100063652E0043616E6E6F7420616464206E22
:108E200065772070656572206465766963652E00DC
:108E30004E6577207065726970686572616C206933
:108E40007320636F6E6E65637465642E004661699E
:108E50006C656420746F20617070656E6420646955
:108E600073636F76657265642063686172616374B1
:108E7000657269737469632E004661696C6564206C
:108E8000746F20617070656E6420646973636F76BF
:108E90006572656420736572766963652E0046614C
:108EA000696C656420746F20617070656E64206CFD
:108EB0006F63616C2063686172616374657269736A
:108EC0007469632E004475706C6963617465642015
:108ED0006368617261637465726973746963206346
:108EE000616E6E6F742062652061646465642E003B
:108EF000626175640053657269616C0053657269E3
:108F0000616C31007479706500706172616D00632D
:108F10006D6400696400686E64007374726D00664D
:108F2000696C74006C766C0061646448616E646C9A
:108F300065720072656D6F766548616E646C65720E
:108F400000656E756D48616E646C657273004A539E
:108F50004F4E53747265616D4C6F6748616E646CFF
:108F600065720061707000253031307520005D2021
:108F7000002C200028293A2000205B00636F6465E4
:108F8000203D200025690064657461696C73203D93
:108F900020000D0A006C6E00666E00636F64650051
:108FA00064657461696C006E6F6E650074726163F4
:108FB0006500696E666F007761726E006572726F30
:108FC000720070616E696300616C6C005A00252B41
:108FD0003033643A253032750025592D256D2D2505
:108FE000645425483A254D3A2553257A0061736328
:108FF00074696D65000000000000000000000000C2
:10900000E9620D00EF620D0033630D00FD620D009B
:10901000EB620D000000000000000000D9680D00A8
:10902000C9680D00CB680D000000000000000000C2
:10903000DD690D002D6A0D003B6A0D0039600D00E1
:10904000196A0D00DF690D00F5690D00276A0D0032
:109050000B6A0D00D9690D0000000000000000003F
:10906000E96A0D00396B0D00476B0D0039600D008A
:10907000FD6A0D001F6B0D000B6B0D00336B0D00B7
:10908000EB6A0D00EF6A0D00000000000000000018
:10909000496C0D00936C0D006B6C0D004B6C0D005A
:1090A000736C0D007B6C0D00836C0D008B6C0D00E0
:1090B00000000000000000004F6D0D00456D0D0028
:1090C0003B6D0D0065480D002F6D0D00236D0D00EB
:1090D000176D0D000F6D0D00056D0D00FB6C0D0083
:1090E000BB790D00666630333A3A313A313030316F
:1090F00000776972696E67007061727365207061D4
:10910000636B657420256400746831006D65736855
:109110007075620000000000000000004D740D003A
:1091200053740D003B790D0061740D004F740D00F8
:10913000000000000000000091460D00C5460D0033
:10914000C5730D00DF730D00E1770D0033750D0061
:1091500005750D0009740D00BD760D00B9750D0083
:1091600067750D00B1770D000B740D0043740D0091
:10917000F1730D0065740D00E5740D007265637682
:10918000206572726F72203D20256400000000008F
:109190000000000053790D005D790D0067790D0026
:1091A00071790D007B790D0087790D0093790D00A1
:1091B0009F790D00A7790D00B1790D00BB790D00E5
:1091C000000000000000000000000000000000009F
:1091D000000000000000000000000000000000008F
:1091E000000000000000000000000000000000007F
:1091F000000000000000000000000000000000006F
:10920000000000000000000000000000000000005E
:10921000000000000000000000000000000000004E
:109220000000000071450D00D9460D0001470D00FA
:109230009D470D00AD470D0009480D00454A0D0042
:10924000554A0D007D4A0D00ED510D0041520D00B3
:1092500029600D0091610D00A1610D00E9610D0013
:1092600075730D00897A0D00697B0D00357C0D004A
:10927000B97C0D007D7D0D00417E0D0000000000D9
:10928000ED8F0D0000000000C4910D00E4910D0071
:1092900004920D000000000000000000000000002B
:1092A00000000000E0890D00000000000000000048
:1092B00000000000000000000000000000000000AE
:1092C000000000000000000000000000000000009E
:1092D000000000000000000000000000000000008E
:0892E000000000001CCF032078
:1092E800FFFFFFFF00000102030405060708090A43
:1092F8000B0C0D0E0F101112131415161718191A3E
:089308001B1C1D1E1F20280084
:049310007856341245
:04000003D0004020C9
:00000001FF
