:02000002D0002C
:1040000000400D00748C0D00000006000E0005013C
:0840100004017D050000000021
:0440180090830D0084
:1040200009480A49884208B505D0094A824202D0A7
:10403000121A04F008F90748074A0021121A04F07E
:104040000DF9014808BD00BFD4E10320E08B0D004D
:1040500040E2032040E20320F0E7032070B501F0C6
:10406000F9FE074C074BE41AA40800251E46A5429A
:1040700004D056F8253098470135F8E770BD00BFE9
:10408000DC8B0D00848B0D0000F0AAB808B500F0A1
:10409000F7F9BDE8084001F0ABBE00F0AFBE00F09C
:1040A000ADBE00F0B3BE00F0B1BE0078B0FA80F053
:1040B0004009704701230370704703681847012ABD
:1040C00002D0022A02D004E0016002E00B6800B1D5
:1040D000036000207047000037B5094C05461F22D9
:1040E000204604F035F902F07DFA2B460094054A8B
:1040F000012101F0E3FD044B01221A7003B030BD31
:1041000079E20320B8830D0044E20320436913B130
:1041100083690C301847704713B5002104460846E0
:1041200000F01EFC02A90023204641F8043D00F0E7
:104130002FFC019C0CB1012323710021012000F010
:104140000FFC2CB1236820469B68984700232371FD
:1041500002B010BD10B58368044613B103220146B6
:104160009847204610BD07B58068002338B18DE818
:104170000A00022100F014FCB0FA80F0400903B0FC
:104180005DF804FB38B5104B036083680446A3B1A7
:104190006FF000410022FFF7E6FF0021A06800F069
:1041A0002FFC237903F0FF0513B100F0C1FBF8E702
:1041B0002946A06800F0E4FBA56004F10C00FFF7BD
:1041C000C9FF204638BD00BFAC830D0010B50446C2
:1041D000FFF7D8FF20461C2103F0A0FA204610BDAF
:1041E00030B5012085B000F043FD0024082302AA69
:1041F000012544F6206102942046ADF8083023469C
:10420000039500F0EBFD02F0EDF94FF4E13102F01F
:10421000DDF9134B29461888124D03F0EDF901F032
:10422000DFFA6FF0070101F0F9FA2246214628462D
:10423000FFF799FFA86840B16FF000430093019425
:1042400023462246214600F0ABFB074A07490848AF
:1042500002F0FEFD0021182003F0CEF905B030BDBC
:10426000D4E103209CE20320C9420D00C8830D0065
:104270003CE5032070B5064600F01EFB064C0546E3
:1042800000F01AFB401BB04205D200F015FB206085
:1042900000F07CFDF4E770BD30E7032038B504681A
:1042A00005467CB16368013B63605BB923682046C7
:1042B0009B689847A368013BA3601BB9236820460D
:1042C000DB689847284638BD30B50C4685B0244990
:1042D000204603F0F3FF054608BB40F6B830FFF771
:1042E000C9FF204B0121188803F097F91E4B1F4985
:1042F00001221A701E4B1B788DF800302A463C2391
:1043000002A801F003FF03A8FFF7C8FF194A1A49E2
:104310001A4802F025FD40F6B830FFF7ABFF204603
:10432000174903F0CBFF0446C0B90E4B014618886D
:1043300003F073F90C4B134901221A700C4B1B78D4
:104340008DF8003022463C2302A801F0DFFE03A8CE
:10435000FFF7A4FF4FF4FA60FFF78CFF05B030BD04
:10436000D1830D00D4E1032078E20320D6830D0031
:1043700066E20320DC830D00E5830D003CE50320AD
:10438000F2830D00FD830D0000B5182089B003F005
:104390005DF903F073FC15A3D3E9002303F0D4FC0B
:1043A00003F0E4FE03F07CFC02460B4604A80C4933
:1043B00001F04EF90B4B049A1B780B498DF8003035
:1043C00002A83C2301F0A2FE03A8FFF767FF04A8A0
:1043D00001F0E3F809B05DF804FB00BFAFF3008023
:1043E00008840D0066E203200D840D009402C1D202
:1043F000AF63523F7FB5002422460194009401230D
:1044000017491848184E194D00F0E0FC184B19498F
:104410001B788DF8003022463C2302A801F076FE7E
:1044200003A8FFF73BFF40F6B830FFF723FF02F089
:10443000D9F833462146104A01F040FC314620228B
:10444000284603F085FF4FF47A70FFF713FF02F060
:10445000C9F82B46094A214601F030FC04B070BD72
:10446000D9400D0015840D0079E2032046E20320B7
:1044700045E203202A840D003C840D004A840D008F
:1044800008B544F62060FFF7F5FEFFF7B3FF41F2F1
:104490008830FFF7EFFE08BD2DE9F041274B284C8F
:1044A000DFF8C88000251D70264B88B001271F70DB
:1044B00000F082F900F000FA03222349204600F0C0
:1044C000ABF842462149204603F01AF9204B0493E9
:1044D00004AE204C204B236096E8030002AA04F1AE
:1044E0000C0382E8030093E8030086E8030092E8E7
:1044F000030083E80300194B6361A3690793184B1A
:10450000A36125712346A560164A019541F28831C1
:10451000009504F10800069500F02AFA3046FFF7EE
:1045200019FE42461049204603F0EAF8294638466B
:1045300000F0A6FB08B0BDE8F08100BF45E2032013
:1045400068E2032066E203205E840D0035460D001C
:1045500089430D009CE20320AC830D00BF400D0099
:10456000BB400D0019410D0085410D0040E20320C4
:1045700038B584690A4B036005467CB16368013B2A
:1045800063605BB9236820469B689847A368013B3A
:10459000A3601BB923682046DB689847284638BDCE
:1045A000948A0D0010B50446FFF7E2FF20461C2157
:1045B00003F0B4F8204610BD10B5064C00F0FCF82E
:1045C000204602F033FF2046034A0449BDE810406C
:1045D00003F096B8B8E2032040E2032071450D00D5
:1045E000024B00221A7000F0E7B800BFD4E20320AB
:1045F00070B50373044650200E4600F0FFFBA06028
:104600004FF48270FFF749FD054610B1314600F0C6
:104610008AF8256070BD000010B50023044643737E
:1046200083731346024AFFF7E3FF204610BD00BF25
:104630006E840D0038B50446806800F0E7FB2568FD
:104640003DB1284600F082F84FF48271284603F00D
:1046500065F8204638BD08B500F0AEF8BDE8084062
:1046600000F02AB910B5064C00F0A6F8204602F07A
:10467000DDFE2046034A0449BDE8104003F040B87F
:10468000D8E2032040E2032071450D0010B5064B2F
:10469000036064330446036100F0E9FC204600F047
:1046A0000FFF204610BD00BF28860D0010B5044640
:1046B000FFF7ECFF20464C2103F030F8204610BDF8
:1046C00070B5104D104C114E00F076F8284602F0EF
:1046D000ADFE28460E4D2246314603F011F828461D
:1046E00002F0A4FE28460B4D2246314603F008F89E
:1046F000284600F0C7FE224628460749BDE870401C
:1047000002F0FEBF10E3032040E2032071450D00DC
:10471000F4E203202CE303208D460D000022114615
:10472000406800F0FBBA1FB50446684600F03EFB47
:1047300002980130FFF7B3FC0099206003F0C8FD38
:10474000684600F02AFF204604B010BD10B50446AC
:10475000006808B1FFF7A7FC204610BD08B500F0BF
:104760002BF8BDE8084000F0A7B8000010B5064CD3
:1047700000F022F8204600F085FE2046034A044956
:10478000BDE8104002F0BCBF78E3032040E2032004
:104790008D460D0000F010B808B5024B1B689B68F1
:1047A000019308BD6802030008B5024B1B68DB6873
:1047B000019308BD6802030008B5024B1B681B6823
:1047C000019308BD2C02030008B5024B1B685B680F
:1047D000019308BD2C02030008B5024B1B689B68BF
:1047E000019308BD2C02030008B5024B1B68DB686F
:1047F000019308BD2C02030008B5024B1B681B691E
:10480000019308BD2C02030008B5024B1B681B6B0B
:10481000019308BD2C02030008B5024B1B68DB693D
:10482000019308BD3002030008B5024B1B681B6AE8
:10483000019308BD3002030008B5024B1B681B69D9
:10484000019308BD6C02030008B5024B1B685B694D
:10485000019308BD6C02030008B5024B1B689B69FD
:10486000019308BD6C02030008B5024B1B685B6D29
:10487000019308BD6C02030008B5024B1B689B6DD9
:10488000019308BD6C02030008B5024B1B685B680E
:10489000019308BD1802030008B5024B1B689B6812
:1048A000019308BD1802030008B5024B1B68DB68C2
:1048B000019308BD1802030008B5024B1B685B6931
:1048C000019308BD1802030008B5024B1B689B68E2
:1048D000019308BD7402030008B5024B1B681B6CF2
:1048E000019308BD7402030008B5034B1B68D3F89D
:1048F0009830019308BD00007402030008B5034B13
:104900001B68D3F8F030019308BD00007402030067
:1049100008B5024B1B685B68019308BD48020300A1
:1049200008B5024B1B689B68019308BD4802030051
:1049300008B5024B1B68DB68019308BD4802030001
:1049400008B5024B1B681B69019308BD48020300B0
:1049500008B5024B1B685B69019308BD4802030060
:1049600008B5024B1B68DB69019308BD48020300D0
:1049700008B5024B1B681B6A019308BD480203007F
:1049800008B5024B1B685B6A019308BD480203002F
:1049900008B5024B1B689B6A019308BD48020300DF
:1049A00008B5024B1B68DB6A019308BD480203008F
:1049B00008B5024B1B681B6B019308BD480203003E
:1049C00008B5024B1B685B6C019308BD48020300ED
:1049D00008B5024B1B68DB6C019308BD480203005D
:1049E00008B5024B1B685B6D019308BD48020300CC
:1049F00008B5024B1B68DB6E019308BD480203003B
:104A000008B5024B1B681B6F019308BD48020300E9
:104A100008B5024B1B685B69019308BD6402030083
:104A200008B5024B1B689B69019308BD6402030033
:104A300008B5024B1B681B6A019308BD64020300A2
:104A400008B5024B1B685B6A019308BD6402030052
:104A500008B5024B1B689B6A019308BD6402030002
:104A600008B5024B1B681B68019308BD3C0203009C
:104A700008B5024B1B68DB68019308BD3C020300CC
:104A800008B5024B1B681B69019308BD3C0203007B
:104A900008B5024B1B685B69019308BD3C0203002B
:104AA00008B5024B1B689B69019308BD3C020300DB
:104AB00008B5024B1B68DB69019308BD3C0203008B
:104AC00008B5024B1B681B6A019308BD3C0203003A
:104AD00008B5024B1B689B6A019308BD3C020300AA
:104AE00008B5024B1B681B6A019308BD280203002E
:104AF00008B5024B1B685B6A019308BD28020300DE
:104B000008B5024B1B689B6A019308BD280203008D
:104B100008B5024B1B68DB6A019308BD280203003D
:104B200008B5024B1B681B6B019308BD28020300EC
:104B300008B5024B1B685B6B019308BD280203009C
:104B400008B5024B1B681B6C019308BD28020300CB
:104B500008B5024B1B685B68019308BD380203006F
:104B600008B5024B1B689B69019308BD380203001E
:104B700008B5024B1B68DB69019308BD38020300CE
:104B800008B5024B1B681B6A019308BD380203007D
:104B900008B5024B1B689B6A019308BD38020300ED
:104BA00008B5024B1B68DB6A019308BD380203009D
:104BB00008B5024B1B681B6B019308BD380203004C
:104BC00008B5024B1B685B6B019308BD38020300FC
:104BD00008B5024B1B689B6B019308BD38020300AC
:104BE00008B5024B1B681B68019308BD4C0203000B
:104BF00008B5024B1B685B68019308BD4C020300BB
:104C000008B5024B1B681B69019308BD4C020300E9
:104C100008B5024B1B685B69019308BD4C02030099
:104C200008B5024B1B689B69019308BD4C02030049
:104C300008B5024B1B68DB69019308BD4C020300F9
:104C400008B5024B1B681B6A019308BD4C020300A8
:104C500008B5024B1B685B6B019308BD6002030043
:104C600008B5024B1B681B6D019308BD6002030071
:104C700008B5024B1B685B68019308BD2002030066
:104C800008B5024B1B68DB6A019308BD20020300D4
:104C900008B5024B1B68DB6C019308BD20020300C2
:104CA00008B5024B1B685B6D019308BD2002030031
:104CB00008B5034B1B68D3F88830019308BD00008A
:104CC0002002030008B5034B1B68D3F8943001930E
:104CD00008BD00002002030008B5034B1B68D3F891
:104CE000A430019308BD00002002030008B5024B68
:104CF0001B685B68019308BD4002030008B5024BC6
:104D00001B689B68019308BD4002030008B5024B75
:104D10001B68DB68019308BD4002030008B5024B25
:104D20001B681B69019308BD4002030008B5024BD4
:104D30001B685B69019308BD4002030008B5024B84
:104D40001B689B69019308BD4002030008B5024B34
:104D50001B68DB69019308BD4002030008B5024BE4
:104D60001B681B6A019308BD4002030008B5024B93
:104D70001B681B6B019308BD4002030008B5024B82
:104D80001B685B6B019308BD4002030008B5024B32
:104D90001B689B68019308BD4402030008B5024BE1
:104DA0001B685B69019308BD4402030008B5024B10
:104DB0001B68DB69019308BD4402030008B5024B80
:104DC0001B681B6A019308BD4402030008B5024B2F
:104DD0001B685B6A019308BD4402030008B5024BDF
:104DE0001B689B6B019308BD4402030008B5024B8E
:104DF0001B68DB6B019308BD4402030008B5024B3E
:104E00001B681B68019308BD1C02030008B5024B18
:104E10001B685B68019308BD1C02030008B5024BC8
:104E20001B689B68019308BD1C02030008B5024B78
:104E30001B685B6A019308BD1C02030008B5024BA6
:104E40001B68DB6A019308BD1C02030008B5024B16
:104E50001B681B6B019308BD1C02030008B5024BC5
:104E60001B68DB6B019308BD1C0203000022114686
:104E70004068FFF773BF002211464068FFF77EBF0E
:104E800000224068FFF772BF002281F001014068F4
:104E9000FFF75CBF00231A4619464068FFF74EBF74
:104EA00000231A4619464068FFF740BF002211460A
:104EB0004068FFF733BF002211464068FFF71EBF6E
:104EC000002202214068FFF721BF00231A464068F4
:104ED000FFF70CBF024B03225A60024A1A60704768
:104EE000C4E30320E4850D00704710B5102104468B
:104EF00002F014FC204610BD70B5084B0360044658
:104F000000250E4640F80C5FFFF752FD3046267133
:104F1000FFF782FCA560204670BD00BF18860D001B
:104F20000079FFF781BC0000044B00204FF6FF72B0
:104F3000187058809A80FFF79BBE00BFCCE3032017
:104F400010B40468246BA4465DF8044B6047036802
:104F50009B6C1847808E7047028FC08E101A704766
:104F600013B502AB026803F8011DD468194601228B
:104F7000A04702B010BD10B503681B6904469847EE
:104F800028B1E38EE26B591CE186D05C10BD4FF076
:104F9000FF3010BD10B503681B690446984718B16F
:104FA000E38EE26BD05C10BD4FF0FF3010BD704758
:104FB00010B403460846DC6BD98E1A8F0368521A68
:104FC000DB6821445DF8044B1847A0F11000FFF79F
:104FD000EFBFF0B503688DB01C265B6A04460F4630
:104FE0001546984701233246002105A8029303F095
:104FF00035F98DF8146038460A268DF81560FFF7EC
:1050000027FD1122ADF8160002213046FFF7E0FD22
:105010000028606124DB0422009202AB40F6FF719D
:10502000FFF79EFDE0B995B10390ADF8100003A91C
:10503000E8B2FFF709FC98B90623009341F20B028E
:1050400003AB40F6FF716069FFF78AFD40B91C228F
:1050500005A96069FFF77CFD10B96564012004E0D3
:10506000236820465B6A984700200DB0F0BD10B55C
:1050700004464069002801DBFFF77AFD4FF0FF335B
:1050800063610023E386238710BD38B5C36B0546F3
:10509000C08E13B12C6C241A00E01C46944228BF29
:1050A00014462246184403F0CEF8EB8E2344EB86D8
:1050B000204638BD70B503681B6904460E46154688
:1050C000984788B1236820461B699847E38EE16BB7
:1050D0008542A8BF054619442A46304603F0B3F876
:1050E000E38E2B44E38601E04FF0FF35284670BD88
:1050F00070B50446054B44F8043B01F12005064613
:105100000FCD0FC42B682370304670BD78890D0019
:10511000F0B59446026889B0976A0A4A02921D1D4A
:105120008E4606460FCD03AC0FC42B682370BDF826
:1051300038300093624602AB71463046B84709B03A
:10514000F0BD00BF78890D00F0B50368B0F836E017
:105150009F6A0D4B89B000F12006044602930FCEE2
:1051600003AD0FC533682B70A38E0093724602AB5C
:10517000E16B2046B84723680546DB69204698471F
:10518000284609B0F0BD00BF78890D00F0B543781E
:10519000022B8DB005460C46174601D1011D33E0A8
:1051A0000A2B35D11122002101A803F057F8AB6872
:1051B00043B9EB6833B94FF6FF702E69FFF738FC3F
:1051C00086421FD005F1080301AE05F1180E1868DC
:1051D0005968324603C2083373451646F7D1062391
:1051E00001A906A807AE8DF8143001F059F90FCEC9
:1051F00004340FC43368237057B16888FFF720FC6C
:10520000388005E005F11401204601F07EF9F3E74E
:105210000DB0F0BD2DE9F0418EB00EAB0025064675
:105220001746084643F8345D2A462946FFF7BCFA7C
:1052300000281FDB019BFBB15B69EBB102A801F009
:1052400021F9019B2A46586902A9FFF79FFF02A88E
:1052500001F038F980B1336803ADD3F838800B4BD7
:1052600008930FCD09AC0FC42B6823703A4608A9E8
:105270003046C047044601E04FF0FF340198FFF785
:105280008BFA20460EB0BDE8F08100BF78890D0092
:105290002DE9F047D0F81480B8F1000F8CB0054626
:1052A0000C461746994600DB11B94FF0FF3035E048
:1052B0004FF01C0A05AE52460021304602F0CEFFE8
:1052C000CDF808A0B9F1000F14D04FF47A72B9FBF1
:1052D000F2F1039102FB11914A43082304920093D7
:1052E00041F2060203AB40F6FF714046FFF738FC7F
:1052F00008B113E0082002AB019321460346009653
:105300003A466869FFF74CFC041E06DB05F13402DF
:1053100005F11C013046FFF739FF20460CB0BDE80F
:10532000F08738B5054614462B7D062B084611D16B
:105330001C2313700A235370FFF78AFB083424F8E8
:10534000060C2B1D143553F8042B44F8042BAB42E8
:10535000F9D138BD042B0AD11023137002235370E6
:10536000FFF776FB60806868FFF762FB606038BD1E
:105370002DE9F0438BB003AC1C25994606460F4639
:10538000904600212A46204602F068FF2246BDF8DA
:1053900048104846FFF7C5FF9DF80D3043B18DE832
:1053A00030000023424639467069FFF709FC01E0EE
:1053B0004FF0FF300BB0BDE8F083F0B591B00C4674
:1053C00006460021154609A81C221F4602F046FF8A
:1053D00009AA00212046FFF7A4FF9DF82530022BE3
:1053E0002ED1002305930A9B0493DDB102A9284620
:1053F000FFF732FAB0B910A941F8340D0298FFF75F
:1054000033FA60B9039B53B1DA6812685178022904
:1054100003D152680AB1059201E01B68F3E70398D3
:10542000FFF72AFA002F4FF00803009318BF03225A
:1054300004AB08BF042200213046FFF791FB1EE0B9
:105440000A2B1AD104AC14220021204602F006FFD8
:105450000BAB0FCB002F84E80F004FF01403009329
:1054600018BF0C22234608BF0D222921304608957B
:10547000FFF776FB00EAE07001E04FF0FF3011B07B
:10548000F0BD000038B54FF47A7383600B4B03F125
:1054900008026C33002503614FF0FF33044645607A
:1054A000026043611C3000F0EDFF4FF40073E586AD
:1054B0002587E56323646564204638BD20860D009A
:1054C00010B590F84830044623B1C06B10B10121EB
:1054D00002F024F90023E36384F848302364E38670
:1054E000238710BD70B5044616460D46FFF7E8FF4A
:1054F0000023E66323643EB935B12846FEF7CFFDAD
:105500000123E06384F84830E36B03B12564206C29
:10551000003018BF012070BDF8B51746C26B0546B4
:105520000C461AB9016C09B1FFF7DCFF04340FCC4B
:1055300005F120060FC6236833700023AF86EB8683
:105540002B87286CF8BD70B5C26B04460E461AB99D
:10555000016C09B1FFF7C6FFE16B0022E2862287EA
:1055600049B1226C3AB1236820461D6B3346A847E7
:105570000028C8BF2087236820461B69BDE870400B
:10558000184702464069002804DB012392F84420B2
:10559000FFF713BF4FF0FF30704710B504460068A7
:1055A000FFF734FC204610BD10B50446006808B172
:1055B000FFF72CFC00232360A360636010BD38B5A7
:1055C00004460D4600680131FFF728FC10B184E85D
:1055D0002100012038BD10B50368044613B14368AB
:1055E0008B4207D22046FFF7EAFF20B1A3680BB930
:1055F00022681370012010BD70B50E461146044696
:105600001546FFF7E8FF18B92046FFF7CDFF09E080
:105610002A463146A560206802F015FE2268A3687C
:105620000021D154204670BD38B5002304460360E4
:105630004360836003730D4639B1084602F06BFE88
:10564000294602462046FFF7D7FF204638BD000016
:105650000EB4FFB509AC054654F8047B019423460B
:105660003A46052102A8FFF7E1FB0C490646284609
:10567000FFF7DAFF31462846FFF7ADFF286830B163
:1056800023463A46711C0194FFF7D0FBA8602846D8
:1056900004B0BDE8F04003B0704700BFF0880D00D3
:1056A00070470020704710B51421044602F036F808
:1056B000204610BDFEF7F5BC08B50A20024A0021BD
:1056C000FFF7C6FA08BD00BFA9480D0010B50023BA
:1056D0000370044B04461868FFF77AF9012323701E
:1056E000204610BDDCE3032010B5037804461BB14F
:1056F000024B1868FFF774F9204610BDDCE3032065
:1057000008B582798B799A4206D1062202F08CFD87
:10571000B0FA80F0400908BD002008BD10B58369CB
:10572000C26903EBC2029342184606D0046824887B
:105730008C4203F10803F6D110BD002010BD10B556
:105740000A6852F8023F03605368436010BD1FB5FA
:1057500002680B6812881B889A420C460CD10146DD
:105760006846FFF7ECFF214602A8FFF7E8FF02A911
:105770006846FFF7C5FF00B9002004B010BD000067
:1057800010B504463420FEF788FC014668B10023BA
:10579000036043608360C360036143618361C361ED
:1057A000036243628362C3620363216019B90A4AD8
:1057B0000A20FFF74DFA0020FFF786F820B1064ACD
:1057C00000210A20FFF744FA002221680348FFF76E
:1057D00095F8204610BD00BFA9480D009D5A0D0048
:1057E00010B50A4C2368DB070ED42046FEF75DFC9B
:1057F00050B10748FFF7C4FF2046FEF75BFC054A9F
:105800000549034801F07CFF014810BDD8E303209F
:10581000D4E3032040E20320B1580D0013B50C4639
:1058200001A8FFF753FF00212046FFF755F8044673
:1058300001A8FFF759FF204602B010BD0B680360B6
:1058400013B15A6801325A60704770B504684368F2
:10585000054604EBC306A64204D0201DFEF71EFD3C
:105860000834F8E72868FFF7D1FA284670BD70B50C
:1058700004684368054604EBC306A64204D0201D15
:10588000FEF70CFD0834F8E72868FFF7BFFA284652
:1058900070BD10B5046904F11800FFF7E8FF04F1CA
:1058A0000C00FFF7D2FF2046BDE81040FEF7F9BB21
:1058B000F8B504680746C4B1A569E36905EBC306FA
:1058C000AE4204D0281DFEF7E9FC0835F8E7A069D0
:1058D000FFF79CFA04F10C00FFF7C9FF2046FFF721
:1058E000B4FF3421204601F019FF3846F8BD00000E
:1058F00073B500250560456006462420FEF7CDFB04
:10590000044678B103464FF6FF7223F8022BC0F825
:1059100002505D608572C572C56005614561856133
:10592000C5610562002314200193FEF7B6FB034610
:1059300028B1012242608260084A0260046102A824
:10594000726840F8042D73603460FEF7A7FC33687A
:105950000BB9FFF7B1FE304602B070BD98860D005E
:10596000884270B515461AD9904219D2A1F108069D
:10597000511A0439151F44182B1F9E4225D0042CA0
:1059800007D055F8043C44F8043C29462046FFF76C
:1059900055FF2846FEF782FC083D083CECE714D092
:1059A0000C1D061D231F9D420FD0042E07D054F856
:1059B000043C46F8043C21463046FFF73FFF2046B2
:1059C000FEF76CFC08340836ECE770BD2DE9F041B9
:1059D000046843680546884604EBC307A74218D00D
:1059E00041462046FFF7B3FE064608B90834F5E7FE
:1059F0008CB1201DFEF752FC2B686A6804F1080187
:105A000003EBC2022046FFF7ABFF6B68013B6B6004
:105A100002E0002600E026463046BDE8F081F7B5FA
:105A2000044651F8043B4768009301A8FFF706FFBE
:105A30006668A3689E4214DB0136002E0BDDF00081
:105A4000FFF7DCF9054618B394E8060001EBC20243
:105A5000FFF786FF00E000252068FFF7D7F92560F3
:105A6000A6602668626806EBC70506EBC2022946F7
:105A700005F10800FFF774FF35B1009B46F8373099
:105A800001A9281DFFF7DAFE636801336360012571
:105A900001A8FEF703FC284603B0F0BD2DE9F04154
:105AA00004468EB003A80D46FFF710FE2368032BB3
:105AB00002D0042B42D087E004A8FFF719FF049B13
:105AC00022891A806268049952F8083FC1F80230AE
:105AD0005368C1F8063007A8049B069305A9FFF791
:105AE000ADFE06A905F11800FFF799FF044607A8C7
:105AF000FEF7D4FB2023069374B9364B009306AA15
:105B00002346354907943220FFF7AAF8049B214623
:105B10001888FEF7E9FE0DE0304A0092002306AA3D
:105B20002D4907930120FFF79BF86B6A13B1E96ACF
:105B300004A8984705A8FEF7B1FB45E0218928464F
:105B4000FFF7ECFD074600283ED00468A369E16931
:105B50004FF6FF72228003EBC101994203D053F844
:105B6000080B4280F9E7E668236906EBC308B045F5
:105B700004D0301DFEF792FB0836F8E700232361BE
:105B8000A669E36906EBC308B04504D0301DFEF7F3
:105B900085FB0836F8E70023E361A372E372AB6A82
:105BA00013B1296B3846984720230D4A069300927B
:105BB000002309490793012006AAFFF751F8394647
:105BC00005F11800FFF702FF03A8FFF78DFD0EB0E7
:105BD000BDE8F0810E870D00AC860D0034870D0006
:105BE00051870D00024800230360FEF7E9BE00BFA5
:105BF000DCE30320F8B506460D468F180024BD42AD
:105C00000CD0336815F8011B9B6830469847002874
:105C100001DB0444F3E7002C08BF04462046F8BD2E
:105C200070B505460C46084649B102F074FB2B6876
:105C3000024621462846DB68BDE87040184770BD23
:105C400003689B68184738B50D210546FFF7F8FF34
:105C50000A2104462846FFF7F3FF204438BD30B53B
:105C60008BB00B4600218DF82410012A98BF0A2220
:105C70000DF12304B3FBF2F505FB123303F0FF0330
:105C8000092B94BF30333733DBB2214604F8013996
:105C90002B46002DEED1FFF7C3FF0BB030BD10B483
:105CA0002AB903685DF8044B9B68C9B21847D2B2A1
:105CB0005DF8044BFFF7D3BFFFF7F1BF0CB42DE93C
:105CC000F04387B000AF07F13804054654F8049B51
:105CD0003C600E4623464A461421381DFFF7A6F8BD
:105CE000132805D8391D2846FFF79AFF044613E00C
:105CF00000F1080323F00703E846ADEB030D411C58
:105D000023464A4668463C60FFF790F869462846B5
:105D1000FFF786FF0446C5461EB12846FFF793FFEE
:105D2000044420461C37BD46BDE8F04302B070472E
:105D30000068FEF74DBE0000014B024A1A60704732
:105D4000E0E30320BF880D00024B1A68024B1A6083
:105D5000704700BFD8E10320E4E3032010B50446F8
:105D6000FEF7F8F9204610BD13B50B46044603C8EC
:105D70008DE8030093E8030084E803009DE8030036
:105D800083E8030002B010BD0348044A044900231D
:105D9000836001F0B5BC00BFE8E3032040E20320CC
:105DA0005D5D0D0008B50F4B33B100F01BFC0368BF
:105DB0001B69984700280DDC0B4B33B100F094FCB5
:105DC00003681B699847002807DC084B43B1AFF311
:105DD000008008BDAFF30080EEE7AFF30080F4E78A
:105DE00008BD00BF0000000000000000000000002F
:105DF00008B5FFF7D7FFFEF75FFD014B186008BD40
:105E000030E7032007B5002300931A466FF07701AF
:105E1000FEF758FF03B05DF804FB000007B54388A8
:105E20000A2B08D0502B09D1094B1B683BB103B09A
:105E30005DF804EB1847FFF7E5FF06E00023009349
:105E40001A466FF07701FEF73DFF03B05DF804FBE3
:105E5000F8E3032010B5FEF717FD044602F006FA3A
:105E6000074B13B12046AFF3008000210448FEF732
:105E7000BDFF00210348BDE81040FEF719BF00BF79
:105E8000000000001D5E0D0070470020704710B537
:105E90001021044601F042FC204610BD08B508B1AF
:105EA000FFF7F5FF08BD0022026010B54FF69C72A7
:105EB0008280B1F9044084808A8002680C680460A2
:105EC0000A6010BD10B504460068FEF79FFF20462B
:105ED00010BD38B5C468F4B12378022B03D104F1A6
:105EE0000C00FFF7EFFF656835B12846FEF732F981
:105EF0001021284601F012FCA56835B12846FEF7AE
:105F000029F91021284601F009FC20461421BDE89A
:105F1000384001F003BC38BD13B5044691E80500D4
:105F200000234B600B602060626001A80193009326
:105F3000FEF7B4F9204602B010BDF7B50C4602AD2D
:105F400054F8043B45F8083D06460F4601A8214693
:105F5000FFF774FC29463046FFF7DEFF01A8FEF785
:105F60009DF92046FEF79AF93846082101F0D6FB44
:105F7000304603B0F0BD000038B50023044603608E
:105F800010200D46FEF789F828B101234360836095
:105F9000024B0360C5602060204638BD5C890D005F
:105FA000826810B50AB901F0CCFBC368BDE81040A7
:105FB000184708B5006800F11001FFF7F1FF08BDB0
:105FC000826810B50AB901F0BCFBC368BDE8104097
:105FD000184708B5006800F11001FFF7F1FF08BD90
:105FE00038B5002383608B6804460D462BB102222E
:105FF0009847EB68E360AB68A360204638BD0000BB
:10600000F0B589B004686846FFF74DFF00238DF8AE
:1060100008304FF00202D4E84F3F002B03D1C4E810
:10602000412F0029F7D102D08DF8083063E014F138
:106030000C0503D069462846FFF735FFBFF35F8F95
:1060400001236370002004F10803BFF35F8F53E85E
:10605000006F43E80002002AF9D1BFF35F8F002EE2
:1060600049D0FEF715FE20B129463046FFF798FFCC
:106070003AE0314602A8FFF7B3FFE068B4F91050E8
:1060800008B102F02DF906901020ADF81C50FEF773
:1060900004F80546E8B1002787601820FDF7FDFFEA
:1060A000044688B10146876002A8FFF75DFE049BA5
:1060B000A268A360059B049206A9E268E36004F16C
:1060C00010000592FFF7EFFE0D4BEB600D4B2C60BF
:1060D000AB6006A8FFF7F6FE02A8FEF73BF8002229
:1060E00029460948FEF7DCFD3046FEF733F810215B
:1060F000304601F013FB6846FFF7E4FE09B0F0BD3F
:10610000B35F0D0029620D0035670D002DE9F04FDA
:106110008BB006460F46904699469DF850A0FEF774
:106120003DFE07AD834630BB4FF62E73059005A9A3
:106130002846ADF81830FFF7B6FE1420FDF7ADFF86
:10614000044658B10223037001234370C0F804B021
:10615000C0F808B029460C30FFF7A5FE30462146AE
:1061600040F8044BFFF708FF2846FFF7ABFE05A8F1
:10617000FFF7A8FE52E000240C2314206C60AC60F2
:106180000793FDF78AFF014618B10470447044601C
:10619000846004A80391FFF7EFFE224B08930820C8
:1061A000FDF77BFF044628B1039B40F8043B04A99C
:1061B000FFF744FB00955FFA8AF34A4641463846AA
:1061C0000994FEF7FBFD20B9039B5B7803F0FF0207
:1061D00083B1039B059304A906A8FFF72FFB05A92C
:1061E0003046FFF799FE06A8FEF758F804A8FEF718
:1061F00055F813E04FF69C7305A903A80592ADF876
:106200001830FFF7FDFE05A8FFF75CFE05A8099909
:10621000FFF793FE06A8FEF741F8DAE730460BB029
:10622000BDE8F08F99630D00022AF8B5044606D048
:10623000032A17D0012A22D10B6803601FE018201F
:106240000E68FDF72AFF054650B13146FFF7C8FE3C
:106250003069B6F9147008B102F042F82861AF82D3
:1062600025600CE0046854B104F11000FFF72AFE29
:106270002046FDF76FFF1821204601F04FFA00205D
:10628000F8BD38B5002383608B6804460D462BB1FA
:1062900002229847EB68E360AB68A360204638BDF4
:1062A000022A70B5044606D0032A11D0012A18D15B
:1062B0000B68036015E014200E68FDF7EEFE05463E
:1062C00020B13146FFF7DDFF337C2B74256008E0F9
:1062D000046834B12046FDF73DFF1421204601F04B
:1062E0001DFA002070BD0000F0B5002387B00C46F9
:1062F000BFF35F8F50E8006F40E80032002AF9D109
:10630000BFF35F8F002E3FD01846FEF7C1FC074653
:1063100020B121463046FFF753FE2EE0314601A85A
:10632000FFF7AFFF23788DF814301020FDF7B5FE8E
:106330000546D0B187601420FDF7AFFE044678B162
:106340008760014601A8FFF70FFD039BA268A360C9
:10635000049B0392E268E3609DF814300492237476
:106360000A4BEB600A4B2C60AB6001A8FDF7F2FE14
:10637000002229460748FEF793FC3046FDF7EAFE67
:106380001021304601F0CAF907B0F0BDD35F0D000F
:10639000A1620D0035670D0030B585B004460D468D
:1063A00068461146FFF7C9FD7CB124B228460DB1FD
:1063B00001F096FF029002A96846ADF80C40FFF785
:1063C0001FFE02A8FFF77EFD1DE000988DF8084033
:1063D0004FF00102D0E84F3FA34203D1C0E8412F64
:1063E0000029F7D102D08DF808300CE010F10C0133
:1063F0004FF0010318BF0373BFF35F8F043000F841
:10640000033CFFF771FF01A8FDF748FF05B030BD61
:10641000704710B51821044601F080F9204610BDE0
:10642000F0B5037D062B8DB00E4600F104074FF04A
:10643000000402D000F1080518E00CAD394605F85B
:10644000304D2F232A460A20FEF7E2FA284601F0B3
:1064500062FF33680246DB682946304698470FE002
:1064600024B12E213046FFF7EBFB044415F8011D43
:106470000A223046FFF720FCBD420444F0D12046FA
:106480000DB0F0BD10B5054B0446112240F8043B99
:10649000002101F0E3FE204610BD00BF78890D0009
:1064A0000346074A10B543F8042B01F1100251F8D6
:1064B000044B43F8044B9142F9D10A781A7010BD8D
:1064C00078890D00037D042B01D1406808E0062B7C
:1064D0000AD1436853B9836843B9C36833B90069C3
:1064E000003018BF0120704700207047012070471E
:1064F00010B59DF8084044EA032343EA024242EA09
:10650000016104234160037510BD37B50D788B78A8
:106510004A78C97800912946FFF7EAFF03B030BDF9
:1065200041747047704708B50021007CFEF778FB86
:1065300030EA200028BF4FF0FF3008BD08B5012128
:10654000007CFEF76DFB30EA200028BF4FF0FF30E3
:1065500008BD08B5007CFEF75BFB20EAE07008BDD3
:1065600008B5007CFEF74CFB20EAE07008BD007C1B
:10657000FEF766BB10B51421044601F0CFF82046A3
:1065800010BD38B50446007C0D46FEF741FB0028DF
:1065900001DC607C28B12946207CFEF749FB20EA1B
:1065A000E07038BD10B50446002363604FF47A7381
:1065B000A360054B236001230846217463741146D0
:1065C000FEF70EFB204610BD8C890D000022007CDA
:1065D000FEF70EBB10B514220446002101F03EFE6A
:1065E000204610BD30B50E4D87B001A8FFF7F2FF71
:1065F000296811F0010410D12846FDF756FD60B15D
:1066000001AA21460748FFF7CDFF2846FDF752FDB6
:10661000054A0649034801F073F8024807B030BD47
:10662000FCE3032000E4032040E2032025650D0085
:1066300070474174704708B5007CFEF749FA20EABC
:10664000E07008BD08B5007CFEF71AFA20EAE07099
:1066500008BD08B5007CFEF723FA30EA200028BF09
:106660004FF0FF3008BD08B5007CFEF711FA30EAA4
:10667000200028BF4FF0FF3008BD007CFEF718BA9D
:1066800010B51421044601F049F8204610BD70B53C
:10669000457C04460E4625B9007CFEF719FA002811
:1066A00005DD3146207CBDE87040FEF7E1B92846A3
:1066B00070BD000010B50446084611460022626015
:1066C0004FF47A72A260054A22600122207462743B
:1066D0001A46FEF7C5F9204610BD00BFBC890D0063
:1066E000007CFEF7EDB9000038B50C4D296811F0BB
:1066F000010411D12846FDF7D8FC68B1084A094BBE
:1067000009482146FFF7D6FF2846FDF7D3FC074A84
:106710000749054800F0F4FF034838BDACE4032006
:10672000B0E4032028E4032014E4032040E2032023
:1067300031660D0010B5836804460BB901F001F80D
:10674000C3689847A3681BB1032221462046984797
:1067500020461021BDE8104000F0E0BF7047F8B5BA
:10676000064615460C468F18BC4206D0336814F80E
:10677000011B9B6830469847F6E72846F8BD002283
:10678000007CFEF7ADB90021007CFEF7B1B9002115
:10679000007CFEF7B5B90021007CFEF7B9B90021F5
:1067A000007CFEF7BDB910B51421044600F0B6FF19
:1067B000204610BD10B504464FF47A730846A36016
:1067C0000021044B207461602360FEF7B9F9204674
:1067D00010BD00BFEC890D000021007CFEF7A8B9B8
:1067E00010B501230374836804460BB1C06806E04A
:1067F000006828B183680BB900F0A3FFC36898470D
:10680000012363740020BDE81040FEF7F1B80022B8
:1068100011464068FEF7A2BA002211464068FEF712
:10682000ADBA00224068FEF7A1BA002281F0010152
:106830004068FEF78BBA00231A4601214068FEF734
:106840007DBA00231A4619464068FEF76FBA002247
:1068500011464068FEF752BA002202214068FEF756
:1068600055BA00231A464068FEF740BA38B50546C7
:1068700088B104684CB1A3681BB1032221462046AD
:1068800098471021204600F049FF28461421BDE812
:10689000384000F043BF38BD10B103685B6818474B
:1068A000704710B503680446BBB15868FEF738F866
:1068B00078B923685A7C12B95868FEF741F8236802
:1068C0005868FEF745F820680023236028B1FFF7D9
:1068D000CDFF206808B1FFF7C9FF204610BD0000BA
:1068E00038B50C4B03600446D0F8CC0108B1FDF775
:1068F000DAFBD4F8C45135B12846FFF7D2FF0421A2
:10690000284600F00BFFA06808B1FFF7C5FF20463E
:1069100038BD00BF148A0D002DE9F84F0B9F9DF87C
:1069200028B00646884691469A4604460025236CC0
:106930004B4529D1636C534526D194F848305B45CB
:1069400022D14021404601F016FD41460246204634
:1069500001F0E9FCC0B96FB10C21384601F00BFD24
:10696000024638B1582303FB05603946493001F02F
:10697000DAFC04E0582000FB056595F84900B0FA00
:1069800080F04009BDE8F88F0135052D04F1580469
:10699000CDD10020BDE8F88F2DE9F04F85B0074636
:1069A0009DF838A00F9E0196CDF800A0894602926E
:1069B0000393FFF7B1FF00283CD10446582303FBA3
:1069C0000475D5F84080B8F1000F2ED1402148461B
:1069D00001F0D1FC494683460246284601F033FCCB
:1069E000CBF14002414605EB0B0001F037FC029B66
:1069F0002B64039B6B6485F849802EB10C213046D3
:106A000001F0B9FC054600E03546582044433819EA
:106A10003C442A4631464930254401F014FC00200C
:106A200085F8490084F848A005E00134052CC6D15A
:106A3000024800E0002005B0BDE8F08FFCFEFFFF3B
:106A400007B5002301930093FFF7A6FF03B05DF89D
:106A500004FB2DE9F341044608460D46904601F03B
:106A60005AFC04F5DC760746236CABB14021204686
:106A700001F081FC874202460BD32946204601F0F3
:106A8000D3FB30B9009043462A4621465820FEF7F2
:106A900023F95834B442E7D102B0BDE8F0810000D8
:106AA00030B58DB004461122002101A801F0D6FBBB
:106AB000062301AA09498DF814300A20FDF7B0FF1A
:106AC00007AD01A906A8FFF7EBFC0FCD04340FC4F6
:106AD0002B68237000200DB030BD00BF408A0D0030
:106AE0002DE9F041054600F5E0768AB03046FFF723
:106AF0001FF92C68D5F8C001FDF772FF002C63D098
:106B0000D5F8C43163B12368D5F8C4111F6B204692
:106B10004FF47A734FF49A62B847041E13DC56E0C0
:106B20002D494FF49A6000F0FBFDD5F8C431C5F84B
:106B3000C40113B11846FDF7B6FAD5F8C431002BDD
:106B4000E1D1264844E02023254A02930092002305
:106B5000019402AA234903930120FEF781F8D5F896
:106B6000C4315F1C1B786BBB013C2146384601F0E9
:106B700002FC38B3241A002C07EB000822DD3B5C32
:106B800003BB013C0ED008F101082146404601F04C
:106B9000F2FB241A002C15DD18F8003093B9012CF3
:106BA00002D00FE0DFF844803046FFF7C1F84246DC
:106BB0003946281DFFF74DFFD5F8C001FDF710FF3E
:106BC000002005E0084803E06420FDF765FE20464C
:106BD0000AB0BDE8F08100BF1C8B0D00FCFEFFFF7A
:106BE000548A0D004D8A0D00E8FEFFFFF0880D006D
:106BF00010B50446BFF35F8F94F8C831BFF35F8FC1
:106C00001BB92046FFF76CFFF4E710BD10B5046810
:106C1000016044B12046FFF744FE20460421BDE850
:106C2000104000F07BBD10BD2DE9F04105468AB053
:106C300000F5E070FFF77CF82C68002C7BD14C202D
:106C4000FDF72BFA0646002873D0FEF71BFC224600
:106C50004FF49A613046FEF745FC0AA93A4801F81C
:106C6000194DFDF7E9FD33689DF80F201B6A49F2C5
:106C700069013046984704A8FFF704FC04A8FFF711
:106C80000FFF00284ADB04A93046FEF77AFC0028F3
:106C900044DBBFF35F8F85F8C841BFF35F8F2B499B
:106CA000042000F03FFD05F5DE78074648B327498C
:106CB000142000F037FD28B104740460446084603F
:106CC000C46044743860B0B1214B83603B68214993
:106CD000DD6038684FF440638DE8090003221E4BE5
:106CE0000430FDF715FE30B93B681B7C4BB9012021
:106CF000FDF7D2FDF8E7386800233B6008B1FFF7E5
:106D0000B5FD39464046FFF781FFD5F8BC313BB1B0
:106D100028682E6030B1FFF7BFFD0CE0044603E0A9
:106D20000E4C01E0044607E036B13046FFF7B4FDF3
:106D300002E00A4C00E00024D5F8C001FDF750FE47
:106D400020460AB0BDE8F081648A0D001C8B0D005E
:106D5000F16B0D00688A0D00E1670D00FCFEFFFF7E
:106D60002DE9F04705468CB016460F4609B10B7861
:106D70000BB9354C64E0084601F0CDFA8046002E90
:106D80005CD0304601F0C7FA441C08F102032344EA
:106D9000B3F59A6F4FD805F5E070FEF7C9FF2846A6
:106DA000FFF742FF002840DB6846FFF76BFB6846B1
:106DB000FFF776FE002838DBD5F800A0DAF80030BF
:106DC0000DF1040CD3F83890204B0693BCE80F006B
:106DD0000DF11C0EAEE80F00DCF800308EF800302C
:106DE00049F2690206A95046C84700281DDB002366
:106DF00028688DF8183003680122DB6806A99847D7
:106E00002868036808F10102DB68394698472CB10D
:106E1000286803682246DB6831469847286803687B
:106E20001B6C984700EAE07400E00446D5F8C00106
:106E3000FDF7D6FD04E06FF0BD0401E03446A4E7A1
:106E400020460CB0BDE8F087F2FEFFFF78890D0008
:106E5000F8B5054600F5E0700E461746FEF768FFE8
:106E60002846FFF7E1FE002807DB3A463146281D99
:106E7000FFF7E6FD00EAE07400E00446D5F8C00143
:106E8000FDF7AEFD2046F8BD38B50E4C0E4B236025
:106E90000025022304F5E4706360A560C4F8C451C2
:106EA000C4F8C851FDF78CFD084BC4F8CC5184F8E8
:106EB000D05123602046064A0649BDE8384000F01C
:106EC0001FBC00BF34E50320F08A0D00148A0D00BA
:106ED00040E20320E1680D0037B502AC036804F816
:106EE000011DDD6B01224FF0FF332146A84703B09F
:106EF00030BD10B40368DC6B4FF0FF33A4465DF87F
:106F0000044B604737B502AC036804F8011DDD6B24
:106F1000214613460122A84703B030BD704738B55B
:106F200043691A68002A044605DAB3F88620B3F8E4
:106F300084309A4201D001250BE003681B69984711
:106F4000002814BF0125002503D123682046DB6AF1
:106F50009847284638BD43691868C043C00F70473A
:106F600070470020704710B51421044600F0D6FB8E
:106F7000204610BDFDF795B87FB516460022426049
:106F8000029203925A1C04460D4608D04FF47A72BE
:106F9000B3FBF2F1029102FB11314A4303926069A3
:106FA0000823009341F205026B4440F6FF7100682C
:106FB000FDF7D6FD002808DB60690023324629462C
:106FC0000068FDF7F5FD002804DAFDF747FF0368C8
:106FD0006360002004B070BD10B5036804469B6870
:106FE0009847A368013BA3602BB923682046DB6860
:106FF000BDE81040184710BD70B504464D69054BFB
:1070000044F8043B8C3506460FCD0FC42B68237023
:10701000304670BD78890D0010B54369B3F88620FD
:10702000B3F884309A42044605D06269B2F88430DD
:107030001344187910BD03681B6998470028F4D1E0
:107040004FF0FF3010BD10B54369B3F88620B3F898
:1070500084309A42044608D06269B2F88430591CE0
:107060001344A2F88410187910BD03681B6998476F
:107070000028F1D14FF0FF3010BDF8B54369174635
:10708000B3F88620B3F884309A4205460E4606D1FE
:1070900003681B69984710B94FF0FF3414E0696921
:1070A000B1F88430B1F88640E41ABC4228BF3C46AF
:1070B000194422460431304601F0C5F86A69B2F835
:1070C00084302344A2F884302046F8BD2DE9F043F3
:1070D0009846036893B0DB6A0D4606461746984704
:1070E00012AB002443F8484D224621462846FDF7BE
:1070F0005BFB814600283DD1009B002B56D05B698D
:10710000002B53D006A8FFF7BDF9009B5C6963789C
:10711000022B01D1211D13E00A2B14D11122494663
:1071200001A801F09BF8A36833BBE36823BB4FF6CB
:10713000FF702569FDF77CFC85421DD104F1140127
:1071400006A8FFF7E2F906A8FFF7BCF900282DD042
:10715000336807ADD3F82090184B0C930FCD0DACCE
:107160000FC42B6823703A4643460CA93046C847E3
:1071700081461BE0A14619E004F1080301AD183473
:10718000186859682A4603C20833A3421546F7D146
:10719000062301A90CA80DAD8DF81430FFF780F976
:1071A0000FCD07AC0FC42B682370CCE70098FDF718
:1071B000F3FA484613B0BDE8F08300BF78890D00AC
:1071C00042690023A2F884304269A2F886307047F1
:1071D0002DE9F0411E4603680C468AB0DB6A05467D
:1071E00017469847237DD5F81480042B0CBF022046
:1071F0000A2006220121FDF7EBFCC8F800006B69AC
:107200001B68002B18DB2846FFF7DAFFD6B10023F6
:1072100003A9F0B20393ADF81030FDF715FB58B990
:1072200068690623009341F20B0203AB40F6FF713D
:107230000068FDF795FC28B12B682846DB6A00241E
:1072400098473BE01C263246002103A801F006F8CF
:10725000237D8DF80C60042B0CD1022338468DF869
:107260000D30FDF7F5FBADF80E006068FDF7E0FBB3
:10727000049013E00A2338468DF80D30FDF7E8FB43
:1072800005AEADF80E00231D04F114071868596807
:10729000324603C20833BB421646F7D16B691C2243
:1072A00003A91868FDF76CFC0028C5D104340FCC85
:1072B0006D698C350FC523682B70012420460AB0F8
:1072C000BDE8F08110B5436904461868002801DB69
:1072D000FDF74EFC63694FF0FF321A6060691122BE
:1072E00000218C3000F0BAFF2046BDE81040FFF7C7
:1072F00067BF000030B54269B2F886308BB00446F3
:107300001BB1B2F884209A4240D063691868002803
:107310003FDBB3F886507F2D3BD8191DC5F18002A5
:1073200008232944FDF734FC00280CDD6369B3F819
:1073300086200AB9A3F884206269B2F8863018441E
:10734000A2F8860025E0FDF789FD03680B2B20D00D
:10735000FDF784FD03680B2B1BD02023002502932F
:107360000395FDF77BFD036801930E4B009302AA82
:107370002B460D493220FDF773FC63691868FDF751
:10738000F7FB63694FF0FF321A6002E0FFF718FF66
:10739000BBE76269B2F88630B2F88400181A0BB005
:1073A00030BD00BFD88A0D004D8A0D0010B50023F6
:1073B00004460160A0F88430A0F886308830FFF7DA
:1073C00061F8204610BD00004FF47A7270B50023BA
:1073D0008260144A43600260436183610446A020D6
:1073E0000E46FCF75AFE054610B13146FFF7DEFFA8
:1073F0001420FCF752FE034628B10122426082604D
:10740000094A02600561A0696561A36128B143680A
:10741000013B43600BB9FFF7DFFD2046FFF7D0FECD
:10742000204670BD948A0D00788A0D0010B54FF08B
:10743000FF310446FFF7C8FF204610BD10B50446D3
:107440000068002801DBFDF793FB204610BD10B556
:1074500004692046FFF7F2FF24B12046BDE8104042
:10746000FCF71FBE10BD00231A464068FDF73EBC66
:10747000002202214068FDF749BC00221146406805
:10748000FDF73CBC002211464068FDF747BC0023D5
:107490001A4619464068FDF749BC00231A461946AA
:1074A0004068FDF74BBC002281F001014068FDF708
:1074B0004DBC00224068FDF759BC002211464068CF
:1074C000FDF75CBC002211464068FDF747BC2DE982
:1074D000F043002495B016460D460746FEF7D2FF4E
:1074E000214620220CA8009400F0B8FE40230C9303
:1074F00021466B460CAA3046FDF756F90446002893
:1075000044D1024601216868FDF708FC022180464B
:1075100022466868FDF702FC009E81462146002E47
:1075200034D0002932D17368022B02D00A2B09D043
:107530002AE0B8F1000F27D0716938460431FEF710
:10754000E4FF20E0B9F1000F1ED07469112201A8F8
:1075500000F084FE06238DF8143001AD04F1080319
:107560001834186859682A4603C20833A3421546DE
:10757000F7D101A906A807ADFEF792FF0FCD3C1D7C
:107580000FC42B6823700121F669C8E70098FDF746
:1075900003F9384615B0BDE8F0830000024B034AFA
:1075A0001A6000225A60704708E70320F08A0D0035
:1075B00010B504460F48FDF7B3FC28B1A4F10B0346
:1075C000022B01D8002010BD00F07AF8FFF704F973
:1075D00008B1012CF6D9FFF787F8FFF781F818B149
:1075E000A4F10903012BEDD91E2C8CBF0020012032
:1075F00010BD00BF10E703201E2838B504460D4615
:107600000AD8FF2908D0FFF7D3FF28B12946204622
:10761000BDE83840FDF7E0B838BD38B504460D4642
:10762000FDF7E2F8FF2810D0062804D84D2323FAEE
:1076300000F0C30709D42046FFF7BAFF28B1294656
:107640002046BDE83840FDF7D7B838BD0D2810B545
:1076500004469CBF0E34A4B22046FFF7A9FF50B1E8
:1076600003212046FDF7B0F8032804D12046BDE8E9
:107670001040FDF7C9B8002010BD000070B50C4CDB
:107680000C4E0D4D00212046FDF736FC20460B4CDC
:107690003246294600F034F801212046FDF72CFC43
:1076A000324629462046BDE8704000F029B800BFA8
:1076B00010E7032040E20320E94E0D0020E70320FD
:1076C00038B50B4D296811F001040FD12846FCF79D
:1076D000ECFC58B121460748FFF76CF82846FCF748
:1076E000E9FC054A0549034800F00AF8014838BD9D
:1076F00034E7032038E7032040E203205D670D00F4
:107700000B460146184600F081BD0000024B186888
:10771000BFF35F8F704700BF4CE70320FCF7C1BC8D
:1077200000F000B810B5002814BF0446012420461C
:10773000FDF764FB20B9FFF7E9FF08B18047F6E7E2
:1077400010BD08B5FDF77AFB184B1A68D1075CBF6E
:1077500001221A60164B1A68D2075CBF01221A6018
:10776000144B1A68D0075CBF01221A60124B1A68CA
:10777000D1075CBF01221A60104B1A68D2075CBFA8
:1077800001221A600E4B1A68D0075CBF01221A60F2
:107790000C4B1A68D1075CBF01221A600A4B1A68A9
:1077A000D2075CBF01221A60704700BF6CE703205C
:1077B00068E7032064E7032060E703205CE7032019
:1077C00058E7032054E7032050E70320244B1A68AE
:1077D000D0075CBF01221A60224B1A68D1075CBF38
:1077E00001221A60204B1A68D2075CBF01221A607E
:1077F0001E4B1A68D0075CBF01221A601C4B1A6826
:10780000D1075CBF01221A601A4B1A68D2075CBF0D
:1078100001221A60184B1A68D0075CBF01221A6057
:10782000164B1A68D1075CBF01221A60144B1A6804
:10783000D2075CBF01221A60124B1A68D0075CBFE6
:1078400001221A60104B1A68D1075CBF01221A602E
:107850000E4B1A68D2075CBF01221A60704700BF46
:107860009CE7032098E7032094E7032090E7032098
:107870008CE7032088E7032084E7032080E70320C8
:107880007CE7032078E7032074E7032070E70320F8
:10789000244B1A68D0075CBF01221A60224B1A6879
:1078A000D1075CBF01221A60204B1A68D2075CBF67
:1078B00001221A601E4B1A68D0075CBF01221A60B1
:1078C0001C4B1A68D1075CBF01221A601A4B1A6858
:1078D000D2075CBF01221A60184B1A68D0075CBF40
:1078E00001221A60164B1A68D1075CBF01221A6088
:1078F000144B1A68D2075CBF01221A60124B1A6837
:10790000D0075CBF01221A60104B1A68D1075CBF18
:1079100001221A600E4B1A68D2075CBF01221A605E
:10792000704700BFCCE70320C8E70320C4E703206B
:10793000C0E70320BCE70320B8E70320B4E7032037
:10794000B0E70320ACE70320A8E70320A4E7032067
:10795000A0E70320184B1A68D1075CBF01221A6008
:10796000164B1A68D2075CBF01221A60144B1A68C2
:10797000D0075CBF01221A60124B1A68D1075CBFA6
:1079800001221A60104B1A68D2075CBF01221A60EC
:107990000E4B1A68D0075CBF01221A600C4B1A68A4
:1079A000D1075CBF01221A600A4B1A68D2075CBF7C
:1079B00001221A60704700BFECE70320E8E70320CC
:1079C000E4E70320E0E70320DCE70320D8E7032017
:1079D000D4E70320D0E7032081F0004102E000BF9C
:1079E00083F0004330B54FEA41044FEA430594EA7F
:1079F000050F08BF90EA020F1FBF54EA000C55EABA
:107A0000020C7FEA645C7FEA655C00F0E2804FEA8A
:107A10005454D4EB5555B8BF6D420CDD2C4480EA6C
:107A2000020281EA030382EA000083EA010180EA9C
:107A3000020281EA0303362D88BF30BD11F0004FEA
:107A40004FEA01314FF4801C4CEA113102D0404220
:107A500061EB410113F0004F4FEA03334CEA13335B
:107A600002D0524263EB430394EA050F00F0A78073
:107A7000A4F10104D5F1200E0DDB02FA0EFC22FA6E
:107A800005F2801841F1000103FA0EF2801843FA62
:107A900005F359410EE0A5F120050EF1200E012A53
:107AA00003FA0EFC28BF4CF0020C43FA05F3C01891
:107AB00051EBE37101F0004507D54FF0000EDCF10A
:107AC000000C7EEB00006EEB0101B1F5801F1BD3B3
:107AD000B1F5001F0CD349085FEA30004FEA3C0CB7
:107AE00004F101044FEA445212F5800F80F09A80AD
:107AF000BCF1004F08BF5FEA500C50F1000041EBB1
:107B0000045141EA050130BD5FEA4C0C404141EBB4
:107B1000010111F4801FA4F10104E9D191F0000FDB
:107B200004BF01460020B1FA81F308BF2033A3F15E
:107B30000B03B3F120020CDA0C3208DD02F1140C55
:107B4000C2F10C0201FA0CF021FA02F10CE002F190
:107B50001402D8BFC2F1200C01FA02F120FA0CFC89
:107B6000DCBF41EA0C019040E41AA2BF01EB0451D2
:107B7000294330BD6FEA04041F3C1CDA0C340EDCD0
:107B800004F11404C4F1200220FA04F001FA02F313
:107B900040EA030021FA04F345EA030130BDC4F1D1
:107BA0000C04C4F1200220FA02F001FA04F340EAC6
:107BB0000300294630BD21FA04F0294630BD94F077
:107BC000000F83F4801306BF81F480110134013D5E
:107BD0004EE77FEA645C18BF7FEA655C29D094EACF
:107BE000050F08BF90EA020F05D054EA000C04BF4D
:107BF0001946104630BD91EA030F1EBF0021002038
:107C000030BD5FEA545C05D14000494128BF41F0D6
:107C1000004130BD14F580043CBF01F5801130BD3A
:107C200001F0004545F0FE4141F470014FF00000C5
:107C300030BD7FEA645C1ABF194610467FEA655C76
:107C40001CBF0B46024650EA013406BF52EA033518
:107C500091EA030F41F4002130BD00BF90F0000F06
:107C600004BF0021704730B54FF4806404F1320442
:107C70004FF000054FF0000150E700BF90F0000FFB
:107C800004BF0021704730B54FF4806404F1320422
:107C900010F0004548BF40424FF000013EE700BFF2
:107CA00042004FEAE2014FEA31014FEA02701FBF82
:107CB00012F07F4393F07F4F81F06051704792F054
:107CC000000F14BF93F07F4F704730B54FF46074CE
:107CD00001F0004521F0004120E700BF50EA010219
:107CE00008BF704730B54FF000050AE050EA0102C6
:107CF00008BF704730B511F0004502D5404261EB36
:107D000041014FF4806404F132045FEA915C3FF476
:107D1000DCAE4FF003025FEADC0C18BF03325FEA0F
:107D2000DC0C18BF033202EBDC02C2F1200300FAC4
:107D300003FC20FA02F001FA03FE40EA0E0021FAE9
:107D400002F11444C1E600BF70B54FF0FF0C4CF4D3
:107D5000E06C1CEA11541DBF1CEA135594EA0C0F89
:107D600095EA0C0F00F0DEF82C4481EA030621EAC4
:107D70004C5123EA4C5350EA013518BF52EA0335FF
:107D800041F4801143F4801338D0A0FB02CE4FF0B1
:107D90000005E1FB02E506F00042E0FB03E54FF0E1
:107DA0000006E1FB03569CF0000F18BF4EF0010ED9
:107DB000A4F1FF04B6F5007F64F5407404D25FEAD5
:107DC0004E0E6D4146EB060642EAC62141EA555188
:107DD0004FEAC52040EA5E504FEACE2EB4F1FD0CCA
:107DE00088BFBCF5E06F1ED8BEF1004F08BF5FEA48
:107DF000500E50F1000041EB045170BD06F00046FA
:107E000046EA010140EA020081EA0301B4EB5C04A6
:107E1000C2BFD4EB0C0541EA045170BD41F480119E
:107E20004FF0000E013C00F3AB8014F1360FDEBFC3
:107E3000002001F0004170BDC4F10004203C35DA9F
:107E40000C341BDC04F11404C4F1200500FA05F322
:107E500020FA04F001FA05F240EA020001F00042C3
:107E600021F0004110EBD37021FA04F642EB060139
:107E70005EEA430E08BF20EAD37070BDC4F10C0463
:107E8000C4F1200500FA04F320FA05F001FA04F227
:107E900040EA020001F0004110EBD37041F1000113
:107EA0005EEA430E08BF20EAD37070BDC4F120051E
:107EB00000FA05F24EEA020E20FA04F301FA05F286
:107EC00043EA020321FA04F001F0004121FA04F22E
:107ED00020EA020000EBD3705EEA430E08BF20EAFE
:107EE000D37070BD94F0000F0FD101F00046400038
:107EF00041EB010111F4801F08BF013CF7D041EABA
:107F0000060195F0000F18BF704703F000465200BD
:107F100043EB030313F4801F08BF013DF7D043EA8E
:107F20000603704794EA0C0F0CEA135518BF95EA44
:107F30000C0F0CD050EA410618BF52EA4306D1D1CB
:107F400081EA030101F000414FF0000070BD50EAEA
:107F5000410606BF1046194652EA430619D094EA74
:107F60000C0F02D150EA013613D195EA0C0F05D15E
:107F700052EA03361CBF104619460AD181EA0301B2
:107F800001F0004141F0FE4141F470014FF000006A
:107F900070BD41F0FE4141F4780170BD70B54FF005
:107FA000FF0C4CF4E06C1CEA11541DBF1CEA135585
:107FB00094EA0C0F95EA0C0F00F0A7F8A4EB050467
:107FC00081EA030E52EA03354FEA013100F088805E
:107FD0004FEA03334FF0805545EA131343EA126327
:107FE0004FEA022245EA111545EA10654FEA0026DC
:107FF0000EF000419D4208BF964244F1FD0404F595
:10800000407402D25B084FEA3202B61A65EB0305F0
:108010005B084FEA32024FF480104FF4002CB6EBAD
:10802000020E75EB030E22BFB61A754640EA0C002D
:108030005B084FEA3202B6EB020E75EB030E22BF6D
:10804000B61A754640EA5C005B084FEA3202B6EBAE
:10805000020E75EB030E22BFB61A754640EA9C006D
:108060005B084FEA3202B6EB020E75EB030E22BF3D
:10807000B61A754640EADC0055EA060E18D04FEAFB
:10808000051545EA16754FEA06164FEAC30343EA9B
:1080900052734FEAC2025FEA1C1CC0D111F4801F68
:1080A0000BD141EA00014FF000004FF0004CB6E761
:1080B00011F4801F04BF01430020B4F1FD0C88BF00
:1080C000BCF5E06F3FF6AFAEB5EB030C04BFB6EB0B
:1080D000020C5FEA500C50F1000041EB045170BDFE
:1080E0000EF0004E4EEA113114EB5C04C2BFD4EB2B
:1080F0000C0541EA045170BD41F480114FF0000EAF
:10810000013C90E645EA060E8DE60CEA135594EA2A
:108110000C0F08BF95EA0C0F3FF43BAF94EA0C0F2D
:108120000AD150EA01347FF434AF95EA0C0F7FF4A2
:1081300025AF104619462CE795EA0C0F06D152EAF6
:1081400003353FF4FDAE1046194622E750EA4106DA
:1081500018BF52EA43067FF4C5AE50EA41047FF4EB
:108160000DAF52EA43057FF4EBAE12E74FEA41024E
:10817000B2F1E04324BFB3F5001CDCF1FE5C0DD985
:1081800001F0004C4FEAC0024CEA5070B2F1004FCF
:1081900040EB830008BF20F00100704711F0804FD2
:1081A00021D113F13872BCBF01F00040704741F497
:1081B00080114FEA5252C2F11802C2F1200C10FA9B
:1081C0000CF320FA02F018BF40F001004FEAC1237F
:1081D0004FEAD32303FA0CFC40EA0C0023FA02F323
:1081E0004FEA4303CCE77FEA625307D150EA0133F9
:1081F0001EBF4FF0FE4040F44000704701F00040C9
:1082000040F0FE4040F40000704700BF10B5054C40
:1082100013462CB10A4601460220AFF3008010BD80
:10822000204610BD0000000010B501390244904204
:1082300007D010F8013B11F8014FA342F7D0181BEB
:1082400010BD002010BD10B5431E0A44914204D059
:1082500011F8014B03F8014FF8E710BD0244034643
:10826000934202D003F8011BFAE7704738B5124B6E
:108270001C68A36B0546D3B91820FCF7BFFD43F279
:108280000E33A06303804AF6CD33438041F234239A
:1082900083804EF26D63C3804DF6EC63038105234A
:1082A00043810B23838101220023C0E90423A36BB4
:1082B00000221D615A6138BD3CE2032010F8012BF9
:1082C00011F8013B012A28BF9A42F7D0D01A704713
:1082D000034611F8012B03F8012B002AF9D170474E
:1082E000024B0146186800F003B800BF3CE20320CF
:1082F00070B5064608460C4600F00DF8451C2946A8
:108300003046FCF7A3FD064618B12A462146FFF782
:108310009AFF304670BD034613F8012B002AFBD1AB
:10832000181A0138704730B582B1451E013915F869
:10833000013F11F8014FA34206D1EC431444E0423F
:1083400001D0002BF3D11C46181B30BD104630BDA8
:1083500010B5034642B111F8014B03F8014B013A45
:10836000002CF7D11A4400E010BD934202D003F86C
:10837000014BFAE710BD10B5034601448B4204D00F
:108380001A785C1C0AB12346F8E7181A10BD0000E1
:1083900021400D005D400D0089400D008D400D0015
:1083A00000000000000000000000000085410D00FA
:1083B000CD410D000D410D00726563656976656400
:1083C0002025733A202573004465746F6E617465CF
:1083D00000426F6F6D00424F4F4D2100426F6F6D35
:1083E0005F61636B004465746F6E6174655F6163A8
:1083F0006B00426F6F6D5F726573657400424F4F23
:108400004D5F726573657400252E326600766F6C61
:1084100074616765007061727469636C652F64656F
:10842000766963652F6E616D6500737061726B2F85
:108430006465766963652F6E616D65006465765F5E
:108440006E616D653A2025730A00564152494142DA
:108450004C455F4C4142454C3A2025730A007765F4
:1084600062686F6F6B00556269646F747300696E48
:10847000647573747269616C2E6170692E756269BE
:10848000646F74732E636F6D005B5741524E494E9B
:10849000475D20596F757220626F61726420646F4E
:1084A0006573206E6F7420737570706F72742074B2
:1084B0006865206D6573684C6F6F702829206D6545
:1084C00074686F64005B5741524E494E475D2059B6
:1084D0006F757220626F61726420646F6573206EC5
:1084E0006F7420737570706F727420746865207378
:1084F0006574436C6F756450726F746F636F6C2832
:1085000029206D6574686F64005B5741524E494E77
:10851000475D20596F757220626F61726420646FCD
:108520006573206E6F7420737570706F7274207431
:1085300068652073656E642829206D6574686F64B2
:10854000005B5761726E696E675D20596F757220AE
:10855000626F61726420646F6573206E6F74207344
:108560007570706F7274207468652067657428294F
:10857000206D6574686F6400596F752061726520A5
:10858000616464696E67206D6F7265207468616EE6
:1085900020746865206D6178696D756D206F662047
:1085A000636F6E7365637574697665206B65792D8D
:1085B00076616C756573207061697273002573252F
:1085C000733D257300257324002573222573223AF9
:1085D000222573220025732C0000000000000000FB
:1085E00000000000CB4E0D00C14E0D00B74E0D0037
:1085F000AD4E0D00A14E0D00954E0D00894E0D00A3
:10860000814E0D00774E0D006D4E0D00CF740D00A4
:108610000000000000000000E94E0D00EB4E0D00D0
:1086200000000000000000008D460D00AD460D006A
:10863000614F0D008B500D00594F0D00774F0D000D
:10864000954F0D00AF4F0D00D34F0D006F500D0033
:1086500071530D0011510D0091520D00414F0D004D
:1086600019550D0015520D0049510D0047550D00CB
:10867000B5500D004F4F0D00F1500D00554F0D003E
:10868000B14F0D00F0FFFFFF00000000CB4F0D00C9
:108690000000000000000000A1560D00A7560D00CC
:1086A00093580D00B5560D00A3560D0077697269F9
:1086B0006E672E626C650053746172742064697316
:1086C000636F766572696E6720736572766963653C
:1086D000732E00537461727420646973636F7665DE
:1086E00072696E6720636861726163746572697331
:1086F000746963732E0050656572206465766963E2
:1087000065206973206D697373696E672100466126
:10871000696C656420746F20617070656E64207090
:108720006565722043656E7472616C20646576695C
:1087300063652E00436F6E6E6563746564206279B5
:108740002043656E7472616C206465766963652E82
:1087500000446973636F6E6E65637465642062794B
:108760002072656D6F7465206465766963652E009F
:1087700043616E6E6F7420616464206E6577207053
:10878000656572206465766963652E004E657720A5
:108790007065726970686572616C20697320636FBF
:1087A0006E6E65637465642E004661696C65642055
:1087B000746F20617070656E6420646973636F7696
:1087C0006572656420636861726163746572697360
:1087D0007469632E004661696C656420746F206162
:1087E0007070656E6420646973636F76657265642A
:1087F00020736572766963652E004661696C6564F5
:1088000020746F20617070656E64206C6F63616CA2
:108810002063686172616374657269737469632E41
:10882000004475706C69636174656420636861728B
:10883000616374657269737469632063616E6E6FDE
:10884000742062652061646465642E0062617564F1
:108850000053657269616C0053657269616C310027
:108860007479706500706172616D00636D64006998
:108870006400686E64007374726D0066696C7400E5
:108880006C766C0061646448616E646C6572007241
:10889000656D6F766548616E646C657200656E75B6
:1088A0006D48616E646C657273004A534F4E537429
:1088B0007265616D4C6F6748616E646C65720061D2
:1088C000707000253031307520005D20002C2000B4
:1088D00028293A2000205B00636F6465203D20005A
:1088E00025690064657461696C73203D20000D0A80
:1088F000006C6E00666E00636F6465006465746191
:10890000696C006E6F6E6500747261636500696EFC
:10891000666F007761726E006572726F72007061CF
:108920006E696300616C6C005A00252B3033643A29
:10893000253032750025592D256D2D256454254887
:108940003A254D3A2553257A0061736374696D6544
:10895000000000000000000000000000895E0D0023
:108960008F5E0D00D35E0D009D5E0D008B5E0D00D1
:10897000000000000000000021640D0011640D00E3
:1089800013640D00000000000000000025650D00CC
:1089900075650D0083650D00F55B0D0061650D00CB
:1089A00027650D003D650D006F650D0053650D00D9
:1089B00021650D00000000000000000031660D0080
:1089C00081660D008F660D00F55B0D0045660D009C
:1089D00067660D0053660D007B660D0033660D0063
:1089E00037660D0000000000000000005D670D000C
:1089F000A7670D007F670D005F670D0087670D009B
:108A00008F670D0097670D009F670D000000000045
:108A10000000000063680D0059680D004F680D00EC
:108A20001D470D0043680D0037680D002B680D00D1
:108A300023680D0019680D000F680D00CF740D003C
:108A4000666630333A3A313A313030310077697204
:108A5000696E67007061727365207061636B657425
:108A600020256400746831006D657368707562005C
:108A70000000000000000000616F0D00676F0D0036
:108A80004F740D00756F0D00636F0D000000000046
:108A90000000000071450D00A5450D00D96E0D00C8
:108AA000F36E0D00F5720D0047700D0019700D008A
:108AB0001D6F0D00D1710D00CD700D007B700D008C
:108AC000C5720D001F6F0D00576F0D00056F0D0073
:108AD000796F0D00F96F0D00726563762065727213
:108AE0006F72203D2025640000000000000000009F
:108AF00067740D0071740D007B740D0085740D009A
:108B00008F740D009B740D00A7740D00B3740D00DD
:108B1000BB740D00C5740D00CF740D000000000083
:108B20000000000000000000000000000000000045
:108B30000000000000000000000000000000000035
:108B40000000000000000000000000000000000025
:108B50000000000000000000000000000000000015
:108B60000000000000000000000000000000000005
:108B700000000000000000000000000000000000F5
:108B80004300000099440D00B9450D00E1450D007A
:108B900057460D0065460D00C1460D005D470D00AE
:108BA0006D470D0095470D00D54E0D00294F0D0066
:108BB000E55B0D00395D0D00495D0D00895D0D001F
:108BC000896E0D009D750D007D760D0049770D00B5
:108BD000CD770D0091780D0055790D000000000053
:108BE0000700000049890D0000000000208B0D00E7
:108BF000408B0D00608B0D000000000000000000A5
:108C00000000000000000000808B0D00000000004C
:108C10000000000000000000000000000000000054
:108C20000000000000000000000000000000000044
:108C30000000000000000000000000000000000034
:0C8C40000000000000000000DCE1032048
:108C4C00FFFFFFFF00000102030405060708090AE5
:108C5C000B0C0D0E0F101112131415161718191AE0
:088C6C001B1C1D1E1F20280027
:048C740078563412E8
:04000003D0004020C9
:00000001FF
