:02000002D0002C
:1040000000400D00E0C80D00000006000C00050196
:0840100004017B050000000023
:0440180058B80D0087
:1040200009480A49884208B505D0094A824202D0A7
:10403000121A05F0E6FD0748074A0021121A05F09A
:1040400006FE014808BD00BF88CD032010C80D0042
:1040500030CE032030CE0320F0E7032070B503F00C
:10406000C9F9074C074BE41AA40800251E46A542CF
:1040700004D056F8253098470135F8E770BD00BFE9
:104080000CC80D00A4C70D0000F0C6B808B500F0BC
:1040900043F9BDE8084003F07BB902F0A1B802F093
:1040A0009FB802F0A5B802F0A3B80078B0FA80F08B
:1040B0004009704701230370704703681847012ABD
:1040C00002D0022A02D004E0016002E00B6800B1D5
:1040D000036000207047000037B5094C05461F22D9
:1040E000204605F03DFE03F087FD2B460094054A6F
:1040F000012103F0B7F8044B01221A7003B030BD60
:1041000079E2032080B80D0078E2032008B5044B63
:1041100001221A7001F0AAFD024B1860002008BDB0
:10412000E4E1032028E20320436913B183690C30E2
:104130001847704713B500210446084601F0F2FD08
:1041400002A90023204641F8043D01F003FE019C32
:104150000CB1012323710021012001F0E3FD2CB1FA
:10416000236820469B6898470023237102B010BD46
:1041700010B58368044613B10322014698472046D0
:1041800010BD07B58068002338B18DE80A00022110
:1041900001F0E8FDB0FA80F0400903B05DF804FBDF
:1041A00038B5104B036083680446A3B16FF000413B
:1041B0000022FFF7E6FF0021A06801F003FE23794B
:1041C00003F0FF0513B101F095FDF8E72946A0685B
:1041D00001F0B8FDA56004F10C00FFF7C9FF20460F
:1041E00038BD00BF74B80D0010B50446FFF7D8FF06
:1041F00020461C2104F0DEFD204610BD10B504460B
:1042000002F09AFC04F1080002F007FD04F12C0012
:1042100002F003FD204610BD30B5012085B001F04D
:1042200009FF0024082302AA012544F62061029414
:104230002046ADF808302346039501F0C1FF03F096
:10424000DBFC4FF4E13103F0CBFC164B2946188818
:10425000154D04F01DFD02F05BFD6FF0070102F04B
:1042600075FD124A1249134803F03CF922462146D3
:104270002846FFF786FFA86840B16FF0004300931F
:10428000019423462246214601F06CFD0A4A0B495F
:104290000B4804F0E7F80021212004F0F9FC05B0F8
:1042A00030BD00BF88CD0320E8E10320E7B80D0052
:1042B0000D410D00B9740D0071430D0090B80D0053
:1042C00034E5032070B5064601F0D0FC064C0546E7
:1042D00001F0CCFC401BB04205D201F0C7FC2060CD
:1042E00001F046FFF4E770BD30E7032038B50468FD
:1042F00005467CB16368013B63605BB92368204677
:104300009B689847A368013BA3601BB923682046BC
:10431000DB689847284638BD1FB50F4B1B78C3B1E3
:1043200001F0A4FC0D4B1B68C01A0D4B1B68984292
:104330000FD30C4B0C4A1B788DF800300B494FF40F
:10434000967302A803F0DEF903A8FFF7CFFF01F090
:10435000E9FF05B05DF804FBE4E1032028E2032057
:104360008CCD032005E2032099B80D00B0B80D00F4
:1043700030B50C4685B02449204605F0A7FC05461B
:1043800008BB40F6B830FFF79DFF204B012118888D
:1043900004F08FFC1E4B1F4901221A701E4B1B7824
:1043A0008DF800302A463C2302A803F0ABF903A89D
:1043B000FFF79CFF194A1A491A4803F0DBFF40F641
:1043C000B830FFF77FFF2046174905F07FFC044611
:1043D000C0B90E4B0146188804F06BFC0C4B134916
:1043E00001221A700C4B1B788DF8003022463C23BA
:1043F00002A803F087F903A8FFF778FF4FF4FA60EB
:10440000FFF760FF05B030BDB6B80D0088CD0320C2
:1044100004E20320BBB80D0005E20320C1B80D0083
:10442000CAB80D0034E50320D7B80D00E2B80D007E
:1044300030B521208BB004F055FC05F025F82BA3F6
:10444000D3E9002305F086F805F066FB039005F03C
:104450002DF802460B4606A81B491C4D02F014FB22
:104460001B4B069A1B781B498DF8003004A83C238F
:1044700003F048F905A8FFF739FF002406A802F069
:104480008EFA01940094224601231349284601F034
:104490008FFE124B1B788DF8003022463C232946B4
:1044A00006A80F4C03F02EF907A8FFF71FFF9DED9C
:1044B000030A0C49204600F0DCFB0B49204600F0C3
:1044C000E1FB0BB030BD00BFEDB80D00FAB80D0038
:1044D00005E20320F2B80D00D9400D0099E2032057
:1044E00068E2032079E203200FB90D009402C1D2E3
:1044F000AF63523F10B5044B044640F8183BFFF73A
:10450000F5FE204610BD00BF20C50D0070B53E4B26
:104510003E4D00241C703E4B88B001221A7001F001
:1045200025FB284604F090FA05F11C0003F0A6FADA
:10453000384A39496C6328462C8704F02DFC374BE8
:104540001D605C609C60DC601C615C611C835C8342
:104550001C775C7701F08AFB032231493148324DE8
:1045600000F05AFB2B4A31492E4804F015FC304B21
:10457000049304AE96E803002E4B2B6002AA05F1CB
:104580000C0382E8030093E8030086E8030092E846
:10459000030083E80300284B6B61AB690793274B4B
:1045A000AB612C71AC602B46254A019442F210712C
:1045B00005F108000094069401F0BCFB3046FFF7BB
:1045C000D7FD2846134A1F491F4E04F0E5FB40F66D
:1045D000D81530195434FFF711FEAC42F9D11B4EF7
:1045E000002440F6D81530195434FFF707FEAC42CA
:1045F000F9D101F03BFB164B00211860012001F0BE
:1046000029FD08B070BD00BF99E203202CE2032011
:1046100005E2032030CE0320F5440D0008E203201C
:1046200017B90D0068E20320E8E10320354C0D00C6
:1046300031440D0074B80D00BF400D00BB400D00AB
:1046400035410D00A1410D000CD8032034CE0320CC
:1046500028E203200175704738B584690A4B03606E
:1046600005467CB16368013B63605BB92368204603
:104670009B689847A368013BA3601BB92368204649
:10468000DB689847284638BD20C50D0010B50446A4
:10469000FFF7E2FF20461C2104F08CFB204610BDF2
:1046A00030B5064D056000250575836041F28835FB
:1046B000039B85614160C360026130BD38BA0D0063
:1046C0002DE9F0410D469046074603F095FA1B4947
:1046D00002F061FD00241A48E6B204F071F950BB03
:1046E000052C01D1BDE8F0813B7DA3B103F084FA34
:1046F000144902F03DFD03F07FFA294602F038FD2F
:1047000003F07AFA104902F033FD03F075FA0A2239
:10471000314602F079FD0A4804F0DEF800231FFA62
:1047200088F22946064803F0DBFF4FF47A7002F066
:10473000E9FD0134CFE7BDE8F08100BF2AB90D00E3
:104740009CE2032042B90D0058B90D0070B5054632
:1047500000240D4804F0D8F8064610B9AB699C4215
:1047600001DB012070BD012002F0CCFDAB690134FA
:104770009C42EEDB287D30B103F03EFA034902F0A3
:104780000AFD304670BD70BD9CE203206CB90D007F
:104790002DE9F843037D0646884615464BB103F0E4
:1047A0002BFA264902F0F7FC03F026FA244902F01E
:1047B000F2FC002440F2BB29224804F0A5F878B1AD
:1047C000204803F04AFF337DC7B22BB103F014FA3F
:1047D000036839469B6898472F5501344C45EBD107
:1047E000337D23B103F008FA174902F0D4FC00230B
:1047F0002B55164B98450DD11549284605F0CFFA93
:10480000DFED147A0028B7EE000A08BFB0EE670AA1
:10481000BDE8F8837C21284605F04AFA50B1013002
:1048200005F0CAF951EC100B05F076F900EE100A0C
:10483000BDE8F8839FED070ABDE8F883B3B90D0022
:104840009FB90D009CE20320B2B90D00BEB90D0066
:10485000C3B90D005F42A2CD70B52DED028B0446A9
:104860004168224842F234321D46002303F038FFEB
:10487000204642F234326168FFF722FF1B4803F002
:1048800058FE30B32946194802F072FC2046FFF763
:104890005DFF054620B9154804F01EF8002521E00B
:1048A000642001F09DFC1249024606462046FFF7AF
:1048B0006FFF3046B0EE408A01F09AFCDFED0D7AD2
:1048C000B4EE678AF1EE10FAE5D0084804F004F877
:1048D00008E0237D002BDED003F08EF9064902F0BC
:1048E0005AFCD8E7BDEC028B284670BD9CE2032041
:1048F000BEB90D005F42A2CDC6B90D0070B52DED59
:10490000028B044600230E4615464168494842F290
:10491000343203F0E5FE204642F234326168FFF79C
:10492000CFFE444803F005FE002877D0A168414837
:1049300002F01EFC40493F4802F01AFCE1683D4885
:1049400002F016FC3D493B4802F012FC3146394862
:1049500002F00EFC3A49374802F00AFC2946354875
:1049600002F006FC3749334802F002FC237DB3B362
:1049700003F042F9344902F00EFC03F03DF93349EB
:1049800002F009FC03F038F9A16802F0F1FB03F032
:1049900033F9294902F0ECFB03F02EF9E16802F04B
:1049A000E7FB03F029F9254902F0E2FB03F024F9C3
:1049B000314602F0DDFB03F01FF9214902F0D8FB7C
:1049C00003F01AF9294602F0D3FB03F015F91D494B
:1049D00002F0CEFB03F010F91D4902F0DCFB20468B
:1049E000FFF7B4FE28B9134803F076FF9FED190ACC
:1049F0001DE04FF42F7001F0F3FB17490246054606
:104A00002046FFF7C5FE0B48B0EE408A03F064FF76
:104A1000284601F0EDFBB0EE480A08E0237D002BAC
:104A2000E1D003F0E9F80D4902F0B5FBDBE7BDEC9E
:104A3000028B70BD9CE20320E4B90D00E7B90D00C4
:104A400024BB0D0062BB0D00FFB90D00E9B90D00DC
:104A5000FEB90D005F42A2CD04BA0D0007BA0D00E9
:104A600010B5064C01F082F8204603F0EDFF204619
:104A7000034A0449BDE8104004F08EB99CE20320CB
:104A800030CE032059460D0038B50446012060742D
:104A900094F91000E56800EB800045F8201094F9C7
:104AA0001010E06801EB810100EB810181ED020A49
:104AB00094F91010E06801EB810100EB81014A607C
:104AC00094F91020E16802EB820201EB8202D360CC
:104AD00094F91030E26803EB830302EB8303049A3A
:104AE0001A61237C01335BB20A2B237408DDA37C9B
:104AF00023B103F081F8034902F04DFB0A2323742C
:104B000038BD00BF44BA0D0070B506460C4684B1EE
:104B1000E1683046FFF7F8FFE369A56823B104F1C7
:104B200014010322084698472046FFF7BAFA2C469C
:104B3000EDE770BDF0B58DB0044601A80D461746EF
:104B40001E4601F025FB03980130FFF7A8FA0199F2
:104B5000206005F0C5F82A4633463946E67405A8B4
:104B600000F070FDC82001F03BFBE06005A800F0FC
:104B700077FC0023606023740899A56006A8FFF7FE
:104B8000C3FF01A801F00BFF0DB0F0BD38B5002543
:104B9000044605744574FFF7CDFF204638BD00007C
:104BA000024B00221A7000F0E1BF00BFB8E2032000
:104BB0002DE9F0410446502023730D4616461F464A
:104BC00001F00EFBA0604FF48270FFF766FA80469A
:104BD00010B1294600F0BCFD237BC4F80080042BF3
:104BE0004FF014000CD0FFF758FA804620B13B4636
:104BF00032462946FFF7CAFFC4F80480BDE8F081B9
:104C0000FFF74BFA074620B1012332462946FFF74A
:104C1000BDFF6760BDE8F08110B500230446437313
:104C200083731346024AFFF7C3FF204610BD00BF3F
:104C300077BB0D0038B50446806801F0D9FA2568C5
:104C40003DB1284600F09CFD4FF48271284604F0E7
:104C5000B1F8204638BD30B4057B029C042D03D149
:104C6000006830BC00F094BD0294406830BCFFF78F
:104C70000BBF07B5002300931A46FFF7ECFF03B004
:104C80005DF804FB006800F049BE08B500F06EFF57
:104C9000BDE8084000F0EABF0175704770B50446F2
:104CA000142001F09DFA0646142001F099FA0546F9
:104CB000204605F038F8224600230238984217DDD6
:104CC00012F8011B0D2911D111780A290ED1517842
:104CD0000D290BD191780A2908D1191D14222144DC
:104CE000304605F03DF80023337501E00133E5E778
:104CF0000A21304604F0DCFF044600B30A210130EB
:104D000004F0D6FFD8B12146284604F0E9FF284632
:104D100005F009F82844002300F8013C284604F077
:104D20004BFF51EC100B04F0F7FE0446284601F04F
:104D30005FFA304601F05CFA00EE104A70BD9FED5C
:104D4000010A70BD5F42A2CD30B5074D0560002558
:104D5000057541F28835856183600525039B0577DC
:104D60004160C360026130BDA0BC0D002DE9F0417F
:104D700005460F46904600241B48E6B203F0D9FBD7
:104D800078BB2B7FB34201D8BDE8F0812B7DA3B166
:104D900002F032FF154902F0EBF902F02DFF39461F
:104DA00002F0E6F902F028FF114902F0E1F902F001
:104DB00023FF0A22314602F027FA00231FFA88F265
:104DC0003946094803F08CFC2B7D23B102F014FF17
:104DD000084902F0E0F94FF47A7002F093FA0134D6
:104DE000CAE7BDE8F08100BFBCE2032042B90D0074
:104DF00058B90D00ACBC0D0070B54D1E0C4601F548
:104E00002F7206462B46002103F8011F9342FBD167
:104E1000337D4BB102F0F0FE134902F0BCF902F011
:104E2000EBFE124902F0B7F904F2BA24104803F07D
:104E30006BFD40B9337DB3B102F0DEFE0D49BDE834
:104E4000704002F0A8B90A4803F007FC05F8010F0A
:104E5000337D2BB102F0D0FE036829789B68984718
:104E6000A542E3D1E6E770BDB3B90D009FB90D00CF
:104E7000BCE20320B2B90D0070B5054600240D4810
:104E800003F042FD064610B9AB699C4201DB0120EC
:104E900070BD012002F036FAAB6901349C42EEDBB2
:104EA000287D30B102F0A8FE034902F074F93046C3
:104EB00070BD70BDBCE203206CB90D00F8B50F46A3
:104EC0000269416804461D46FFF750FF784803F029
:104ED00030FB0646002800F0DC807649744802F07A
:104EE00047F93946724802F043F97349704802F0B5
:104EF0003FF972496E4802F03BF961686C4802F074
:104F000037F96F496A4802F033F96E49684802F090
:104F10002FF9A168664802F02BF96949644802F04C
:104F200027F96949624802F023F9E168604802F014
:104F30001FF963495E4802F01BF964495C4802F0BE
:104F400017F963495A4802F013F9284604F0EBFEBA
:104F500060490646564802F00BF90A223146544889
:104F600002F07EF95C49524802F002F929465048A5
:104F700002F0FEF852494E4802F0FAF84C4803F0AD
:104F8000D7FA237D002B69D002F036FE534902F098
:104F900002F902F031FE474902F0EAF802F02CFE75
:104FA000394602F0E5F802F027FE434902F0E0F846
:104FB00002F022FE414902F0DBF802F01DFE6168BA
:104FC00002F0D6F802F018FE3D4902F0D1F802F0E6
:104FD00013FE3C4902F0CCF802F00EFEA16802F08C
:104FE000C7F802F009FE364902F0C2F802F004FEEA
:104FF000354902F0BDF802F0FFFDE16802F0B8F8B3
:1050000002F0FAFD2E4902F0B3F802F0F5FD2F4947
:1050100002F0AEF802F0F0FD2D4902F0A9F802F01E
:10502000EBFD2C4902F0A4F802F0E6FD0A2231461D
:1050300002F016F902F0E0FD274902F099F802F0BB
:10504000DBFD294602F094F802F0D6FD1C4902F07F
:105050008FF802F0D1FD224902F09DF82046FFF7BB
:105060000BFF237D0BB901241DE002F0C5FD1D4996
:1050700002F091F80E4803F047FC0028F3D00C48EA
:1050800003F0EBFA044602F0B7FDE1B202F074F867
:10509000F0E7237D33B102F0AFFD134902F07BF856
:1050A000344600E01C46024803F016FC2046F8BDDA
:1050B000BCE20320BDBC0D00D5BC0D00E1BC0D0061
:1050C00005BE0D00E8BC0D00F5BC0D0004BD0D00D3
:1050D00018BD0D0039BD0D0003BE0D004ABD0D0009
:1050E00066BD0D0084BD0D00A0BD0D0070B52DED99
:1050F000028B044600230E4615464168684850223C
:1051000003F0EEFA204650226168FFF72FFE644854
:1051100003F00FFA002800F0B4806249604802F002
:1051200027F831465E4802F023F85F495C4802F0F8
:105130001FF829465A4802F01BF85C49584802F00B
:1051400017F85B49564802F013F85A49544802F0E0
:105150000FF80A225021524802F082F8564950486E
:1051600002F006F855494E4802F002F8A1684C4892
:1051700001F0FEFF50494A4801F0FAFF5049484803
:1051800001F0F6FFE168464801F0F2FF4A49444861
:1051900001F0EEFF4B49424801F0EAFF237D002B6E
:1051A00050D002F029FD3F4901F0E2FF02F024FD5A
:1051B000314601F0DDFF02F01FFD3B4901F0D8FF51
:1051C00002F01AFD294601F0D3FF02F015FD374920
:1051D00001F0CEFF02F010FD354901F0C9FF02F0E9
:1051E0000BFD344901F0C4FF02F006FD0A225021F4
:1051F00002F036F802F000FD2F4901F0B9FF02F08D
:10520000FBFC2E4901F0B4FF02F0F6FCA16801F0AE
:10521000AFFF02F0F1FC284901F0AAFF02F0ECFC1C
:10522000274901F0A5FF02F0E7FCE16801F0A0FFCB
:1052300002F0E2FC204901F09BFF02F0DDFC214975
:1052400001F096FF2046FFF717FE28B914489FED9E
:105250001E8A03F041FB1DE04FF42F7000F0C0FFE9
:10526000014605462046FFF7C7FD2846FFF716FD15
:105270000B48B0EE408A03F02FFB284600F0B8FF41
:1052800008E0237D002BE1D002F0B6FC0F4901F0CD
:1052900082FFDBE7B0EE480ABDEC028B70BD00BFB9
:1052A000BCE20320CABD0D00DFBD0D00E1BD0D0055
:1052B000D5BC0D00E1BC0D0005BE0D00E8BC0D0025
:1052C000F5BC0D00E5BD0D005F42A2CD08BE0D008E
:1052D00010B5064C00F04AFC204603F0B5FB204612
:1052E000034A0449BDE8104003F056BDBCE2032068
:1052F00030CE032059460D0003681847012A02D01A
:10530000022A02D004E0016002E00B6800B10360F1
:105310000020704713B51C20FEF7BFFE044648B1BD
:10532000064B07491B68009342F23432054B09686B
:10533000FFF7B6F9204602B010BD00BF10E303200E
:1053400014E3032026BB0D0013B52020FEF7A5FEB5
:10535000044640B1054B06491B6800935022054B9B
:105360000968FFF7F1FC204602B010BD10E30320EE
:1053700014E3032026BB0D0013B51C20FEF78DFEA1
:10538000044648B1064B07491B68009342F2343289
:10539000054B096800F0D8FA204602B010BD00BFE6
:1053A00010E3032014E3032026BB0D0013B51420E3
:1053B000FEF773FE044640B1054B06491B68009397
:1053C00000231A46096800F059FB204602B010BDC0
:1053D00010E3032014E3032010B5064B036064338D
:1053E0000446036101F045F8204601F06BFA2046BF
:1053F00010BD00BFB8C00D0010B586B00023044634
:10540000049321B10F4B05930F4B0291049302AB10
:1054100093E803008DE8030094E8030083E80300A9
:105420009DE80300049A84E80300A168A260059A3D
:1054300004911846E168E2600591FEF799FE204666
:1054400006B010BDF9520D00FD520D0010B5044616
:10545000FFF7C2FF20464C2103F0ACFC204610BDF4
:1054600070B500F10801C2680B464AB10478157C9A
:10547000A54236BFD46894681A4613462246F4E71C
:10548000994204D000781A7C904238BF0B46DA6902
:105490000AB903F05BFD1A6A03F11400BDE870401D
:1054A00010478B6870B5164604460D1D01225BB18E
:1054B00030781A7C904234BF9868D8681D4634BF53
:1054C000012200220346F2E732B1CA6895420AD0AF
:1054D000284603F0D6FC00E028463378027C9A4246
:1054E0004FF0000302D284E8280001E084E80900BC
:1054F000204670BD2DE9F743064624201F460C4682
:10550000FEF7CBFD3B6810F110081CBF1B7803743D
:1055100006F104071CBF0023C361A742054608D15A
:105520007369002B5CD03169037C0A7C9A423AD3C0
:1055300056E090F81090237C994517D2F368A34267
:10554000204611D003F09DFC037C4B4505D2C36877
:10555000002B14BF2046002406E068464246314630
:10556000FFF79FFF009C019801461AE02FD933698D
:10557000A34213D0204603F071FC037C4B4505D9B0
:10558000E368002B14BF0446002008E0684642464A
:105590003146FFF786FF9DE8110000E0002021461C
:1055A0000446A1B144B98F4206D0087C2B7C8342CB
:1055B0002CBF0020012000E001203B460A4629467E
:1055C00003F061FC736901337361284610E005F153
:1055D0001400FEF7CDFD2846FEF763FD204607E0E8
:1055E000314642466846FFF75CFF009C0199D8E7C8
:1055F00003B0BDE8F08300007FB5041D83680A4650
:1056000021464BB115781E7CAE4236BFDD689D68E1
:105610000B4619462B46F4E78C4203D014780B7CDA
:105620009C4208D204AB43F8042D02AA0092044A1B
:10563000FFF760FF014601F1140004B070BD00BF28
:105640002EBE0D002DE9F74304461D4689469046BF
:1056500000211022083004F0FAFA257002AD01236F
:1056600005F8013D04F10802261D00272261626150
:105670002946A7613046FFF7BFFF1549FFF7BCFE7B
:10568000294630468DF80770FFF7B6FF1149FFF73E
:10569000B3FE0223294630468DF80730FFF7ACFFF2
:1056A0000D49FFF7A9FE0323294630468DF8073040
:1056B000FFF7A2FF0949FFF79FFE094BC3F80090CF
:1056C000084B2046C3F8008003B0BDE8F08300BF5C
:1056D00015530D0049530D0079530D00AD530D00C6
:1056E00014E3032010E3032070B5104D104C114E4D
:1056F00000F03CFA284603F0A7F928460E4D224652
:10570000314603F049FB284603F09EF928460B4D2D
:105710002246314603F040FB284601F0B5F8224608
:1057200028460749BDE8704003F036BBF4E2032089
:1057300030CE032059460D00D8E2032018E30320A1
:10574000D9530D0000221146406800F0D1BC000082
:105750001FB50A4B04466846196000F019FD02980F
:105760000130FEF79CFC0099206004F0B9FA68460D
:1057700001F015F9204604B010BD00BF6CE3032012
:1057800010B50446006808B1FEF78DFC204610BD38
:105790002DE9F047A4B00646894610EE10AA1F4630
:1057A000DDF8B08015460BAC52B1104604F0BBFAE0
:1057B000642807D902F020FA1A4901F0ECFC01E054
:1057C000194900E02946204604F08AFA08AD2FB1B5
:1057D0003A461649284600F01BFD03E012492846C8
:1057E00004F07EFA07AFB8F1000F05D04246104929
:1057F000384600F00DFD03E00B49384604F070FA1E
:10580000504604970395029403F050FE0436CDE908
:1058100000014A460749304600F0FAFC24B0BDE8D2
:10582000F08700BF2FBE0D005EC30D00F0BA0D0063
:1058300071C50D0069BE0D0038B5114D41F28934B6
:105840000F48FFF77FFF034650B9013C08D00246DE
:105850000146686800F034FC012001F053FDEFE7D9
:105860000748FFF76FFF044638B9064B1B7823B192
:1058700002F0C2F9044901F08EFC204638BD00BF99
:105880002CE5032064E3032078BE0D00F8B506463E
:105890000B480C4615461F46FFF754FF18B939460A
:1058A0003046FFF7C9FF0648FFF74CFF38B12A46DC
:1058B0002146044802F05EFD003018BF0120F8BD0B
:1058C0002CE5032034E5032041F28833FFF7DEBFE7
:1058D00030B50579C3B0044613464DB90B4B187863
:1058E00090B102F089F90A4901F055FC28460BE015
:1058F000021D009202A80A46064900F089FC02AA8D
:1059000005492046FFF7E0FF43B030BD64E30320C4
:10591000B9BE0D006FBE0D0002BF0D000A46FFF7B5
:10592000D7BF000008B500F021F900F09FF9014B46
:10593000186008BD68E303209FED010A704700BFAF
:105940005F42A2CD0175704730B5064D0560002558
:105950000575836041F28835039B85614160C360B2
:10596000026130BD4CC00D0010B5064C00F0FEF8D1
:10597000204600F089FF2046034A0449BDE8104054
:1059800003F00ABA70E3032030CE0320D9530D0090
:1059900010B504464A68024903F0E6F8204610BDF7
:1059A00000E70320F0B58FB00146064602A81F4667
:1059B000FFF7EEFF02A802F081F8A0B9337D23B112
:1059C00002F01AF9254901F0E6FBF3230093372290
:1059D0003D23A92108A809AD02F094F80FCD03AC2E
:1059E0000FC42B682370002240F2BD211C4800F038
:1059F0007BFF002242F23431194800F0ECFC03AD89
:105A0000184B08930FCD09AC0FC42B6814482370B2
:105A100042F2343208A900F081FF68B167B138461C
:105A200004F081F9394602460D4800F030FD18B106
:105A30000B4800F08BFD58B9337D23B102F0DCF840
:105A4000094901F0A8FB064800F013FD002003E01F
:105A5000034800F00EFD01200FB0F0BD97BF0D0010
:105A600070E3032004C40D0023C00D009FED010A64
:105A7000704700BF5F42A2CD0174704710B5044C5F
:105A8000046083600024029B04744160C36010BD05
:105A900060C00D0070B5064600200C4600F0E2FA2A
:105AA00008B9002070BD002C03DD00F0DFF80546CA
:105AB00000E0002573783BB9002C07DD00F0D6F834
:105AC000401BA04202D3ECE7012070BD00F050FB68
:105AD000F0E730B585B01A46089B1B788DF800308A
:105AE00002A83C2301F00EFE029C00212046FFF795
:105AF000D1FF6378BFF35F8F33B100212046FFF7FA
:105B0000C9FF2378012B13D00025039C94B163684F
:105B1000013B636073B9236820469B689847A3687C
:105B2000013BA36033B923682046DB68984701E056
:105B3000257BEAE7284605B030BD00F017B800F035
:105B400015B800F013B800F011B8000008B5024B0A
:105B50001B689B68019308BD6802030008B5024BEF
:105B60001B68DB68019308BD6802030008B5024B9F
:105B70001B681B68019308BD2C02030008B5024B8B
:105B80001B685B68019308BD2C02030008B5024B3B
:105B90001B689B68019308BD2C02030008B5024BEB
:105BA0001B68DB68019308BD2C02030008B5024B9B
:105BB0001B681B69019308BD2C02030008B5024B4A
:105BC0001B681B6B019308BD2C02030008B5024B38
:105BD0001B68DB69019308BD3002030008B5024B66
:105BE0001B681B6A019308BD3002030008B5024B15
:105BF0001B681B69019308BD6C02030008B5024BCA
:105C00001B685B69019308BD6C02030008B5024B79
:105C10001B689B69019308BD6C02030008B5024B29
:105C20001B685B6D019308BD6C02030008B5024B55
:105C30001B689B6D019308BD6C02030008B5024B05
:105C40001B685B68019308BD1802030008B5024B8E
:105C50001B689B68019308BD1802030008B5024B3E
:105C60001B68DB68019308BD1802030008B5024BEE
:105C70001B685B69019308BD1802030008B5024B5D
:105C80001B689B6E019308BD3402030008B5024BEC
:105C90001B689B68019308BD7802030008B5024B9E
:105CA0001B681B6C019308BD7802030008B5034B09
:105CB0001B68D3F89830019308BD000078020300F8
:105CC00008B5034B1B68D3F8F030019308BD000002
:105CD0007802030008B5024B1B685B68019308BD9E
:105CE0004802030008B5024B1B689B68019308BD7E
:105CF0004802030008B5024B1B68DB68019308BD2E
:105D00004802030008B5024B1B681B69019308BDDC
:105D10004802030008B5024B1B685B69019308BD8C
:105D20004802030008B5024B1B68DB69019308BDFC
:105D30004802030008B5024B1B681B6A019308BDAB
:105D40004802030008B5024B1B685B6A019308BD5B
:105D50004802030008B5024B1B689B6A019308BD0B
:105D60004802030008B5024B1B68DB6A019308BDBB
:105D70004802030008B5024B1B681B6B019308BD6A
:105D80004802030008B5024B1B685B6C019308BD19
:105D90004802030008B5024B1B68DB6C019308BD89
:105DA0004802030008B5024B1B685B6D019308BDF8
:105DB0004802030008B5024B1B68DB6E019308BD67
:105DC0004802030008B5024B1B681B6F019308BD16
:105DD0004802030008B5024B1B685B69019308BDCC
:105DE0006402030008B5024B1B689B69019308BD60
:105DF0006402030008B5024B1B681B6A019308BDCF
:105E00006402030008B5024B1B685B6A019308BD7E
:105E10006402030008B5024B1B689B6A019308BD2E
:105E20006402030008B5024B1B681B68019308BDA0
:105E30003C02030008B5024B1B68DB68019308BDF8
:105E40003C02030008B5024B1B681B69019308BDA7
:105E50003C02030008B5024B1B685B69019308BD57
:105E60003C02030008B5024B1B689B69019308BD07
:105E70003C02030008B5024B1B68DB69019308BDB7
:105E80003C02030008B5024B1B681B6A019308BD66
:105E90003C02030008B5024B1B689B6A019308BDD6
:105EA0003C02030008B5024B1B681B6A019308BD46
:105EB0002802030008B5024B1B685B6A019308BD0A
:105EC0002802030008B5024B1B689B6A019308BDBA
:105ED0002802030008B5024B1B68DB6A019308BD6A
:105EE0002802030008B5024B1B681B6B019308BD19
:105EF0002802030008B5024B1B685B6B019308BDC9
:105F00002802030008B5024B1B681B6C019308BDF7
:105F10002802030008B5024B1B685B68019308BDAB
:105F20003802030008B5024B1B689B69019308BD4A
:105F30003802030008B5024B1B68DB69019308BDFA
:105F40003802030008B5024B1B681B6A019308BDA9
:105F50003802030008B5024B1B689B6A019308BD19
:105F60003802030008B5024B1B68DB6A019308BDC9
:105F70003802030008B5024B1B681B6B019308BD78
:105F80003802030008B5024B1B685B6B019308BD28
:105F90003802030008B5024B1B689B6B019308BDD8
:105FA0003802030008B5024B1B681B68019308BD4B
:105FB0004C02030008B5024B1B685B68019308BDE7
:105FC0004C02030008B5024B1B681B69019308BD16
:105FD0004C02030008B5024B1B685B69019308BDC6
:105FE0004C02030008B5024B1B689B69019308BD76
:105FF0004C02030008B5024B1B68DB69019308BD26
:106000004C02030008B5024B1B681B6A019308BDD4
:106010004C02030008B5024B1B685B6B019308BD83
:106020006002030008B5024B1B681B6D019308BD9D
:106030006002030008B5024B1B685B68019308BD52
:106040002002030008B5024B1B685B69019308BD81
:106050002002030008B5024B1B68DB6A019308BDF0
:106060002002030008B5024B1B68DB6C019308BDDE
:106070002002030008B5024B1B685B6D019308BD4D
:106080002002030008B5034B1B68D3F88830019346
:1060900008BD00002002030008B5034B1B68D3F8BD
:1060A0009430019308BD00002002030008B5034BA3
:1060B0001B68D3F8A430019308BD00002002030040
:1060C00008B5024B1B685B68019308BD40020300E2
:1060D00008B5024B1B689B68019308BD4002030092
:1060E00008B5024B1B68DB68019308BD4002030042
:1060F00008B5024B1B681B69019308BD40020300F1
:1061000008B5024B1B685B69019308BD40020300A0
:1061100008B5024B1B689B69019308BD4002030050
:1061200008B5024B1B68DB69019308BD4002030000
:1061300008B5024B1B681B6A019308BD40020300AF
:1061400008B5024B1B681B6B019308BD400203009E
:1061500008B5024B1B685B6B019308BD400203004E
:1061600008B5024B1B685B68019308BD440203003D
:1061700008B5024B1B689B68019308BD44020300ED
:1061800008B5024B1B685B69019308BD440203001C
:1061900008B5024B1B68DB69019308BD440203008C
:1061A00008B5024B1B681B6A019308BD440203003B
:1061B00008B5024B1B685B6A019308BD44020300EB
:1061C00008B5024B1B689B6B019308BD440203009A
:1061D00008B5024B1B68DB6B019308BD440203004A
:1061E00008B5024B1B681B68019308BD1C02030025
:1061F00008B5024B1B685B68019308BD1C020300D5
:1062000008B5024B1B689B68019308BD1C02030084
:1062100008B5024B1B68DB68019308BD1C02030034
:1062200008B5024B1B685B6A019308BD1C020300A2
:1062300008B5024B1B68DB6A019308BD1C02030012
:1062400008B5024B1B681B6B019308BD1C020300C1
:1062500008B5024B1B68DB6B019308BD1C020300F1
:10626000002211464068FFF763BF002211464068D4
:10627000FFF76EBF00224068FFF762BF002281F087
:1062800001014068FFF74CBF00231A4619464068D9
:10629000FFF73EBF00231A4619464068FFF730BF9C
:1062A000002211464068FFF723BF002211464068D4
:1062B000FFF70EBF002202214068FFF711BF002345
:1062C0001A464068FFF7FCBE024B03225A60024A9E
:1062D0001A607047BCE3032074C00D00704710B50E
:1062E0001021044602F066FD204610BD70B5084B33
:1062F0000360044600250E4640F80C5FFFF73AFDA8
:1063000030462671FFF762FCA560204670BD00BFD5
:10631000A8C00D000079FFF761BC014600228C2067
:10632000FFF7ACBC0020FFF7F8BF0000044B0020D3
:106330004FF6FF72187058809A80FFF77BBE00BF3F
:10634000C4E3032010B40468246BA4465DF8044B36
:10635000604703689B6C1847808E7047028FC08E21
:10636000101A704713B502AB026803F8011DD46818
:1063700019460122A04702B010BD10B503681B6981
:106380000446984728B1E38EE26B591CE186D05C45
:1063900010BD4FF0FF3010BD10B503681B690446F7
:1063A000984718B1E38EE26BD05C10BD4FF0FF3020
:1063B00010BD704710B403460846DC6BD98E1A8FA7
:1063C0000368521ADB6821445DF8044B1847A0F1BA
:1063D0001000FFF7EFBFF0B503688DB01C265B6AB5
:1063E00004460F461546984701233246002105A86A
:1063F000029303F02CFC8DF8146038460A268DF8C1
:106400001560FFF707FD1122ADF816000221304696
:10641000FFF7C0FD0028606124DB0422009202AB7C
:1064200040F6FF71FFF77EFDE0B995B10390ADF83E
:10643000100003A9E8B2FFF7E1FB98B90623009327
:1064400041F20B0203AB40F6FF716069FFF76AFD92
:1064500040B91C2205A96069FFF75CFD10B96564AD
:10646000012004E0236820465B6A984700200DB0B5
:10647000F0BD10B504464069002801DBFFF75AFD66
:106480004FF0FF3363610023E386238710BD38B5E7
:10649000C36B0546C08E13B12C6C241A00E01C4659
:1064A000944228BF14462246184403F0AAFBEB8E00
:1064B0002344EB86204638BD70B503681B6904464B
:1064C0000E461546984788B1236820461B699847B1
:1064D000E38EE16B8542A8BF054619442A46304643
:1064E00003F08FFBE38E2B44E38601E04FF0FF3592
:1064F000284670BD70B50446054B44F8043B01F1D5
:10650000200506460FCD0FC42B682370304670BDA2
:1065100004C40D00F0B59446026889B0976A0A4A2F
:1065200002921D1D8E4606460FCD03AC0FC42B688C
:106530002370BDF838300093624602AB7146304696
:10654000B84709B0F0BD00BF04C40D00F0B5036842
:10655000B0F836E09F6A0D4B89B000F12006044682
:1065600002930FCE03AD0FC533682B70A38E00933B
:10657000724602ABE16B2046B84723680546DB69EB
:1065800020469847284609B0F0BD00BF04C40D005E
:10659000F0B54378022B8DB005460C46174601D165
:1065A000011D33E00A2B35D11122002101A803F08F
:1065B0004EFBAB6843B9EB6833B94FF6FF702E69F9
:1065C000FFF718FC86421FD005F1080301AE05F164
:1065D000180E18685968324603C2083373451646C8
:1065E000F7D1062301A906A807AE8DF8143001F0F3
:1065F00053FA0FCE04340FC43368237057B1688840
:10660000FFF700FC388005E005F11401204601F099
:1066100085FAF3E70DB0F0BD2DE9F0418EB00EAB79
:10662000002506461746084643F8345D2A462946A3
:10663000FFF794FA00281FDB019BFBB15B69EBB10C
:1066400002A801F01BFA019B2A46586902A9FFF72C
:106650009FFF02A801F032FA80B1336803ADD3F88E
:1066600038800B4B08930FCD09AC0FC42B682370F7
:106670003A4608A93046C047044601E04FF0FF34CF
:106680000198FFF763FA20460EB0BDE8F08100BF25
:1066900004C40D002DE9F047D0F81480B8F1000FC4
:1066A0008CB005460C461746994600DB11B94FF0F1
:1066B000FF3035E04FF01C0A05AE5246002130464F
:1066C00003F0C5FACDF808A0B9F1000F14D04FF4CB
:1066D0007A72B9FBF2F1039102FB11914A4308234C
:1066E0000492009341F2060203AB40F6FF7140466C
:1066F000FFF718FC08B113E0082002AB0193214614
:10670000034600963A466869FFF72CFC041E06DB38
:1067100005F1340205F11C013046FFF739FF204630
:106720000CB0BDE8F08738B5054614462B7D062B26
:10673000084611D11C2313700A235370FFF76AFB1C
:10674000083424F8060C2B1D143553F8042B44F898
:10675000042BAB42F9D138BD042B0AD1102313709E
:1067600002235370FFF756FB60806868FFF742FB17
:10677000606038BD2DE9F0438BB003AC1C25994611
:1067800006460F46904600212A46204603F05FFA4F
:106790002246BDF848104846FFF7C5FF9DF80D306A
:1067A00043B18DE830000023424639467069FFF757
:1067B000E9FB01E04FF0FF300BB0BDE8F083F0B52E
:1067C00091B00C4606460021154609A81C221F461A
:1067D00003F03DFA09AA00212046FFF7A4FF9DF827
:1067E0002530022B2ED1002305930A9B0493DDB1A3
:1067F00002A92846FFF70AFAB0B910A941F8340DEA
:106800000298FFF70BFA60B9039B53B1DA6812687C
:106810005178022903D152680AB1059201E01B6840
:10682000F3E70398FFF702FA002F4FF008030093F5
:1068300018BF032204AB08BF042200213046FFF733
:1068400071FB1EE00A2B1AD104AC14220021204651
:1068500003F0FDF90BAB0FCB002F84E80F004FF0D6
:106860001403009318BF0C22234608BF0D222921D0
:1068700030460895FFF756FB00EAE07001E04FF064
:10688000FF3011B0F0BD000038B54FF47A7383606B
:106890000B4B03F108026C33002503614FF0FF330B
:1068A00004464560026043611C3001F0E7F84FF494
:1068B0000073E5862587E56323646564204638BD5B
:1068C000B0C00D0010B590F84830044623B1C06B3D
:1068D00010B1012102F06EFA0023E36384F848301E
:1068E0002364E386238710BD70B5044616460D4623
:1068F000FFF7E8FF0023E66323643EB935B128467D
:10690000FDF7CDFB0123E06384F84830E36B03B16E
:106910002564206C003018BF012070BDF8B5174603
:10692000C26B05460C461AB9016C09B1FFF7DCFFD2
:1069300004340FCC05F120060FC623683370002302
:10694000AF86EB862B87286CF8BD70B5C26B04460A
:106950000E461AB9016C09B1FFF7C6FFE16B0022C0
:10696000E286228749B1226C3AB1236820461D6B2A
:106970003346A8470028C8BF2087236820461B69E4
:10698000BDE87040184702464069002804DB012337
:1069900092F84420FFF713BF4FF0FF30704710B557
:1069A00004460068FFF724FC204610BD10B50446DD
:1069B000006808B1FFF71CFC00232360A36063603C
:1069C00010BD38B504460D4600680131FFF718FCCC
:1069D00010B184E82100012038BD10B503680446D9
:1069E00013B143688B4207D22046FFF7EAFF20B17C
:1069F000A3680BB922681370012010BD70B50E4654
:106A0000114604461546FFF7E8FF18B92046FFF780
:106A1000CDFF09E02A463146A560206803F0F1F871
:106A20002268A3680021D154204670BD38B50023E8
:106A3000044603604360836003730D4639B1084622
:106A400003F071F9294602462046FFF7D7FF20469A
:106A500038BD884210B50B46044607D0096819B105
:106A60009A68FFF7CBFF01E0FFF7A0FF204610BDBB
:106A700010B5002304460360436083600373FFF78F
:106A8000E8FF204610BD00000EB4FFB509AC054676
:106A900054F8047B019423463A46052102A8FFF7E7
:106AA000BFFB0C4906462846FFF7C0FF3146284683
:106AB000FFF793FF286830B123463A46711C0194D2
:106AC000FFF7AEFBA860284604B0BDE8F04003B075
:106AD000704700BF07BE0D0070470020704710B51B
:106AE0001421044602F066F9204610BDFDF7D9BA1C
:106AF00008B50A20024A0021FFF78CFA08BD00BF42
:106B00005D5C0D0010B500230370044B044618684B
:106B1000FFF740F901232370204610BDD4E3032082
:106B200010B5037804461BB1024B1868FFF73AF919
:106B3000204610BDD4E3032000220260426070476B
:106B400008B582798B799A4206D1062203F04AF879
:106B5000B0FA80F0400908BD002008BDF0B58BB147
:106B60000024E51C8D420FD8661C055D875D9742A9
:106B700005D12E44B14207D31C60681CF0BD01351D
:106B80002C44EEE71846F0BD0020F0BD2DE9F74398
:106B900004460E461D461746002A3AD00A4601AB67
:106BA000016AFFF7DBFF9DF82830226A03BBF8B1CA
:106BB000961C2E44361A1F2E2BD8DDF8048008F1BF
:106BC0000209C8EB0202121A00EB080105EB0900EA
:106BD00092B22144204403F01FF86B1C04F80830E3
:106BE0002A46394604EB090003F00BF8266210E050
:106BF000901C2B181F2B0CD86B1CA3542244206212
:106C00003946567020442A4602F0FBFF226A2A4485
:106C10002262206A03B0BDE8F0831FB50446034634
:106C200000F11F02002003F8010B93424FF0000116
:106C3000F9D104AA062302F8013D01232162009143
:106C400020461946FFF7A2FF204604B010BD10B53C
:106C50008369C26903EBC2029342184606D00468F6
:106C600024888C4203F10803F6D110BD002010BD2A
:106C700010B50A6852F8023F03605368436010BDC4
:106C80001FB502680B6812881B889A420C460CD10B
:106C900001466846FFF7ECFF214602A8FFF7E8FF30
:106CA00002A96846FFF74CFF00B9002004B010BDF0
:106CB00010B504463420FDF7F0F9014668B1002311
:106CC000036043608360C360036143618361C361A8
:106CD000036243628362C3620363216019B90A4A93
:106CE0000A20FFF797F90020FEF7D0FF20B1064AEF
:106CF00000210A20FFF78EF9002221680348FEF7E1
:106D0000DFFF204610BD00BF5D5C0D00CD6F0D00A4
:106D100010B50A4C2368DB070ED42046FDF7C5F9F1
:106D200050B10748FFF7C4FF2046FDF7C3F9054AF5
:106D30000549034802F030F8014810BDD0E30320B4
:106D4000CCE3032030CE0320E16D0D0013B50C46DB
:106D500001A8FFF7D7FE00212046FEF79FFF04465B
:106D600001A8FFF7DDFE204602B010BD0B680360EE
:106D700013B15A6801325A60704770B504684368AD
:106D8000054604EBC306A64204D0201DFDF7AEFA6B
:106D90000834F8E72868FFF72BFA284670BD70B56D
:106DA00004684368054604EBC306A64204D0201DD0
:106DB000FDF79CFA0834F8E72868FFF719FA284627
:106DC00070BD10B5046904F11800FFF7E8FF04F185
:106DD0000C00FFF7D2FF2046BDE81040FDF761B977
:106DE000F8B504680746C4B1A569E36905EBC306B5
:106DF000AE4204D0281DFDF779FA0835F8E7A069FE
:106E0000FFF7F6F904F10C00FFF7C9FF2046FFF782
:106E1000B4FF3421204601F0CDFF3846F8BD000014
:106E200073B500250560456006462420FDF735F959
:106E3000044678B103464FF6FF7223F8022BC0F8E0
:106E400002505D608572C572C560056145618561EE
:106E5000C5610562002314200193FDF71EF9034666
:106E600028B1012242608260084A0260046102A8DF
:106E7000726840F8042D73603460FDF737FA3368A8
:106E80000BB9FFF735FE304602B070BD28C10D00CA
:106E9000884270B515461AD9904219D2A1F1080658
:106EA000511A0439151F44182B1F9E4225D0042C5B
:106EB00007D055F8043C44F8043C29462046FFF727
:106EC00055FF2846FDF712FA083D083CECE714D0C0
:106ED0000C1D061D231F9D420FD0042E07D054F811
:106EE000043C46F8043C21463046FFF73FFF20466D
:106EF000FDF7FCF908340836ECE770BD2DE9F041E8
:106F0000046843680546884604EBC307A74218D0C7
:106F100041462046FFF7B4FE064608B90834F5E7B7
:106F20008CB1201DFDF7E2F92B686A6804F10801B5
:106F300003EBC2022046FFF7ABFF6B68013B6B60BF
:106F400002E0002600E026463046BDE8F081F7B5B5
:106F5000044651F8043B4768009301A8FFF706FF79
:106F60006668A3689E4214DB0136002E0BDDF0003C
:106F7000FFF736F9054618B394E8060001EBC202A4
:106F8000FFF786FF00E000252068FFF731F9256054
:106F9000A6602668626806EBC70506EBC2022946B2
:106FA00005F10800FFF774FF35B1009B46F8373054
:106FB00001A9281DFFF7DAFE63680133636001252C
:106FC00001A8FDF793F9284603B0F0BD2DE9F04183
:106FD00004468EB003A80D46FFF794FD2368032BEB
:106FE00002D0042B42D087E004A8FFF719FF049BCE
:106FF00022891A806268049952F8083FC1F8023069
:107000005368C1F8063007A8049B069305A9FFF74B
:10701000ADFE06A905F11800FFF799FF044607A881
:10702000FDF764F92023069374B9364B009306AA42
:107030002346354907943220FEF7F4FF049B21468E
:107040001888FEF733FE0DE0304A0092002306AAAE
:107050002D4907930120FEF7E5FF6B6A13B1E96A3A
:1070600004A8984705A8FDF741F945E0218928467D
:10707000FFF7EDFD074600283ED00468A369E169EB
:107080004FF6FF72228003EBC101994203D053F8FF
:10709000080B4280F9E7E668236906EBC308B045B0
:1070A00004D0301DFDF722F90836F8E700232361EC
:1070B000A669E36906EBC308B04504D0301DFDF7AF
:1070C00015F90836F8E70023E361A372E372AB6AAF
:1070D00013B1296B3846984720230D4A0693009236
:1070E000002309490793012006AAFEF79BFF3946B2
:1070F00005F11800FFF702FF03A8FFF711FD0EB01E
:10710000BDE8F0819EC10D003CC10D00C4C10D0061
:10711000E1C10D00024800230360FEF733BE00BF4B
:10712000D4E30320F8B506460D468F180024BD426F
:107130000CD0336815F8011B9B683046984700282F
:1071400001DB0444F3E7002C08BF04462046F8BDE9
:1071500070B505460C46084649B102F0E4FD2B68BF
:10716000024621462846DB68BDE87040184770BDDE
:1071700008B5FFF7EDFF08BD03689B68184738B5F1
:107180000D210546FFF7F8FF0A2104462846FFF7C0
:10719000F3FF204438BD38B50546FFF7D9FF044654
:1071A0002846FFF7ECFF204438BD30B58BB00B46C6
:1071B00000218DF82410012A98BF0A220DF1230422
:1071C000B3FBF2F505FB123303F0FF03092B94BF69
:1071D00030333733DBB2214604F801392B46002D1A
:1071E000EED1FFF7B5FF0BB030BD10B42AB903687C
:1071F0005DF8044B9B68C9B21847D2B25DF8044BE6
:10720000FFF7D3BFFFF7F1BF38B50546FFF7EDFF36
:1072100004462846FFF7B3FF204438BD2DE9F0416E
:1072200007460E4615462AB90368C9B29B68BDE8F1
:10723000F04118470A2A02D1002901DA04E0D2B24B
:10724000BDE8F041FFF7B1BF2D21FFF795FF2A46BA
:10725000044671423846FFF7A8FF2044BDE8F0819C
:10726000FFF7DCBF0CB42DE9F04387B000AF07F1A6
:107270003804054654F8049B3C600E4623464A46B3
:107280001421381DFEF7CCFF132805D8391D2846D8
:10729000FFF75EFF044613E000F1080323F0070345
:1072A000E846ADEB030D411C23464A4668463C6068
:1072B000FEF7B6FF69462846FFF74AFF0446C54673
:1072C0001EB12846FFF75BFF044420461C37BD462D
:1072D000BDE8F04302B070470068FEF75BBD0000F8
:1072E000014B024A1A607047D8E303204FC30D00D8
:1072F000024B1A68024B1A60704700BF90CD032002
:10730000DCE303200021FEF79DBE10B50446FCF728
:107310002FFF204610BD13B50B46044603C88DE869
:10732000030093E8030084E803009DE8030083E87A
:10733000030002B010BD00000348044A04490023C2
:10734000836001F029BD00BFE0E3032030CE0320BD
:107350000B730D0008B50C4B33B100F04DFC036806
:107360001B699847002809DC084B63B100F0C6FC94
:1073700003681B699847002803DC08BDAFF3008051
:10738000F2E7AFF3008008BD00000000000000003D
:1073900008B5FFF7DFFFFEF769FC014B186008BD79
:1073A00030E7032007B5002300931A466FF07701FA
:1073B000FEF772FE03B05DF804FB000007B54388DA
:1073C0000A2B08D0502B09D1094B1B683BB103B0E5
:1073D0005DF804EB1847FFF7E5FF06E00023009394
:1073E0001A466FF07701FEF757FE03B05DF804FB15
:1073F000F0E3032010B5FEF721FC044602F030FC58
:10740000074B13B12046AFF3008000210448FEF77C
:10741000DFFE00210348BDE81040FEF733BE00BF89
:1074200000000000BD730D0070470020704710B5CC
:107430001021044601F0BEFC204610BD08B508B17D
:10744000FFF7F5FF08BD0022026010B54FF69C72F1
:107450008280B1F9044084808A8002680C680460EC
:107460000A6010BD10B504460068FEF7C1FE204654
:1074700010BD38B5C468F4B12378022B03D104F1F0
:107480000C00FFF7EFFF656835B12846FCF770FE8A
:107490001021284601F08EFCA56835B12846FCF77E
:1074A00067FE1021284601F085FC20461421BDE826
:1074B000384001F07FBC38BD10B588B0044668463E
:1074C000FFF7B4FA694604A8FFF7D2FA04A8A04768
:1074D000044604A8FFF763FA6846FFF760FA2046FF
:1074E00008B010BDF0B5102485B007460E4615460D
:1074F00000212246684602F0AAFB00226946104697
:10750000ADF80040029703960195FEF729FE05B0FD
:10751000F0BD13B5044691E8050000234B600B60F5
:107520002060626001A801930093FCF7DFFE204613
:1075300002B010BDF7B50C4602AD54F8043B45F857
:10754000083D06460F4601A82146FFF70FFC2946D5
:107550003046FFF7DEFF01A8FCF7C8FE2046FCF727
:10756000C5FE3846082101F025FC304603B0F0BDC9
:1075700038B500230446036010200D46FCF78DFD4E
:1075800028B1012343608360024B0360C560206023
:10759000204638BDE8C30D00826810B50AB901F075
:1075A000D5FCC368BDE81040184708B5006800F175
:1075B0001001FFF7F1FF08BD826810B50AB901F0AC
:1075C000C5FCC368BDE81040184708B5006800F165
:1075D0001001FFF7F1FF08BD38B5002383608B6809
:1075E00004460D462BB102229847EB68E360AB6876
:1075F000A360204638BD0000F0B589B00468684635
:10760000FFF721FF00238DF808304FF00202D4E885
:107610004F3F002B03D1C4E8412F0029F7D102D0FE
:107620008DF8083063E014F10C0503D06946284654
:10763000FFF709FFBFF35F8F01236370002004F1A0
:107640000803BFF35F8F53E8006F43E80002002A8E
:10765000F9D1BFF35F8F002E49D0FEF703FD20B1B3
:1076600029463046FFF798FF3AE0314602A8FFF777
:10767000B3FFE068B4F9105008B102F039FB06908E
:107680001020ADF81C50FCF708FD0546E8B10027B6
:1076900087601820FCF701FD044688B10146876029
:1076A00002A8FFF738FE049BA268A360059B049222
:1076B00006A9E268E36004F110000592FFF7C3FE3B
:1076C0000D4BEB600D4B2C60AB6006A8FFF7CAFEBC
:1076D00002A8FCF74DFD002229460948FEF7CAFC26
:1076E0003046FCF745FD1021304601F063FB68464B
:1076F000FFF7B8FE09B0F0BDAB750D0021780D00A5
:10770000497D0D002DE9F04F8BB006460F4690469F
:1077100099469DF850A0FEF733FD07AD834630BB78
:107720004FF62E73059005A92846ADF81830FFF7DF
:107730008AFE1420FCF7B1FC044658B10223037002
:1077400001234370C0F804B0C0F808B029460C30DB
:10775000FFF779FE3046214640F8044BFFF708FF5B
:107760002846FFF77FFE05A8FFF77CFE52E00024C5
:107770000C2314206C60AC600793FCF78EFC014670
:1077800018B1047044704460846004A80391FFF74A
:10779000EFFE224B08930820FCF77FFC044628B13B
:1077A000039B40F8043B04A9FFF7E0FA00955FFA59
:1077B0008AF34A46414638460994FEF7F1FC20B95F
:1077C000039B5B7803F0FF0283B1039B059304A93D
:1077D00006A8FFF7CBFA05A93046FFF79AFE06A8E0
:1077E000FCF784FD04A8FCF781FD13E04FF69C73C1
:1077F00005A903A80592ADF81830FFF7FDFE05A80E
:10780000FFF730FE05A80999FFF794FE06A8FCF7DC
:107810006DFDDAE730460BB0BDE8F08F91790D00D1
:10782000022AF8B5044606D0032A17D0012A22D12D
:107830000B6803601FE018200E68FCF72EFC05465D
:1078400050B13146FFF7C8FE3069B6F9147008B17F
:1078500002F04EFA2861AF8225600CE0046854B152
:1078600004F11000FFF7FEFD2046FCF781FC182113
:10787000204601F09FFA0020F8BD38B50023836050
:107880008B6804460D462BB102229847EB68E360F3
:10789000AB68A360204638BD022A70B5044606D006
:1078A000032A11D0012A18D10B68036015E01420B7
:1078B0000E68FCF7F2FB054620B13146FFF7DDFF0D
:1078C000337C2B74256008E0046834B12046FCF753
:1078D0004FFC1421204601F06DFA002070BD00001D
:1078E000F0B5002387B00C46BFF35F8F50E8006F00
:1078F00040E80032002AF9D1BFF35F8F002E3FD05D
:107900001846FEF7AFFB074620B121463046FFF789
:1079100053FE2EE0314601A8FFF7AFFF23788DF824
:1079200014301020FCF7B9FB0546D0B18760142055
:10793000FCF7B3FB044678B18760014601A8FFF766
:10794000EAFC039BA268A360049B0392E268E360E5
:107950009DF81430049223740A4BEB600A4B2C60A0
:10796000AB6001A8FCF704FC002229460748FEF79B
:1079700081FB3046FCF7FCFB1021304601F01AFA7F
:1079800007B0F0BDCB750D0099780D00497D0D0055
:1079900030B585B004460D4668461146FFF7CAFD6E
:1079A0007CB124B228460DB102F0A2F9029002A9DE
:1079B0006846ADF80C40FFF71FFE02A8FFF752FD26
:1079C0001DE000988DF808404FF00102D0E84F3FCD
:1079D000A34203D1C0E8412F0029F7D102D08DF88E
:1079E00008300CE010F10C014FF0010318BF0373D5
:1079F000BFF35F8F043000F8033CFFF771FF01A86D
:107A0000FCF774FC05B030BD704710B51821044672
:107A100001F0D0F9204610BDF0B5037D062B8DB0E6
:107A20000E4600F104074FF0000402D000F10805F3
:107A300018E00CAD394605F8304D2F232A460A20B0
:107A4000FEF7C8F9284602F06EF933680246DB6893
:107A50002946304698470FE024B12E213046FFF7E3
:107A60008BFB044415F8011D0A223046FFF7CAFBC0
:107A7000BD420444F0D120460DB0F0BD10B5054B19
:107A80000446112240F8043B002102F0E0F82046B1
:107A900010BD00BF04C40D000346074A10B543F8EB
:107AA000042B01F1100251F8044B43F8044B9142AE
:107AB000F9D10A781A7010BD04C40D00037D042B9F
:107AC00001D1406808E0062B0AD1436853B98368A6
:107AD00043B9C36833B90069003018BF012070474B
:107AE000002070470120704710B59DF8084044EA17
:107AF000032343EA024242EA016104234160037521
:107B000010BD000037B5044D05609DF81850009574
:107B1000FFF7EAFF03B030BD04C40D0037B50D78A0
:107B20008B784A78C97800912946FFF7DDFF03B0CA
:107B300030BD41747047704708B50021007CFEF7E6
:107B400051FA30EA200028BF4FF0FF3008BD08B5D9
:107B50000121007CFEF746FA30EA200028BF4FF0F2
:107B6000FF3008BD08B5007CFEF734FA20EAE0706B
:107B700008BD08B5007CFEF725FA20EAE07008BDD4
:107B8000007CFEF73FBA10B51421044601F012F94B
:107B9000204610BD38B50446007C0D46FEF71AFAA3
:107BA000002801DC607C28B12946207CFEF722FAFF
:107BB00020EAE07038BD000010B504460023636081
:107BC0004FF47A73A360054B2360012308462174A8
:107BD00063741146FEF7E6F9204610BD18C40D0087
:107BE0000022007CFEF7E6B910B5142204460021FD
:107BF00002F02DF8204610BD30B50E4D87B001A81B
:107C0000FFF7F2FF296811F0010410D12846FCF7B4
:107C10004CFA60B101AA21460748FFF7CDFF28467C
:107C2000FCF748FA054A0649034801F0B5F802484E
:107C300007B030BDF4E30320F8E3032030CE032087
:107C4000377B0D0070474174704708B5007CFEF724
:107C500021F920EAE07008BD08B5007CFEF7F2F8D3
:107C600020EAE07008BD08B5007CFEF7FBF830EABA
:107C7000200028BF4FF0FF3008BD08B5007CFEF79C
:107C8000E9F830EA200028BF4FF0FF3008BD007C43
:107C9000FEF7F0B810B51421044601F08BF8204629
:107CA00010BD70B5457C04460E4625B9007CFEF734
:107CB000F1F8002805DD3146207CBDE87040FEF774
:107CC000B9B8284670BD000010B5044608461146F4
:107CD000002262604FF47A72A260054A226001229B
:107CE000207462741A46FEF79DF8204610BD00BF4E
:107CF00048C40D00007CFEF7C5B8000038B50C4D37
:107D0000296811F0010411D12846FCF7CEF968B1B9
:107D1000084A094B09482146FFF7D6FF2846FCF7D9
:107D2000C9F9074A0749054801F036F8034838BD44
:107D3000A4E40320A8E4032020E403200CE40320AF
:107D400030CE0320457C0D0010B5836804460BB986
:107D500001F0FCF8C3689847A3681BB103222146D1
:107D60002046984720461021BDE8104001F022B877
:107D70007047F8B5064615460C468F18BC4206D02B
:107D8000336814F8011B9B6830469847F6E728468D
:107D9000F8BD0022007CFEF785B80021007CFEF7CC
:107DA00089B80021007CFEF78DB80021007CFEF729
:107DB00091B80021007CFEF795B810B51421044657
:107DC00000F0F8FF204610BD10B504464FF47A735A
:107DD0000846A3600021044B207461602360FEF715
:107DE00091F8204610BD00BF78C40D000021007C32
:107DF000FEF780B810B501230374836804460BB105
:107E0000C06806E0006828B183680BB901F09EF8ED
:107E1000C3689847012363740020BDE81040FDF754
:107E2000C9BF002211464068FEF782B90022114600
:107E30004068FEF78DB900224068FEF781B9002244
:107E400081F001014068FEF76BB900231A46012159
:107E50004068FEF75DB900231A4619464068FEF7F0
:107E60004FB9002211464068FEF732B900220221C4
:107E70004068FEF735B900231A464068FEF720B97E
:107E800038B5054688B104684CB1A3681BB103221C
:107E90002146204698471021204600F08BFF2846B7
:107EA0001421BDE8384000F085BF38BD10B103682B
:107EB0005B681847704710B503680446BBB1586843
:107EC000FDF710FF78B923685A7C12B95868FDF79E
:107ED00019FF23685868FDF71DFF20680023236001
:107EE00028B1FFF7CDFF206808B1FFF7C9FF204692
:107EF00010BD000038B50C4B03600446D0F8CC012F
:107F000008B1FCF7D0F8D4F8C45135B12846FFF7D2
:107F1000D2FF0421284600F04DFFA06808B1FFF70A
:107F2000C5FF204638BD00BFA0C40D002DE9F84FA5
:107F30000B9F9DF828B00646884691469A4604460F
:107F40000025236C4B4529D1636C534526D194F809
:107F500048305B4522D14021404601F014FF4146A4
:107F60000246204601F0E7FEC0B96FB10C21384649
:107F700001F009FF024638B1582303FB056039467A
:107F8000493001F0D8FE04E0582000FB056595F863
:107F90004900B0FA80F04009BDE8F88F0135052DA1
:107FA00004F15804CDD10020BDE8F88F2DE9F04F41
:107FB00085B007469DF838A00F9E0196CDF800A029
:107FC000894602920393FFF7B1FF00283CD1044693
:107FD000582303FB0475D5F84080B8F1000F2ED16B
:107FE0004021484601F0CFFE4946834602462846D6
:107FF00001F007FECBF14002414605EB0B0001F01A
:1080000026FE029B2B64039B6B6485F849802EB18E
:108010000C21304601F0B7FE054600E035465820F9
:10802000444338193C442A4631464930254401F03E
:10803000E8FD002085F8490084F848A005E00134F7
:10804000052CC6D1024800E0002005B0BDE8F08F45
:10805000FCFEFFFF07B5002301930093FFF7A6FF87
:1080600003B05DF804FB2DE9F341044608460D46D4
:10807000904601F058FE04F5DC760746236CABB160
:108080004021204601F07FFE874202460BD329465D
:10809000204601F0A7FD30B9009043462A4621460C
:1080A0005820FEF703F85834B442E7D102B0BDE8D7
:1080B000F081000030B58DB004461122002101A8E6
:1080C00001F0C5FD062301AA09498DF814300A20E4
:1080D000FDF788FE07AD01A906A8FFF7DDFC0FCD6F
:1080E00004340FC42B68237000200DB030BD00BFD6
:1080F000CCC40D002DE9F041054600F5E0768AB0CC
:108100003046FFF7E9F82C68D5F8C001FDF74AFEC4
:10811000002C63D0D5F8C43163B12368D5F8C411FD
:108120001F6B20464FF47A734FF49A62B847041ECF
:1081300013DC56E02D494FF49A6000F03DFED5F86F
:10814000C431C5F8C40113B11846FBF7ACFFD5F82C
:10815000C431002BE1D1264844E02023254A029374
:1081600000920023019402AA234903930120FDF702
:1081700059FFD5F8C4315F1C1B786BBB013C21460D
:10818000384601F000FE38B3241A002C07EB000833
:1081900022DD3B5C03BB013C0ED008F10108214607
:1081A000404601F0F0FD241A002C15DD18F80030CF
:1081B00093B9012C02D00FE0DFF844803046FFF77E
:1081C0008BF842463946281DFFF74DFFD5F8C00110
:1081D000FDF7E8FD002005E0084803E06420FDF716
:1081E00035FD20460AB0BDE8F08100BFDCC50D00BA
:1081F000FCFEFFFFE0C40D00D9C40D00E8FEFFFF48
:1082000007BE0D0010B50446BFF35F8F94F8C83168
:10821000BFF35F8F1BB92046FFF76CFFF4E710BD7B
:1082200010B50468016044B12046FFF744FE2046C3
:108230000421BDE8104000F0BDBD10BD2DE9F041A6
:1082400005468AB000F5E070FFF746F82C68002C70
:108250007BD14C20FBF721FF0646002873D0FEF7A8
:1082600013FB22464FF49A613046FEF73DFB0AA904
:108270003A4801F8194DFDF7B9FC33689DF80F2015
:108280001B6A49F269013046984704A8FFF7F6FBDC
:1082900004A8FFF70FFF00284ADB04A93046FEF7C9
:1082A00072FB002844DBBFF35F8F85F8C841BFF342
:1082B0005F8F2B49042000F081FD05F5DE7807462D
:1082C00048B32749142000F079FD28B104740460F4
:1082D00044608460C46044743860B0B1214B8360F2
:1082E0003B682149DD6038684FF440638DE8090040
:1082F00003221E4B0430FDF7EDFC30B93B681B7CBC
:108300004BB90120FDF7A2FCF8E7386800233B6079
:1083100008B1FFF7B5FD39464046FFF781FFD5F8B4
:10832000BC313BB128682E6030B1FFF7BFFD0CE0D7
:10833000044603E00E4C01E0044607E036B1304647
:10834000FFF7B4FD02E00A4C00E00024D5F8C001BC
:10835000FDF728FD20460AB0BDE8F081F0C40D000D
:10836000DCC50D0005820D00F4C40D00F57D0D0087
:10837000FCFEFFFF2DE9F04705468CB016460F4680
:1083800009B10B780BB9354C64E0084601F0CBFC21
:108390008046002E5CD0304601F0C5FC441C08F13C
:1083A00002032344B3F59A6F4FD805F5E070FEF74A
:1083B00093FF2846FFF742FF002840DB6846FFF79F
:1083C0005DFB6846FFF776FE002838DBD5F800A095
:1083D000DAF800300DF1040CD3F83890204B0693F6
:1083E000BCE80F000DF11C0EAEE80F00DCF8003009
:1083F0008EF8003049F2690206A95046C8470028A5
:108400001DDB002328688DF8183003680122DB6823
:1084100006A998472868036808F10102DB68394615
:1084200098472CB1286803682246DB683146984794
:10843000286803681B6C984700EAE07400E0044673
:10844000D5F8C001FDF7AEFC04E06FF0BD0401E01B
:108450003446A4E720460CB0BDE8F087F2FEFFFFEB
:1084600004C40D00F8B5054600F5E0700E46174649
:10847000FEF732FF2846FFF7E1FE002807DB3A4609
:108480003146281DFFF7E6FD00EAE07400E00446EF
:10849000D5F8C001FDF786FC2046F8BD38B50E4C76
:1084A0000E4B23600025022304F5E4706360A56091
:1084B000C4F8C451C4F8C851FDF764FC084BC4F8B3
:1084C000CC5184F8D05123602046064A0649BDE8C5
:1084D000384000F061BC00BF2CE50320B0C50D00A2
:1084E000A0C40D0030CE0320F57E0D0037B502ACE0
:1084F000036804F8011DDD6B01224FF0FF332146B4
:10850000A84703B030BD10B40368DC6B4FF0FF33F5
:10851000A4465DF8044B604737B502AC036804F825
:10852000011DDD6B214613460122A84703B030BD73
:10853000704738B543691A68002A044605DAB3F86B
:108540008620B3F884309A4201D001250BE00368FD
:108550001B699847002814BF0125002503D1236813
:108560002046DB6A9847284638BD43691868C043EF
:10857000C00F704770470020704710B514210446A3
:1085800000F018FC204610BDFBF78BBD7FB51646EA
:1085900000224260029203925A1C04460D4608D003
:1085A0004FF47A72B3FBF2F1029102FB11314A43AC
:1085B000039260690823009341F205026B4440F680
:1085C000FF710068FDF7AEFC002808DB606900233E
:1085D000324629460068FDF7CDFC002804DAFDF795
:1085E00037FE03686360002004B070BD10B50368F7
:1085F00004469B689847A368013BA3602BB9236896
:108600002046DB68BDE81040184710BD70B5044631
:108610004D69054B44F8043B8C3506460FCD0FC41D
:108620002B682370304670BD04C40D0010B543693B
:10863000B3F88620B3F884309A42044605D06269C4
:10864000B2F884301344187910BD03681B69984749
:108650000028F4D14FF0FF3010BD10B54369B3F8D6
:108660008620B3F884309A42044608D06269B2F892
:108670008430591C1344A2F88410187910BD036883
:108680001B6998470028F1D14FF0FF3010BDF8B5B5
:1086900043691746B3F88620B3F884309A420546FA
:1086A0000E4606D103681B69984710B94FF0FF3496
:1086B00014E06969B1F88430B1F88640E41ABC422C
:1086C00028BF3C46194422460431304601F099FA4D
:1086D0006A69B2F884302344A2F884302046F8BD99
:1086E0002DE9F0439846036893B0DB6A0D460646D1
:1086F0001746984712AB002443F8484D22462146BE
:108700002846FDF72BFA814600283DD1009B002B1F
:1087100056D05B69002B53D006A8FFF7AFF9009B3A
:108720005C696378022B01D1211D13E00A2B14D15F
:108730001122494601A801F08AFAA36833BBE36815
:1087400023BB4FF6FF702569FDF754FB85421DD111
:1087500004F1140106A8FFF7E1F906A8FFF7AEF946
:1087600000282DD0336807ADD3F82090184B0C9318
:108770000FCD0DAC0FC42B6823703A4643460CA9AD
:108780003046C84781461BE0A14619E004F10803C2
:1087900001AD1834186859682A4603C20833A34249
:1087A0001546F7D1062301A90CA80DAD8DF814309C
:1087B000FFF772F90FCD07AC0FC42B682370CCE71D
:1087C0000098FDF7C3F9484613B0BDE8F08300BF39
:1087D00004C40D0042690023A2F884304269A2F863
:1087E000863070472DE9F0411E4603680C468AB07A
:1087F000DB6A054617469847237DD5F81480042B7D
:108800000CBF02200A2006220121FDF7C3FBC8F895
:1088100000006B691B68002B18DB2846FFF7DAFFA6
:10882000D6B1002303A9F0B20393ADF81030FDF7E1
:10883000E5F958B968690623009341F20B0203ABCE
:1088400040F6FF710068FDF76DFB28B12B682846E4
:10885000DB6A002498473BE01C263246002103A82F
:1088600001F0F5F9237D8DF80C60042B0CD1022367
:1088700038468DF80D30FDF7CDFAADF80E00606882
:10888000FDF7B8FA049013E00A2338468DF80D304E
:10889000FDF7C0FA05AEADF80E00231D04F1140774
:1088A00018685968324603C20833BB421646F7D1EE
:1088B0006B691C2203A91868FDF744FB0028C5D189
:1088C00004340FCC6D698C350FC523682B700124DF
:1088D00020460AB0BDE8F08110B543690446186827
:1088E000002801DBFDF726FB63694FF0FF321A60B9
:1088F0006069112200218C3001F0A9F92046BDE801
:108900001040FFF767BF000030B54269B2F886300B
:108910008BB004461BB1B2F884209A4240D0636900
:10892000186800283FDBB3F886507F2D3BD8191D0F
:10893000C5F1800208232944FDF70CFB00280CDD5B
:108940006369B3F886200AB9A3F884206269B2F893
:1089500086301844A2F8860025E0FDF779FC03680C
:108960000B2B20D0FDF774FC03680B2B1BD02023AE
:10897000002502930395FDF76BFC036801930E4BF2
:10898000009302AA2B460D493220FDF74BFB636989
:108990001868FDF7CFFA63694FF0FF321A6002E002
:1089A000FFF718FFBBE76269B2F88630B2F88400BF
:1089B000181A0BB030BD00BF64C50D00D9C40D003E
:1089C00043691868C043C00F704710B500230446C0
:1089D0000160A0F88430A0F886308830FFF74EF8A8
:1089E000204610BD4FF47A7270B500238260144A9D
:1089F00043600260436183610446A0200E46FBF79A
:108A00004CFB054610B13146FFF7DFFF1420FBF7A2
:108A100044FB034628B1012242608260094A026099
:108A20000561A0696561A36128B14368013B4360AA
:108A30000BB9FFF7DBFD2046FFF7CCFE204670BDEB
:108A400020C50D0004C50D0010B54FF0FF310446E0
:108A5000FFF7C8FF204610BD10B504460068002887
:108A600001DBFDF767FA204610BD10B5046920460A
:108A7000FFF7F2FF24B12046BDE81040FBF711BB21
:108A800010BD002211464068FDF732BB002211469E
:108A90004068FDF74DBB002211464068FDF758BB0A
:108AA00000224068FDF74CBB002281F001014068C4
:108AB000FDF736BB00231A4619464068FDF728BB70
:108AC00000231A4619464068FDF71ABB00221146DA
:108AD0004068FDF7FDBA002202214068FDF700BBA7
:108AE00000231A464068FDF7EBBA0000024B04224F
:108AF0005A60024A1A60704700E703207CC50D00E7
:108B000000231A464068FDF7DBBA002202214068C4
:108B1000FDF7E6BA002211464068FDF7D9BA0022F7
:108B200011464068FDF7E4BA00231A46194640682A
:108B3000FDF7E6BA00231A4619464068FDF7E8BA81
:108B4000002281F001014068FDF7EABA0022406886
:108B5000FDF7F6BA002211464068FDF7F9BA002287
:108B600011464068FDF7E4BA2DE9F043002495B0C2
:108B700016460D460746FEF781FF214620220CA827
:108B8000009401F064F840230C9321466B460CAA34
:108B90003046FCF7E3FF0446002844D10246012199
:108BA0006868FDF7A5FA0221804622466868FDF74D
:108BB0009FFA009E81462146002E34D0002932D1F2
:108BC0007368022B02D00A2B09D02AE0B8F1000FFB
:108BD00027D0716938460431FEF7A0FF20E0B9F1D3
:108BE000000F1ED07469112201A801F030F806238D
:108BF0008DF8143001AD04F1080318341868596871
:108C00002A4603C20833A3421546F7D101A906A894
:108C100007ADFEF741FF0FCD3C1D0FC42B6823703D
:108C20000121F669C8E70098FCF790FF384615B0B7
:108C3000BDE8F083024B034A1A6000225A60704775
:108C400008E70320B0C50D0010B504460F48FDF736
:108C500061FB28B1A4F10B03022B01D8002010BD49
:108C600000F07AF8FFF7C2F808B1012CF6D9FFF747
:108C700045F8FFF73FF818B1A4F10903012BEDD92E
:108C8000232C8CBF0020012010BD00BF10E7032063
:108C9000232838B504460D460AD8FF2908D0FFF727
:108CA000D3FF28B129462046BDE83840FCF76EBF07
:108CB00038BD38B504460D46FCF770FFFF2810D0CC
:108CC000062804D84D2323FA00F0C30709D4204610
:108CD000FFF7BAFF28B129462046BDE83840FCF727
:108CE00065BF38BD0D2810B504469CBF0E34A4B234
:108CF0002046FFF7A9FF50B103212046FCF73EFFB5
:108D0000032804D12046BDE81040FCF757BF0020DF
:108D100010BD000070B50C4C0C4E0D4D00212046CE
:108D2000FDF7E4FA20460B4C3246294600F034F8B1
:108D300001212046FDF7DAFA324629462046BDE8F1
:108D4000704000F029B800BF10E7032030CE0320A8
:108D5000DD620D0020E7032038B50B4D296811F0C6
:108D600001040FD12846FBF7A0F958B12146074866
:108D7000FFF72AF82846FBF79DF9054A05490348FD
:108D800000F00AF8014838BD34E7032038E7032033
:108D900030CE0320717D0D000B460146184600F0D1
:108DA0000FBF0000024B1868BFF35F8F704700BF12
:108DB0004CE70320FBF775B900F000B810B50028A8
:108DC00014BF044601242046FDF70AFA20B9FFF734
:108DD000E9FF08B18047F6E710BDC3689A68C26032
:108DE00002B1506042685A600A68904201D10B603B
:108DF00005E04268916888420CBF9360D360986038
:108E0000436070478368DA68826002B150604268EC
:108E10005A600A68904201D10B6005E04268D1684F
:108E200088420CBFD3609360D8604360704703787A
:108E30002BB943685B68984201D1C3680CE0836832
:108E40001BB1DA6842B11346FBE743689A68824275
:108E500002D118465B68F9E718467047C36823B12A
:108E600018469B68002BFBD10AE04368DA6882420F
:108E700002D118465B68F9E7C268934218BF1846EA
:108E80007047FFF7D4BF2DE9F0471F4603F10409EF
:108E900000230C464A608B60CB600B7068B1974230
:108EA000916001D179600CE0BB689A4208BFB9605B
:108EB0004FF001084FF0000A17E0D160FB689A42BA
:108EC000F6D1FC60F4E766683278002A3AD175681A
:108ED000AB689E421FD1EB685BB11A784AB986F83D
:108EE000008083F800802A702C467B689C42EAD17F
:108EF00028E0F3689C4204D149463046FFF76DFFF5
:108F000034466368494683F80080284685F800A007
:108F1000FFF778FF14E013B11A78002ADFD0B368A6
:108F20009C4204D149463046FFF76CFF34466368E3
:108F3000494683F80080284685F800A0FFF74DFFDA
:108F40002546D1E701221A70BDE8F08708B5FDF784
:108F50006FF90000184B1A68D1075CBF01221A6034
:108F6000164B1A68D2075CBF01221A60144B1A68AC
:108F7000D0075CBF01221A60124B1A68D1075CBF90
:108F800001221A60104B1A68D2075CBF01221A60D6
:108F90000E4B1A68D0075CBF01221A600C4B1A688E
:108FA000D1075CBF01221A600A4B1A68D2075CBF66
:108FB00001221A60704700BF6CE7032068E70320B6
:108FC00064E7032060E703205CE7032058E7032001
:108FD00054E7032050E70320244B1A68D0075CBFF6
:108FE00001221A60224B1A68D1075CBF01221A6065
:108FF000204B1A68D2075CBF01221A601E4B1A6808
:10900000D0075CBF01221A601C4B1A68D1075CBFF5
:1090100001221A601A4B1A68D2075CBF01221A603B
:10902000184B1A68D0075CBF01221A60164B1A68E9
:10903000D1075CBF01221A60144B1A68D2075CBFCB
:1090400001221A60124B1A68D0075CBF01221A6015
:10905000104B1A68D1075CBF01221A600E4B1A68C8
:10906000D2075CBF01221A60704700BF9CE7032053
:1090700098E7032094E7032090E703208CE7032080
:1090800088E7032084E7032080E703207CE70320B0
:1090900078E7032074E7032070E70320244B1A6865
:1090A000D0075CBF01221A60224B1A68D1075CBF4F
:1090B00001221A60204B1A68D2075CBF01221A6095
:1090C0001E4B1A68D0075CBF01221A601C4B1A683D
:1090D000D1075CBF01221A601A4B1A68D2075CBF25
:1090E00001221A60184B1A68D0075CBF01221A606F
:1090F000164B1A68D1075CBF01221A60144B1A681C
:10910000D2075CBF01221A60124B1A68D0075CBFFD
:1091100001221A60104B1A68D1075CBF01221A6045
:109120000E4B1A68D2075CBF01221A60704700BF5D
:10913000CCE70320C8E70320C4E70320C0E70320EF
:10914000BCE70320B8E70320B4E70320B0E703201F
:10915000ACE70320A8E70320A4E70320A0E703204F
:10916000184B1A68D1075CBF01221A60164B1A68A7
:10917000D2075CBF01221A60144B1A68D0075CBF8B
:1091800001221A60124B1A68D1075CBF01221A60D3
:10919000104B1A68D2075CBF01221A600E4B1A6886
:1091A000D0075CBF01221A600C4B1A68D1075CBF64
:1091B00001221A600A4B1A68D2075CBF01221A60AA
:1091C000704700BFECE70320E8E70320E4E7032053
:1091D000E0E70320DCE70320D8E70320D4E70320FF
:1091E000D0E7032081F0004102E000BF83F000439C
:1091F00030B54FEA41044FEA430594EA050F08BF32
:1092000090EA020F1FBF54EA000C55EA020C7FEAF5
:10921000645C7FEA655C00F0E2804FEA5454D4EB72
:109220005555B8BF6D420CDD2C4480EA020281EA3C
:10923000030382EA000083EA010180EA020281EA74
:109240000303362D88BF30BD11F0004F4FEA0131C6
:109250004FF4801C4CEA113102D0404261EB4101D5
:1092600013F0004F4FEA03334CEA133302D052425B
:1092700063EB430394EA050F00F0A780A4F1010417
:10928000D5F1200E0DDB02FA0EFC22FA05F2801851
:1092900041F1000103FA0EF2801843FA05F3594137
:1092A0000EE0A5F120050EF1200E012A03FA0EFCB6
:1092B00028BF4CF0020C43FA05F3C01851EBE371E0
:1092C00001F0004507D54FF0000EDCF1000C7EEBFD
:1092D00000006EEB0101B1F5801F1BD3B1F5001F3B
:1092E0000CD349085FEA30004FEA3C0C04F101045A
:1092F0004FEA445212F5800F80F09A80BCF1004F83
:1093000008BF5FEA500C50F1000041EB045141EA04
:10931000050130BD5FEA4C0C404141EB010111F405
:10932000801FA4F10104E9D191F0000F04BF0146B0
:109330000020B1FA81F308BF2033A3F10B03B3F18E
:1093400020020CDA0C3208DD02F1140CC2F10C021E
:1093500001FA0CF021FA02F10CE002F11402D8BF7C
:10936000C2F1200C01FA02F120FA0CFCDCBF41EA48
:109370000C019040E41AA2BF01EB0451294330BD17
:109380006FEA04041F3C1CDA0C340EDC04F11404F4
:10939000C4F1200220FA04F001FA02F340EA0300CB
:1093A00021FA04F345EA030130BDC4F10C04C4F111
:1093B000200220FA02F001FA04F340EA03002946F1
:1093C00030BD21FA04F0294630BD94F0000F83F43B
:1093D000801306BF81F480110134013D4EE77FEA1E
:1093E000645C18BF7FEA655C29D094EA050F08BF6A
:1093F00090EA020F05D054EA000C04BF194610464B
:1094000030BD91EA030F1EBF0021002030BD5FEA8E
:10941000545C05D14000494128BF41F0004130BDB6
:1094200014F580043CBF01F5801130BD01F000450A
:1094300045F0FE4141F470014FF0000030BD7FEA7D
:10944000645C1ABF194610467FEA655C1CBF0B4678
:10945000024650EA013406BF52EA033591EA030F8F
:1094600041F4002130BD00BF90F0000F04BF002187
:10947000704730B54FF4806404F132044FF00005BA
:109480004FF0000150E700BF90F0000F04BF002133
:10949000704730B54FF4806404F1320410F0004599
:1094A00048BF40424FF000013EE700BF42004FEA94
:1094B000E2014FEA31014FEA02701FBF12F07F4311
:1094C00093F07F4F81F06051704792F0000F14BF0E
:1094D00093F07F4F704730B54FF4607401F0004552
:1094E00021F0004120E700BF50EA010208BF7047A9
:1094F00030B54FF000050AE050EA010208BF70479E
:1095000030B511F0004502D5404261EB41014FF406
:10951000806404F132045FEA915C3FF4DCAE4FF00A
:1095200003025FEADC0C18BF03325FEADC0C18BFF1
:10953000033202EBDC02C2F1200300FA03FC20FA42
:1095400002F001FA03FE40EA0E0021FA02F114448F
:10955000C1E600BF70B54FF0FF0C4CF4E06C1CEAA4
:1095600011541DBF1CEA135594EA0C0F95EA0C0F19
:1095700000F0DEF82C4481EA030621EA4C5123EA8C
:109580004C5350EA013518BF52EA033541F48011BB
:1095900043F4801338D0A0FB02CE4FF00005E1FB6E
:1095A00002E506F00042E0FB03E54FF00006E1FBB8
:1095B00003569CF0000F18BF4EF0010EA4F1FF04FB
:1095C000B6F5007F64F5407404D25FEA4E0E6D413B
:1095D00046EB060642EAC62141EA55514FEAC5204C
:1095E00040EA5E504FEACE2EB4F1FD0C88BFBCF5C8
:1095F000E06F1ED8BEF1004F08BF5FEA500E50F179
:10960000000041EB045170BD06F0004646EA01013E
:1096100040EA020081EA0301B4EB5C04C2BFD4EB70
:109620000C0541EA045170BD41F480114FF0000E69
:10963000013C00F3AB8014F1360FDEBF002001F0D7
:10964000004170BDC4F10004203C35DA0C341BDC51
:1096500004F11404C4F1200500FA05F320FA04F023
:1096600001FA05F240EA020001F0004221F0004157
:1096700010EBD37021FA04F642EB06015EEA430ECA
:1096800008BF20EAD37070BDC4F10C04C4F12005FA
:1096900000FA04F320FA05F001FA04F240EA0200AD
:1096A00001F0004110EBD37041F100015EEA430E7E
:1096B00008BF20EAD37070BDC4F1200500FA05F29E
:1096C0004EEA020E20FA04F301FA05F243EA02031D
:1096D00021FA04F001F0004121FA04F220EA02002C
:1096E00000EBD3705EEA430E08BF20EAD37070BD72
:1096F00094F0000F0FD101F00046400041EB010152
:1097000011F4801F08BF013CF7D041EA060195F033
:10971000000F18BF704703F00046520043EB0303ED
:1097200013F4801F08BF013DF7D043EA06037047DA
:1097300094EA0C0F0CEA135518BF95EA0C0F0CD0E5
:1097400050EA410618BF52EA4306D1D181EA03012B
:1097500001F000414FF0000070BD50EA410606BF25
:109760001046194652EA430619D094EA0C0F02D16A
:1097700050EA013613D195EA0C0F05D152EA0336AF
:109780001CBF104619460AD181EA030101F00041CD
:1097900041F0FE4141F470014FF0000070BD41F016
:1097A000FE4141F4780170BD70B54FF0FF0C4CF4F0
:1097B000E06C1CEA11541DBF1CEA135594EA0C0F0F
:1097C00095EA0C0F00F0A7F8A4EB050481EA030E5C
:1097D00052EA03354FEA013100F088804FEA033343
:1097E0004FF0805545EA131343EA12634FEA022211
:1097F00045EA111545EA10654FEA00260EF00041D2
:109800009D4208BF964244F1FD0404F5407402D223
:109810005B084FEA3202B61A65EB03055B084FEAB4
:1098200032024FF480104FF4002CB6EB020E75EBB1
:10983000030E22BFB61A754640EA0C005B084FEAD9
:109840003202B6EB020E75EB030E22BFB61A754656
:1098500040EA5C005B084FEA3202B6EB020E75EBA1
:10986000030E22BFB61A754640EA9C005B084FEA19
:109870003202B6EB020E75EB030E22BFB61A754626
:1098800040EADC0055EA060E18D04FEA051545EA15
:1098900016754FEA06164FEAC30343EA52734FEABE
:1098A000C2025FEA1C1CC0D111F4801F0BD141EA37
:1098B00000014FF000004FF0004CB6E711F4801F9C
:1098C00004BF01430020B4F1FD0C88BFBCF5E06F7C
:1098D0003FF6AFAEB5EB030C04BFB6EB020C5FEA8C
:1098E000500C50F1000041EB045170BD0EF0004EE1
:1098F0004EEA113114EB5C04C2BFD4EB0C0541EA13
:10990000045170BD41F480114FF0000E013C90E60F
:1099100045EA060E8DE60CEA135594EA0C0F08BFD3
:1099200095EA0C0F3FF43BAF94EA0C0F0AD150EAD2
:1099300001347FF434AF95EA0C0F7FF425AF104665
:1099400019462CE795EA0C0F06D152EA03353FF48D
:10995000FDAE1046194622E750EA410618BF52EA0A
:1099600043067FF4C5AE50EA41047FF40DAF52EADE
:1099700043057FF4EBAE12E74FF0FF3C06E000BF7B
:109980004FF0010C02E000BF4FF0010C4DF804CD88
:109990004FEA410C7FEA6C5C4FEA430C18BF7FEA48
:1099A0006C5C1BD001B050EA410C0CBF52EA430C76
:1099B00091EA030F02BF90EA020F0020704710F1F6
:1099C000000F91EA030F58BF994208BF90422CBF85
:1099D000D8176FEAE37040F0010070474FEA410C7E
:1099E0007FEA6C5C02D150EA013C07D14FEA430C9C
:1099F0007FEA6C5CD6D152EA033CD3D05DF8040B0D
:109A0000704700BF8446104662468C46194663463E
:109A100000E000BF01B5FFF7B7FF002848BF10F115
:109A2000000F01BD4DF808EDFFF7F4FF0CBF01205A
:109A300000205DF808FB00BF4DF808EDFFF7EAFFD6
:109A400034BF012000205DF808FB00BF4DF808ED91
:109A5000FFF7E0FF94BF012000205DF808FB00BF86
:109A60004DF808EDFFF7CEFF94BF012000205DF810
:109A700008FB00BF4DF808EDFFF7C4FF34BF01201D
:109A800000205DF808FB00BF4FEA410212F500120A
:109A900015D211D56FF47873B3EB625212D94FEA35
:109AA000C12343F0004343EA505311F0004F23FA1F
:109AB00002F018BF404270474FF00000704750EA74
:109AC000013005D111F0004008BF6FF00040704731
:109AD0004FF00000704700BF4A0011D212F500128B
